{"abi":[{"inputs":[{"internalType":"address","name":"_RCU","type":"address"},{"internalType":"address","name":"_owner","type":"address"},{"internalType":"address","name":"_segaFact","type":"address"}],"stateMutability":"nonpayable","type":"constructor","name":"constructor"},{"anonymous":false,"inputs":[{"indexed":false,"internalType":"address","name":"_backup","type":"address"}],"name":"ChangedBackup","type":"event"},{"anonymous":false,"inputs":[{"indexed":false,"internalType":"uint256","name":"","type":"uint256"}],"name":"ChangedInactiveTime","type":"event"},{"anonymous":false,"inputs":[{"indexed":false,"internalType":"address","name":"newSega","type":"address"}],"name":"NewSegaCreated","type":"event"},{"anonymous":false,"inputs":[],"name":"OwnerIsActive","type":"event"},{"anonymous":false,"inputs":[{"indexed":true,"internalType":"address","name":"_new","type":"address"},{"indexed":true,"internalType":"address","name":"_old","type":"address"}],"name":"OwnershipTransfered","type":"event"},{"anonymous":false,"inputs":[{"indexed":false,"internalType":"address","name":"","type":"address"},{"indexed":false,"internalType":"uint256","name":"","type":"uint256"}],"name":"Received","type":"event"},{"anonymous":false,"inputs":[{"indexed":true,"internalType":"address","name":"_sega","type":"address"},{"indexed":true,"internalType":"uint8","name":"onOff","type":"uint8"}],"name":"SegaFrozen","type":"event"},{"anonymous":false,"inputs":[{"indexed":true,"internalType":"address","name":"_sega","type":"address"},{"indexed":true,"internalType":"address","name":"_token","type":"address"},{"indexed":false,"internalType":"uint256","name":"_amount","type":"uint256"}],"name":"SegaRecall","type":"event"},{"anonymous":false,"inputs":[{"indexed":true,"internalType":"address","name":"_sega","type":"address"},{"indexed":false,"internalType":"address","name":"newTrader","type":"address"}],"name":"SegaTraderChanged","type":"event"},{"anonymous":false,"inputs":[{"indexed":true,"internalType":"address","name":"_to","type":"address"},{"indexed":true,"internalType":"address","name":"_token","type":"address"},{"indexed":false,"internalType":"uint256","name":"_amount","type":"uint256"}],"name":"SentOutAssets","type":"event"},{"stateMutability":"payable","type":"fallback"},{"inputs":[],"name":"RCU","outputs":[{"internalType":"address","name":"","type":"address"}],"stateMutability":"view","type":"function"},{"inputs":[{"internalType":"address","name":"_sega","type":"address"},{"internalType":"uint256","name":"_amount","type":"uint256"}],"name":"RecallFromSega","outputs":[],"stateMutability":"nonpayable","type":"function"},{"inputs":[{"internalType":"address","name":"_sega","type":"address"},{"internalType":"address","name":"_token","type":"address"},{"internalType":"uint256","name":"_amount","type":"uint256"}],"name":"RecallFromSega","outputs":[],"stateMutability":"nonpayable","type":"function"},{"inputs":[{"internalType":"address","name":"_sega","type":"address"},{"internalType":"address","name":"_newTrader","type":"address"}],"name":"changeTrader","outputs":[],"stateMutability":"nonpayable","type":"function"},{"inputs":[],"name":"claimVault","outputs":[],"stateMutability":"nonpayable","type":"function"},{"inputs":[{"internalType":"address","name":"_segaFactory","type":"address"},{"internalType":"uint256","name":"index","type":"uint256"}],"name":"createCustomSega","outputs":[{"internalType":"address","name":"","type":"address"}],"stateMutability":"nonpayable","type":"function"},{"inputs":[],"name":"createNewSega","outputs":[{"internalType":"address","name":"","type":"address"}],"stateMutability":"nonpayable","type":"function"},{"inputs":[],"name":"getRecoveryInfo","outputs":[{"internalType":"address","name":"","type":"address"},{"internalType":"address","name":"","type":"address"},{"internalType":"uint256","name":"","type":"uint256"},{"internalType":"uint256","name":"","type":"uint256"}],"stateMutability":"view","type":"function"},{"inputs":[{"internalType":"address","name":"_sega","type":"address"}],"name":"pauseSega","outputs":[],"stateMutability":"nonpayable","type":"function"},{"inputs":[],"name":"segaFactory","outputs":[{"internalType":"address","name":"","type":"address"}],"stateMutability":"view","type":"function"},{"inputs":[{"internalType":"address","name":"receiver","type":"address"},{"internalType":"address","name":"_token","type":"address"},{"internalType":"uint256","name":"amount","type":"uint256"}],"name":"sendAssets","outputs":[],"stateMutability":"nonpayable","type":"function"},{"inputs":[{"internalType":"address payable","name":"receiver","type":"address"},{"internalType":"uint256","name":"amount","type":"uint256"}],"name":"sendAssets","outputs":[],"stateMutability":"nonpayable","type":"function"},{"inputs":[{"internalType":"address","name":"_backup","type":"address"}],"name":"setBackup","outputs":[],"stateMutability":"nonpayable","type":"function"},{"inputs":[{"internalType":"uint256","name":"_unlockTime","type":"uint256"}],"name":"setUnlockPeriod","outputs":[],"stateMutability":"nonpayable","type":"function"},{"inputs":[{"internalType":"address","name":"_sega","type":"address"}],"name":"unpauseSega","outputs":[],"stateMutability":"nonpayable","type":"function"},{"inputs":[],"name":"viewSegaList","outputs":[{"internalType":"address[]","name":"","type":"address[]"}],"stateMutability":"view","type":"function"},{"stateMutability":"payable","type":"receive"}],"bytecode":"60c06040523480156200001157600080fd5b506040516200180338038062001803833981016040819052620000349162000106565b6001600160601b0319606084811b821660a05282901b16608052600080546001600160a01b0384166001600160a01b0319918216811790925560018054909116909117905561016d6003819055620000919062015180906200016b565b6200009d904262000150565b6002555050600580546001810182556000919091527f036b6384b5eca791c62761152d0c79bb0604c104a5fb6f4eb0703f3154bb3db00180546001600160a01b031916905550620001a3565b80516001600160a01b03811681146200010157600080fd5b919050565b6000806000606084860312156200011c57600080fd5b6200012784620000e9565b92506200013760208501620000e9565b91506200014760408501620000e9565b90509250925092565b600082198211156200016657620001666200018d565b500190565b60008160001904831182151516156200018857620001886200018d565b500290565b634e487b7160e01b600052601160045260246000fd5b60805160601c60a05160601c611618620001eb600039600081816102480152818161050a0152610a4901526000818161032001528181610a210152610af701526116186000f3fe6080604052600436106100f65760003560e01c8063664365aa1161008a578063ab518e6e11610059578063ab518e6e14610357578063b7dacbf11461036c578063d9b83c711461038c578063e5001d7f146103ac57610136565b8063664365aa146102aa57806389ab6fb4146102ca57806391f21da51461030e578063aaaeba9e1461034257610136565b80631f132e33116100c65780631f132e33146102165780633709d6ba146102365780633d0ddf841461026a5780634011f00f1461028a57610136565b8062219c171461017357806304abfe7c146101935780630dc38d51146101be57806318024bec146101f657610136565b3661013657604080513381523460208201527f88a5966d370b9919b20f3e2c13ff65706f196a4e32cc2c12bf57088f8852587491015b60405180910390a1005b341561017157604080513381523460208201527f88a5966d370b9919b20f3e2c13ff65706f196a4e32cc2c12bf57088f88525874910161012c565b005b34801561017f57600080fd5b5061017161018e3660046113ce565b6103cc565b34801561019f57600080fd5b506101a861047f565b6040516101b591906114c8565b60405180910390f35b3480156101ca57600080fd5b506101de6101d93660046113ce565b6104e1565b6040516001600160a01b0390911681526020016101b5565b34801561020257600080fd5b506101716102113660046113fa565b61066e565b34801561022257600080fd5b5061017161023136600461138d565b610720565b34801561024257600080fd5b506101de7f000000000000000000000000000000000000000000000000000000000000000081565b34801561027657600080fd5b50610171610285366004611496565b6107c0565b34801561029657600080fd5b506101716102a536600461138d565b61080c565b3480156102b657600080fd5b506101716102c5366004611433565b6108ab565b3480156102d657600080fd5b50600054600154600254600354604080516001600160a01b0395861681529490931660208501529183015260608201526080016101b5565b34801561031a57600080fd5b506101de7f000000000000000000000000000000000000000000000000000000000000000081565b34801561034e57600080fd5b506101de610a00565b34801561036357600080fd5b50610171610bc5565b34801561037857600080fd5b5061017161038736600461138d565b610cc9565b34801561039857600080fd5b506101716103a73660046113ce565b610d28565b3480156103b857600080fd5b506101716103c7366004611433565b610e68565b6103d4610f38565b816103de81610f99565b6040516317d85bbf60e11b8152600481018390526001600160a01b03841690632fb0b77e90602401600060405180830381600087803b15801561042057600080fd5b505af1158015610434573d6000803e3d6000fd5b5050604051848152600092506001600160a01b03861691507fbe457ce8b7bcaa491415def88f108b025525279936ee1dd9ec4dc7debffcee04906020015b60405180910390a3505050565b606060058054806020026020016040519081016040528092919081815260200182805480156104d757602002820191906000526020600020905b81546001600160a01b031681526001909101906020018083116104b9575b5050505050905090565b60006104eb610f38565b6040516313d1c77160e01b81526001600160a01b0384811660048301527f000000000000000000000000000000000000000000000000000000000000000016906313d1c77190602401602060405180830381600087803b15801561054e57600080fd5b505af1158015610562573d6000803e3d6000fd5b505050506040513d601f19601f820116820180604052508101906105869190611474565b61058f57600080fd5b60008054604051638d42974360e01b81523060048201526001600160a01b0391821660248201526044810185905290851690638d42974390606401602060405180830381600087803b1580156105e457600080fd5b505af11580156105f8573d6000803e3d6000fd5b505050506040513d601f19601f8201168201806040525081019061061c91906113b1565b905061062b816005600461102a565b6040516001600160a01b03821681527fb6ef1215893bd60ffeb9e97981aa41b2819605f61f7848a06db1f8c3aefc961b9060200160405180910390a19392505050565b610676610f38565b8161068081610f99565b6040516303fa141760e01b81526001600160a01b0383811660048301528416906303fa141790602401600060405180830381600087803b1580156106c357600080fd5b505af11580156106d7573d6000803e3d6000fd5b50506040516001600160a01b038581168252861692507f204ff20e2ccebc7aa7e2a38214aa8e974b36e1922b3588a7ff6dc21744bef4b6915060200160405180910390a2505050565b610728610f38565b8061073281610f99565b816001600160a01b03166347af99576040518163ffffffff1660e01b8152600401600060405180830381600087803b15801561076d57600080fd5b505af1158015610781573d6000803e3d6000fd5b5050604051600192506001600160a01b03851691507fa0868fabaeea3e340199d1f6fa323ec391fdb4fbdbea37a7e7194fb16930d6c690600090a35050565b6107c8610f38565b60038190556107d561116a565b6040518181527f782f38ea18a9e9e96e953be34b91022668f3809452782a1ac80d0765fe597a35906020015b60405180910390a150565b610814610f38565b8061081e81610f99565b816001600160a01b0316638936a91f6040518163ffffffff1660e01b8152600401600060405180830381600087803b15801561085957600080fd5b505af115801561086d573d6000803e3d6000fd5b5050604051600092506001600160a01b03851691507fa0868fabaeea3e340199d1f6fa323ec391fdb4fbdbea37a7e7194fb16930d6c6908390a35050565b6108b3610f38565b6108bc826111b3565b6108c583611209565b816108d081836112c7565b60405163a9059cbb60e01b81526001600160a01b038581166004830152602482018490526000919083169063a9059cbb90604401602060405180830381600087803b15801561091e57600080fd5b505af1158015610932573d6000803e3d6000fd5b505050506040513d601f19601f820116820180604052508101906109569190611474565b90508060405180604001604052806012815260200171151c985b9cd858dd1a5bdb8811985a5b195960721b815250906109ab5760405162461bcd60e51b81526004016109a29190611515565b60405180910390fd5b50836001600160a01b0316856001600160a01b03167f8f7184268eabc3e5f95d42873237e44e84d2cb27baa7358ac4fe098d4dfba2ed856040516109f191815260200190565b60405180910390a35050505050565b6000610a0a610f38565b6040516313d1c77160e01b81526001600160a01b037f0000000000000000000000000000000000000000000000000000000000000000811660048301527f000000000000000000000000000000000000000000000000000000000000000016906313d1c77190602401602060405180830381600087803b158015610a8d57600080fd5b505af1158015610aa1573d6000803e3d6000fd5b505050506040513d601f19601f82011682018060405250810190610ac59190611474565b610ace57600080fd5b60008054604051631937878760e31b81523060048201526001600160a01b0391821660248201527f00000000000000000000000000000000000000000000000000000000000000009091169063c9bc3c3890604401602060405180830381600087803b158015610b3d57600080fd5b505af1158015610b51573d6000803e3d6000fd5b505050506040513d601f19601f82011682018060405250810190610b7591906113b1565b9050610b84816005600461102a565b6040516001600160a01b03821681527fb6ef1215893bd60ffeb9e97981aa41b2819605f61f7848a06db1f8c3aefc961b9060200160405180910390a1905090565b600154604080518082019091526013815272155cd95c881b9bdd08105d5d1a1bdc9a5e9959606a1b6020820152906001600160a01b03163314610c1b5760405162461bcd60e51b81526004016109a29190611515565b50600254421015610c6e5760405162461bcd60e51b815260206004820152601e60248201527f4f776e6572206973206e6f74206465636c6172656420696e616374697665000060448201526064016109a2565b600080546001546001600160a01b039081166001600160a01b031983168117845560405191909216928392917f0d18b5fd22306e373229b9439188228edca81207d1667f604daf6cef8aa3ee679190a3610cc661116a565b50565b610cd1610f38565b610cda816111b3565b600180546001600160a01b0319166001600160a01b0383169081179091556040519081527f0adacb637d17de7895e9c7fc75f36437fd5c36d5e6e9cc83b95380f10a052f4a90602001610801565b610d30610f38565b610d3982611209565b8047101560405180604001604052806014815260200173496e73756666696369656e742042616c616e636560601b81525090610d885760405162461bcd60e51b81526004016109a29190611515565b506000826001600160a01b03168260405160006040518083038185875af1925050503d8060008114610dd6576040519150601f19603f3d011682016040523d82523d6000602084013e610ddb565b606091505b505090508060405180604001604052806012815260200171151c985b9cd858dd1a5bdb8811985a5b195960721b81525090610e295760405162461bcd60e51b81526004016109a29190611515565b506040518281526000906001600160a01b038516907f8f7184268eabc3e5f95d42873237e44e84d2cb27baa7358ac4fe098d4dfba2ed90602001610472565b610e70610f38565b82610e7a81610f99565b610e83836111b3565b60405163d0f108eb60e01b81526001600160a01b0384811660048301526024820184905285169063d0f108eb90604401600060405180830381600087803b158015610ecd57600080fd5b505af1158015610ee1573d6000803e3d6000fd5b50505050826001600160a01b0316846001600160a01b03167fbe457ce8b7bcaa491415def88f108b025525279936ee1dd9ec4dc7debffcee0484604051610f2a91815260200190565b60405180910390a350505050565b600054604080518082019091526013815272155cd95c881b9bdd08105d5d1a1bdc9a5e9959606a1b6020820152906001600160a01b03163314610f8e5760405162461bcd60e51b81526004016109a29190611515565b50610f9761116a565b565b6001600160a01b038116600090815260046020526040812054600580549091908110610fc757610fc76115b7565b6000918252602090912001546001600160a01b03161415610cc65760405162461bcd60e51b815260206004820152601960248201527f5365676120556e6b6f776e20746f2074686973205661756c740000000000000060448201526064016109a2565b6001600160a01b03831660009081526020829052604090205415611128576001600160a01b03831660009081526020829052604081205483548491908110611074576110746115b7565b6000918252602090912001546001600160a01b0316146110c85760405162461bcd60e51b815260206004820152600f60248201526e105b1c9958591e48115b98589b1959608a1b60448201526064016109a2565b6001600160a01b03831660009081526020829052604090205482548491849181106110f5576110f56115b7565b9060005260206000200160006101000a8154816001600160a01b0302191690836001600160a01b03160217905550505050565b81546001600160a01b0384166000818152602084815260408220849055600184018655858252902090910180546001600160a01b03191690911790555b505050565b6201518060035461117b9190611582565b611185904261156a565b6002556040517f7aa982a4520d96ed188d1997cb8420198dbfd349076824ed797a3fd39a7728a190600090a1565b6001600160a01b038116610cc65760405162461bcd60e51b815260206004820152601860248201527f5a65726f2041646472657373204e6f7420416c6c6f776564000000000000000060448201526064016109a2565b611212816111b3565b6000546001600160a01b038281169116148061126f57506001600160a01b038116600090815260046020526040812054600580549091908110611257576112576115b7565b6000918252602090912001546001600160a01b031614155b6040518060400160405280601d81526020017f5265636569766572206973206e6f74204f776e6572206f722053454741000000815250906112c35760405162461bcd60e51b81526004016109a29190611515565b5050565b6040516370a0823160e01b815230600482015281906001600160a01b038416906370a082319060240160206040518083038186803b15801561130857600080fd5b505afa15801561131c573d6000803e3d6000fd5b505050506040513d601f19601f8201168201806040525081019061134091906114af565b101560405180604001604052806014815260200173496e73756666696369656e742042616c616e636560601b815250906111655760405162461bcd60e51b81526004016109a29190611515565b60006020828403121561139f57600080fd5b81356113aa816115cd565b9392505050565b6000602082840312156113c357600080fd5b81516113aa816115cd565b600080604083850312156113e157600080fd5b82356113ec816115cd565b946020939093013593505050565b6000806040838503121561140d57600080fd5b8235611418816115cd565b91506020830135611428816115cd565b809150509250929050565b60008060006060848603121561144857600080fd5b8335611453816115cd565b92506020840135611463816115cd565b929592945050506040919091013590565b60006020828403121561148657600080fd5b815180151581146113aa57600080fd5b6000602082840312156114a857600080fd5b5035919050565b6000602082840312156114c157600080fd5b5051919050565b6020808252825182820181905260009190848201906040850190845b818110156115095783516001600160a01b0316835292840192918401916001016114e4565b50909695505050505050565b600060208083528351808285015260005b8181101561154257858101830151858201604001528201611526565b81811115611554576000604083870101525b50601f01601f1916929092016040019392505050565b6000821982111561157d5761157d6115a1565b500190565b600081600019048311821515161561159c5761159c6115a1565b500290565b634e487b7160e01b600052601160045260246000fd5b634e487b7160e01b600052603260045260246000fd5b6001600160a01b0381168114610cc657600080fdfea2646970667358221220e89954e386e7cfd8661f7492a88815c26b6c0e036da4dc4a073d0596de39deae64736f6c63430008060033","bytecodeSha1":"51de0fa2e7a144dbfc8b029a02f2510c650d929f","compiler":{"evm_version":"istanbul","optimizer":{"enabled":true,"runs":200},"version":"0.8.6+commit.11564f7e"},"contractName":"Vault","language":"Solidity","natspec":{"kind":"dev","methods":{},"version":1},"opcodes":"PUSH1 0x80 PUSH1 0x40 MSTORE PUSH1 0x4 CALLDATASIZE LT PUSH2 0xF6 JUMPI PUSH1 0x0 CALLDATALOAD PUSH1 0xE0 SHR DUP1 PUSH4 0x664365AA GT PUSH2 0x8A JUMPI DUP1 PUSH4 0xAB518E6E GT PUSH2 0x59 JUMPI DUP1 PUSH4 0xAB518E6E EQ PUSH2 0x357 JUMPI DUP1 PUSH4 0xB7DACBF1 EQ PUSH2 0x36C JUMPI DUP1 PUSH4 0xD9B83C71 EQ PUSH2 0x38C JUMPI DUP1 PUSH4 0xE5001D7F EQ PUSH2 0x3AC JUMPI PUSH2 0x136 JUMP JUMPDEST DUP1 PUSH4 0x664365AA EQ PUSH2 0x2AA JUMPI DUP1 PUSH4 0x89AB6FB4 EQ PUSH2 0x2CA JUMPI DUP1 PUSH4 0x91F21DA5 EQ PUSH2 0x30E JUMPI DUP1 PUSH4 0xAAAEBA9E EQ PUSH2 0x342 JUMPI PUSH2 0x136 JUMP JUMPDEST DUP1 PUSH4 0x1F132E33 GT PUSH2 0xC6 JUMPI DUP1 PUSH4 0x1F132E33 EQ PUSH2 0x216 JUMPI DUP1 PUSH4 0x3709D6BA EQ PUSH2 0x236 JUMPI DUP1 PUSH4 0x3D0DDF84 EQ PUSH2 0x26A JUMPI DUP1 PUSH4 0x4011F00F EQ PUSH2 0x28A JUMPI PUSH2 0x136 JUMP JUMPDEST DUP1 PUSH3 0x219C17 EQ PUSH2 0x173 JUMPI DUP1 PUSH4 0x4ABFE7C EQ PUSH2 0x193 JUMPI DUP1 PUSH4 0xDC38D51 EQ PUSH2 0x1BE JUMPI DUP1 PUSH4 0x18024BEC EQ PUSH2 0x1F6 JUMPI PUSH2 0x136 JUMP JUMPDEST CALLDATASIZE PUSH2 0x136 JUMPI PUSH1 0x40 DUP1 MLOAD CALLER DUP2 MSTORE CALLVALUE PUSH1 0x20 DUP3 ADD MSTORE PUSH32 0x88A5966D370B9919B20F3E2C13FF65706F196A4E32CC2C12BF57088F88525874 SWAP2 ADD JUMPDEST PUSH1 0x40 MLOAD DUP1 SWAP2 SUB SWAP1 LOG1 STOP JUMPDEST CALLVALUE ISZERO PUSH2 0x171 JUMPI PUSH1 0x40 DUP1 MLOAD CALLER DUP2 MSTORE CALLVALUE PUSH1 0x20 DUP3 ADD MSTORE PUSH32 0x88A5966D370B9919B20F3E2C13FF65706F196A4E32CC2C12BF57088F88525874 SWAP2 ADD PUSH2 0x12C JUMP JUMPDEST STOP JUMPDEST CALLVALUE DUP1 ISZERO PUSH2 0x17F JUMPI PUSH1 0x0 DUP1 REVERT JUMPDEST POP PUSH2 0x171 PUSH2 0x18E CALLDATASIZE PUSH1 0x4 PUSH2 0x13CE JUMP JUMPDEST PUSH2 0x3CC JUMP JUMPDEST CALLVALUE DUP1 ISZERO PUSH2 0x19F JUMPI PUSH1 0x0 DUP1 REVERT JUMPDEST POP PUSH2 0x1A8 PUSH2 0x47F JUMP JUMPDEST PUSH1 0x40 MLOAD PUSH2 0x1B5 SWAP2 SWAP1 PUSH2 0x14C8 JUMP JUMPDEST PUSH1 0x40 MLOAD DUP1 SWAP2 SUB SWAP1 RETURN JUMPDEST CALLVALUE DUP1 ISZERO PUSH2 0x1CA JUMPI PUSH1 0x0 DUP1 REVERT JUMPDEST POP PUSH2 0x1DE PUSH2 0x1D9 CALLDATASIZE PUSH1 0x4 PUSH2 0x13CE JUMP JUMPDEST PUSH2 0x4E1 JUMP JUMPDEST PUSH1 0x40 MLOAD PUSH1 0x1 PUSH1 0x1 PUSH1 0xA0 SHL SUB SWAP1 SWAP2 AND DUP2 MSTORE PUSH1 0x20 ADD PUSH2 0x1B5 JUMP JUMPDEST CALLVALUE DUP1 ISZERO PUSH2 0x202 JUMPI PUSH1 0x0 DUP1 REVERT JUMPDEST POP PUSH2 0x171 PUSH2 0x211 CALLDATASIZE PUSH1 0x4 PUSH2 0x13FA JUMP JUMPDEST PUSH2 0x66E JUMP JUMPDEST CALLVALUE DUP1 ISZERO PUSH2 0x222 JUMPI PUSH1 0x0 DUP1 REVERT JUMPDEST POP PUSH2 0x171 PUSH2 0x231 CALLDATASIZE PUSH1 0x4 PUSH2 0x138D JUMP JUMPDEST PUSH2 0x720 JUMP JUMPDEST CALLVALUE DUP1 ISZERO PUSH2 0x242 JUMPI PUSH1 0x0 DUP1 REVERT JUMPDEST POP PUSH2 0x1DE PUSH32 0x0 DUP2 JUMP JUMPDEST CALLVALUE DUP1 ISZERO PUSH2 0x276 JUMPI PUSH1 0x0 DUP1 REVERT JUMPDEST POP PUSH2 0x171 PUSH2 0x285 CALLDATASIZE PUSH1 0x4 PUSH2 0x1496 JUMP JUMPDEST PUSH2 0x7C0 JUMP JUMPDEST CALLVALUE DUP1 ISZERO PUSH2 0x296 JUMPI PUSH1 0x0 DUP1 REVERT JUMPDEST POP PUSH2 0x171 PUSH2 0x2A5 CALLDATASIZE PUSH1 0x4 PUSH2 0x138D JUMP JUMPDEST PUSH2 0x80C JUMP JUMPDEST CALLVALUE DUP1 ISZERO PUSH2 0x2B6 JUMPI PUSH1 0x0 DUP1 REVERT JUMPDEST POP PUSH2 0x171 PUSH2 0x2C5 CALLDATASIZE PUSH1 0x4 PUSH2 0x1433 JUMP JUMPDEST PUSH2 0x8AB JUMP JUMPDEST CALLVALUE DUP1 ISZERO PUSH2 0x2D6 JUMPI PUSH1 0x0 DUP1 REVERT JUMPDEST POP PUSH1 0x0 SLOAD PUSH1 0x1 SLOAD PUSH1 0x2 SLOAD PUSH1 0x3 SLOAD PUSH1 0x40 DUP1 MLOAD PUSH1 0x1 PUSH1 0x1 PUSH1 0xA0 SHL SUB SWAP6 DUP7 AND DUP2 MSTORE SWAP5 SWAP1 SWAP4 AND PUSH1 0x20 DUP6 ADD MSTORE SWAP2 DUP4 ADD MSTORE PUSH1 0x60 DUP3 ADD MSTORE PUSH1 0x80 ADD PUSH2 0x1B5 JUMP JUMPDEST CALLVALUE DUP1 ISZERO PUSH2 0x31A JUMPI PUSH1 0x0 DUP1 REVERT JUMPDEST POP PUSH2 0x1DE PUSH32 0x0 DUP2 JUMP JUMPDEST CALLVALUE DUP1 ISZERO PUSH2 0x34E JUMPI PUSH1 0x0 DUP1 REVERT JUMPDEST POP PUSH2 0x1DE PUSH2 0xA00 JUMP JUMPDEST CALLVALUE DUP1 ISZERO PUSH2 0x363 JUMPI PUSH1 0x0 DUP1 REVERT JUMPDEST POP PUSH2 0x171 PUSH2 0xBC5 JUMP JUMPDEST CALLVALUE DUP1 ISZERO PUSH2 0x378 JUMPI PUSH1 0x0 DUP1 REVERT JUMPDEST POP PUSH2 0x171 PUSH2 0x387 CALLDATASIZE PUSH1 0x4 PUSH2 0x138D JUMP JUMPDEST PUSH2 0xCC9 JUMP JUMPDEST CALLVALUE DUP1 ISZERO PUSH2 0x398 JUMPI PUSH1 0x0 DUP1 REVERT JUMPDEST POP PUSH2 0x171 PUSH2 0x3A7 CALLDATASIZE PUSH1 0x4 PUSH2 0x13CE JUMP JUMPDEST PUSH2 0xD28 JUMP JUMPDEST CALLVALUE DUP1 ISZERO PUSH2 0x3B8 JUMPI PUSH1 0x0 DUP1 REVERT JUMPDEST POP PUSH2 0x171 PUSH2 0x3C7 CALLDATASIZE PUSH1 0x4 PUSH2 0x1433 JUMP JUMPDEST PUSH2 0xE68 JUMP JUMPDEST PUSH2 0x3D4 PUSH2 0xF38 JUMP JUMPDEST DUP2 PUSH2 0x3DE DUP2 PUSH2 0xF99 JUMP JUMPDEST PUSH1 0x40 MLOAD PUSH4 0x17D85BBF PUSH1 0xE1 SHL DUP2 MSTORE PUSH1 0x4 DUP2 ADD DUP4 SWAP1 MSTORE PUSH1 0x1 PUSH1 0x1 PUSH1 0xA0 SHL SUB DUP5 AND SWAP1 PUSH4 0x2FB0B77E SWAP1 PUSH1 0x24 ADD PUSH1 0x0 PUSH1 0x40 MLOAD DUP1 DUP4 SUB DUP2 PUSH1 0x0 DUP8 DUP1 EXTCODESIZE ISZERO DUP1 ISZERO PUSH2 0x420 JUMPI PUSH1 0x0 DUP1 REVERT JUMPDEST POP GAS CALL ISZERO DUP1 ISZERO PUSH2 0x434 JUMPI RETURNDATASIZE PUSH1 0x0 DUP1 RETURNDATACOPY RETURNDATASIZE PUSH1 0x0 REVERT JUMPDEST POP POP PUSH1 0x40 MLOAD DUP5 DUP2 MSTORE PUSH1 0x0 SWAP3 POP PUSH1 0x1 PUSH1 0x1 PUSH1 0xA0 SHL SUB DUP7 AND SWAP2 POP PUSH32 0xBE457CE8B7BCAA491415DEF88F108B025525279936EE1DD9EC4DC7DEBFFCEE04 SWAP1 PUSH1 0x20 ADD JUMPDEST PUSH1 0x40 MLOAD DUP1 SWAP2 SUB SWAP1 LOG3 POP POP POP JUMP JUMPDEST PUSH1 0x60 PUSH1 0x5 DUP1 SLOAD DUP1 PUSH1 0x20 MUL PUSH1 0x20 ADD PUSH1 0x40 MLOAD SWAP1 DUP2 ADD PUSH1 0x40 MSTORE DUP1 SWAP3 SWAP2 SWAP1 DUP2 DUP2 MSTORE PUSH1 0x20 ADD DUP3 DUP1 SLOAD DUP1 ISZERO PUSH2 0x4D7 JUMPI PUSH1 0x20 MUL DUP3 ADD SWAP2 SWAP1 PUSH1 0x0 MSTORE PUSH1 0x20 PUSH1 0x0 KECCAK256 SWAP1 JUMPDEST DUP2 SLOAD PUSH1 0x1 PUSH1 0x1 PUSH1 0xA0 SHL SUB AND DUP2 MSTORE PUSH1 0x1 SWAP1 SWAP2 ADD SWAP1 PUSH1 0x20 ADD DUP1 DUP4 GT PUSH2 0x4B9 JUMPI JUMPDEST POP POP POP POP POP SWAP1 POP SWAP1 JUMP JUMPDEST PUSH1 0x0 PUSH2 0x4EB PUSH2 0xF38 JUMP JUMPDEST PUSH1 0x40 MLOAD PUSH4 0x13D1C771 PUSH1 0xE0 SHL DUP2 MSTORE PUSH1 0x1 PUSH1 0x1 PUSH1 0xA0 SHL SUB DUP5 DUP2 AND PUSH1 0x4 DUP4 ADD MSTORE PUSH32 0x0 AND SWAP1 PUSH4 0x13D1C771 SWAP1 PUSH1 0x24 ADD PUSH1 0x20 PUSH1 0x40 MLOAD DUP1 DUP4 SUB DUP2 PUSH1 0x0 DUP8 DUP1 EXTCODESIZE ISZERO DUP1 ISZERO PUSH2 0x54E JUMPI PUSH1 0x0 DUP1 REVERT JUMPDEST POP GAS CALL ISZERO DUP1 ISZERO PUSH2 0x562 JUMPI RETURNDATASIZE PUSH1 0x0 DUP1 RETURNDATACOPY RETURNDATASIZE PUSH1 0x0 REVERT JUMPDEST POP POP POP POP PUSH1 0x40 MLOAD RETURNDATASIZE PUSH1 0x1F NOT PUSH1 0x1F DUP3 ADD AND DUP3 ADD DUP1 PUSH1 0x40 MSTORE POP DUP2 ADD SWAP1 PUSH2 0x586 SWAP2 SWAP1 PUSH2 0x1474 JUMP JUMPDEST PUSH2 0x58F JUMPI PUSH1 0x0 DUP1 REVERT JUMPDEST PUSH1 0x0 DUP1 SLOAD PUSH1 0x40 MLOAD PUSH4 0x8D429743 PUSH1 0xE0 SHL DUP2 MSTORE ADDRESS PUSH1 0x4 DUP3 ADD MSTORE PUSH1 0x1 PUSH1 0x1 PUSH1 0xA0 SHL SUB SWAP2 DUP3 AND PUSH1 0x24 DUP3 ADD MSTORE PUSH1 0x44 DUP2 ADD DUP6 SWAP1 MSTORE SWAP1 DUP6 AND SWAP1 PUSH4 0x8D429743 SWAP1 PUSH1 0x64 ADD PUSH1 0x20 PUSH1 0x40 MLOAD DUP1 DUP4 SUB DUP2 PUSH1 0x0 DUP8 DUP1 EXTCODESIZE ISZERO DUP1 ISZERO PUSH2 0x5E4 JUMPI PUSH1 0x0 DUP1 REVERT JUMPDEST POP GAS CALL ISZERO DUP1 ISZERO PUSH2 0x5F8 JUMPI RETURNDATASIZE PUSH1 0x0 DUP1 RETURNDATACOPY RETURNDATASIZE PUSH1 0x0 REVERT JUMPDEST POP POP POP POP PUSH1 0x40 MLOAD RETURNDATASIZE PUSH1 0x1F NOT PUSH1 0x1F DUP3 ADD AND DUP3 ADD DUP1 PUSH1 0x40 MSTORE POP DUP2 ADD SWAP1 PUSH2 0x61C SWAP2 SWAP1 PUSH2 0x13B1 JUMP JUMPDEST SWAP1 POP PUSH2 0x62B DUP2 PUSH1 0x5 PUSH1 0x4 PUSH2 0x102A JUMP JUMPDEST PUSH1 0x40 MLOAD PUSH1 0x1 PUSH1 0x1 PUSH1 0xA0 SHL SUB DUP3 AND DUP2 MSTORE PUSH32 0xB6EF1215893BD60FFEB9E97981AA41B2819605F61F7848A06DB1F8C3AEFC961B SWAP1 PUSH1 0x20 ADD PUSH1 0x40 MLOAD DUP1 SWAP2 SUB SWAP1 LOG1 SWAP4 SWAP3 POP POP POP JUMP JUMPDEST PUSH2 0x676 PUSH2 0xF38 JUMP JUMPDEST DUP2 PUSH2 0x680 DUP2 PUSH2 0xF99 JUMP JUMPDEST PUSH1 0x40 MLOAD PUSH4 0x3FA1417 PUSH1 0xE0 SHL DUP2 MSTORE PUSH1 0x1 PUSH1 0x1 PUSH1 0xA0 SHL SUB DUP4 DUP2 AND PUSH1 0x4 DUP4 ADD MSTORE DUP5 AND SWAP1 PUSH4 0x3FA1417 SWAP1 PUSH1 0x24 ADD PUSH1 0x0 PUSH1 0x40 MLOAD DUP1 DUP4 SUB DUP2 PUSH1 0x0 DUP8 DUP1 EXTCODESIZE ISZERO DUP1 ISZERO PUSH2 0x6C3 JUMPI PUSH1 0x0 DUP1 REVERT JUMPDEST POP GAS CALL ISZERO DUP1 ISZERO PUSH2 0x6D7 JUMPI RETURNDATASIZE PUSH1 0x0 DUP1 RETURNDATACOPY RETURNDATASIZE PUSH1 0x0 REVERT JUMPDEST POP POP PUSH1 0x40 MLOAD PUSH1 0x1 PUSH1 0x1 PUSH1 0xA0 SHL SUB DUP6 DUP2 AND DUP3 MSTORE DUP7 AND SWAP3 POP PUSH32 0x204FF20E2CCEBC7AA7E2A38214AA8E974B36E1922B3588A7FF6DC21744BEF4B6 SWAP2 POP PUSH1 0x20 ADD PUSH1 0x40 MLOAD DUP1 SWAP2 SUB SWAP1 LOG2 POP POP POP JUMP JUMPDEST PUSH2 0x728 PUSH2 0xF38 JUMP JUMPDEST DUP1 PUSH2 0x732 DUP2 PUSH2 0xF99 JUMP JUMPDEST DUP2 PUSH1 0x1 PUSH1 0x1 PUSH1 0xA0 SHL SUB AND PUSH4 0x47AF9957 PUSH1 0x40 MLOAD DUP2 PUSH4 0xFFFFFFFF AND PUSH1 0xE0 SHL DUP2 MSTORE PUSH1 0x4 ADD PUSH1 0x0 PUSH1 0x40 MLOAD DUP1 DUP4 SUB DUP2 PUSH1 0x0 DUP8 DUP1 EXTCODESIZE ISZERO DUP1 ISZERO PUSH2 0x76D JUMPI PUSH1 0x0 DUP1 REVERT JUMPDEST POP GAS CALL ISZERO DUP1 ISZERO PUSH2 0x781 JUMPI RETURNDATASIZE PUSH1 0x0 DUP1 RETURNDATACOPY RETURNDATASIZE PUSH1 0x0 REVERT JUMPDEST POP POP PUSH1 0x40 MLOAD PUSH1 0x1 SWAP3 POP PUSH1 0x1 PUSH1 0x1 PUSH1 0xA0 SHL SUB DUP6 AND SWAP2 POP PUSH32 0xA0868FABAEEA3E340199D1F6FA323EC391FDB4FBDBEA37A7E7194FB16930D6C6 SWAP1 PUSH1 0x0 SWAP1 LOG3 POP POP JUMP JUMPDEST PUSH2 0x7C8 PUSH2 0xF38 JUMP JUMPDEST PUSH1 0x3 DUP2 SWAP1 SSTORE PUSH2 0x7D5 PUSH2 0x116A JUMP JUMPDEST PUSH1 0x40 MLOAD DUP2 DUP2 MSTORE PUSH32 0x782F38EA18A9E9E96E953BE34B91022668F3809452782A1AC80D0765FE597A35 SWAP1 PUSH1 0x20 ADD JUMPDEST PUSH1 0x40 MLOAD DUP1 SWAP2 SUB SWAP1 LOG1 POP JUMP JUMPDEST PUSH2 0x814 PUSH2 0xF38 JUMP JUMPDEST DUP1 PUSH2 0x81E DUP2 PUSH2 0xF99 JUMP JUMPDEST DUP2 PUSH1 0x1 PUSH1 0x1 PUSH1 0xA0 SHL SUB AND PUSH4 0x8936A91F PUSH1 0x40 MLOAD DUP2 PUSH4 0xFFFFFFFF AND PUSH1 0xE0 SHL DUP2 MSTORE PUSH1 0x4 ADD PUSH1 0x0 PUSH1 0x40 MLOAD DUP1 DUP4 SUB DUP2 PUSH1 0x0 DUP8 DUP1 EXTCODESIZE ISZERO DUP1 ISZERO PUSH2 0x859 JUMPI PUSH1 0x0 DUP1 REVERT JUMPDEST POP GAS CALL ISZERO DUP1 ISZERO PUSH2 0x86D JUMPI RETURNDATASIZE PUSH1 0x0 DUP1 RETURNDATACOPY RETURNDATASIZE PUSH1 0x0 REVERT JUMPDEST POP POP PUSH1 0x40 MLOAD PUSH1 0x0 SWAP3 POP PUSH1 0x1 PUSH1 0x1 PUSH1 0xA0 SHL SUB DUP6 AND SWAP2 POP PUSH32 0xA0868FABAEEA3E340199D1F6FA323EC391FDB4FBDBEA37A7E7194FB16930D6C6 SWAP1 DUP4 SWAP1 LOG3 POP POP JUMP JUMPDEST PUSH2 0x8B3 PUSH2 0xF38 JUMP JUMPDEST PUSH2 0x8BC DUP3 PUSH2 0x11B3 JUMP JUMPDEST PUSH2 0x8C5 DUP4 PUSH2 0x1209 JUMP JUMPDEST DUP2 PUSH2 0x8D0 DUP2 DUP4 PUSH2 0x12C7 JUMP JUMPDEST PUSH1 0x40 MLOAD PUSH4 0xA9059CBB PUSH1 0xE0 SHL DUP2 MSTORE PUSH1 0x1 PUSH1 0x1 PUSH1 0xA0 SHL SUB DUP6 DUP2 AND PUSH1 0x4 DUP4 ADD MSTORE PUSH1 0x24 DUP3 ADD DUP5 SWAP1 MSTORE PUSH1 0x0 SWAP2 SWAP1 DUP4 AND SWAP1 PUSH4 0xA9059CBB SWAP1 PUSH1 0x44 ADD PUSH1 0x20 PUSH1 0x40 MLOAD DUP1 DUP4 SUB DUP2 PUSH1 0x0 DUP8 DUP1 EXTCODESIZE ISZERO DUP1 ISZERO PUSH2 0x91E JUMPI PUSH1 0x0 DUP1 REVERT JUMPDEST POP GAS CALL ISZERO DUP1 ISZERO PUSH2 0x932 JUMPI RETURNDATASIZE PUSH1 0x0 DUP1 RETURNDATACOPY RETURNDATASIZE PUSH1 0x0 REVERT JUMPDEST POP POP POP POP PUSH1 0x40 MLOAD RETURNDATASIZE PUSH1 0x1F NOT PUSH1 0x1F DUP3 ADD AND DUP3 ADD DUP1 PUSH1 0x40 MSTORE POP DUP2 ADD SWAP1 PUSH2 0x956 SWAP2 SWAP1 PUSH2 0x1474 JUMP JUMPDEST SWAP1 POP DUP1 PUSH1 0x40 MLOAD DUP1 PUSH1 0x40 ADD PUSH1 0x40 MSTORE DUP1 PUSH1 0x12 DUP2 MSTORE PUSH1 0x20 ADD PUSH18 0x151C985B9CD858DD1A5BDB8811985A5B1959 PUSH1 0x72 SHL DUP2 MSTORE POP SWAP1 PUSH2 0x9AB JUMPI PUSH1 0x40 MLOAD PUSH3 0x461BCD PUSH1 0xE5 SHL DUP2 MSTORE PUSH1 0x4 ADD PUSH2 0x9A2 SWAP2 SWAP1 PUSH2 0x1515 JUMP JUMPDEST PUSH1 0x40 MLOAD DUP1 SWAP2 SUB SWAP1 REVERT JUMPDEST POP DUP4 PUSH1 0x1 PUSH1 0x1 PUSH1 0xA0 SHL SUB AND DUP6 PUSH1 0x1 PUSH1 0x1 PUSH1 0xA0 SHL SUB AND PUSH32 0x8F7184268EABC3E5F95D42873237E44E84D2CB27BAA7358AC4FE098D4DFBA2ED DUP6 PUSH1 0x40 MLOAD PUSH2 0x9F1 SWAP2 DUP2 MSTORE PUSH1 0x20 ADD SWAP1 JUMP JUMPDEST PUSH1 0x40 MLOAD DUP1 SWAP2 SUB SWAP1 LOG3 POP POP POP POP POP JUMP JUMPDEST PUSH1 0x0 PUSH2 0xA0A PUSH2 0xF38 JUMP JUMPDEST PUSH1 0x40 MLOAD PUSH4 0x13D1C771 PUSH1 0xE0 SHL DUP2 MSTORE PUSH1 0x1 PUSH1 0x1 PUSH1 0xA0 SHL SUB PUSH32 0x0 DUP2 AND PUSH1 0x4 DUP4 ADD MSTORE PUSH32 0x0 AND SWAP1 PUSH4 0x13D1C771 SWAP1 PUSH1 0x24 ADD PUSH1 0x20 PUSH1 0x40 MLOAD DUP1 DUP4 SUB DUP2 PUSH1 0x0 DUP8 DUP1 EXTCODESIZE ISZERO DUP1 ISZERO PUSH2 0xA8D JUMPI PUSH1 0x0 DUP1 REVERT JUMPDEST POP GAS CALL ISZERO DUP1 ISZERO PUSH2 0xAA1 JUMPI RETURNDATASIZE PUSH1 0x0 DUP1 RETURNDATACOPY RETURNDATASIZE PUSH1 0x0 REVERT JUMPDEST POP POP POP POP PUSH1 0x40 MLOAD RETURNDATASIZE PUSH1 0x1F NOT PUSH1 0x1F DUP3 ADD AND DUP3 ADD DUP1 PUSH1 0x40 MSTORE POP DUP2 ADD SWAP1 PUSH2 0xAC5 SWAP2 SWAP1 PUSH2 0x1474 JUMP JUMPDEST PUSH2 0xACE JUMPI PUSH1 0x0 DUP1 REVERT JUMPDEST PUSH1 0x0 DUP1 SLOAD PUSH1 0x40 MLOAD PUSH4 0x19378787 PUSH1 0xE3 SHL DUP2 MSTORE ADDRESS PUSH1 0x4 DUP3 ADD MSTORE PUSH1 0x1 PUSH1 0x1 PUSH1 0xA0 SHL SUB SWAP2 DUP3 AND PUSH1 0x24 DUP3 ADD MSTORE PUSH32 0x0 SWAP1 SWAP2 AND SWAP1 PUSH4 0xC9BC3C38 SWAP1 PUSH1 0x44 ADD PUSH1 0x20 PUSH1 0x40 MLOAD DUP1 DUP4 SUB DUP2 PUSH1 0x0 DUP8 DUP1 EXTCODESIZE ISZERO DUP1 ISZERO PUSH2 0xB3D JUMPI PUSH1 0x0 DUP1 REVERT JUMPDEST POP GAS CALL ISZERO DUP1 ISZERO PUSH2 0xB51 JUMPI RETURNDATASIZE PUSH1 0x0 DUP1 RETURNDATACOPY RETURNDATASIZE PUSH1 0x0 REVERT JUMPDEST POP POP POP POP PUSH1 0x40 MLOAD RETURNDATASIZE PUSH1 0x1F NOT PUSH1 0x1F DUP3 ADD AND DUP3 ADD DUP1 PUSH1 0x40 MSTORE POP DUP2 ADD SWAP1 PUSH2 0xB75 SWAP2 SWAP1 PUSH2 0x13B1 JUMP JUMPDEST SWAP1 POP PUSH2 0xB84 DUP2 PUSH1 0x5 PUSH1 0x4 PUSH2 0x102A JUMP JUMPDEST PUSH1 0x40 MLOAD PUSH1 0x1 PUSH1 0x1 PUSH1 0xA0 SHL SUB DUP3 AND DUP2 MSTORE PUSH32 0xB6EF1215893BD60FFEB9E97981AA41B2819605F61F7848A06DB1F8C3AEFC961B SWAP1 PUSH1 0x20 ADD PUSH1 0x40 MLOAD DUP1 SWAP2 SUB SWAP1 LOG1 SWAP1 POP SWAP1 JUMP JUMPDEST PUSH1 0x1 SLOAD PUSH1 0x40 DUP1 MLOAD DUP1 DUP3 ADD SWAP1 SWAP2 MSTORE PUSH1 0x13 DUP2 MSTORE PUSH19 0x155CD95C881B9BDD08105D5D1A1BDC9A5E9959 PUSH1 0x6A SHL PUSH1 0x20 DUP3 ADD MSTORE SWAP1 PUSH1 0x1 PUSH1 0x1 PUSH1 0xA0 SHL SUB AND CALLER EQ PUSH2 0xC1B JUMPI PUSH1 0x40 MLOAD PUSH3 0x461BCD PUSH1 0xE5 SHL DUP2 MSTORE PUSH1 0x4 ADD PUSH2 0x9A2 SWAP2 SWAP1 PUSH2 0x1515 JUMP JUMPDEST POP PUSH1 0x2 SLOAD TIMESTAMP LT ISZERO PUSH2 0xC6E JUMPI PUSH1 0x40 MLOAD PUSH3 0x461BCD PUSH1 0xE5 SHL DUP2 MSTORE PUSH1 0x20 PUSH1 0x4 DUP3 ADD MSTORE PUSH1 0x1E PUSH1 0x24 DUP3 ADD MSTORE PUSH32 0x4F776E6572206973206E6F74206465636C6172656420696E6163746976650000 PUSH1 0x44 DUP3 ADD MSTORE PUSH1 0x64 ADD PUSH2 0x9A2 JUMP JUMPDEST PUSH1 0x0 DUP1 SLOAD PUSH1 0x1 SLOAD PUSH1 0x1 PUSH1 0x1 PUSH1 0xA0 SHL SUB SWAP1 DUP2 AND PUSH1 0x1 PUSH1 0x1 PUSH1 0xA0 SHL SUB NOT DUP4 AND DUP2 OR DUP5 SSTORE PUSH1 0x40 MLOAD SWAP2 SWAP1 SWAP3 AND SWAP3 DUP4 SWAP3 SWAP2 PUSH32 0xD18B5FD22306E373229B9439188228EDCA81207D1667F604DAF6CEF8AA3EE67 SWAP2 SWAP1 LOG3 PUSH2 0xCC6 PUSH2 0x116A JUMP JUMPDEST POP JUMP JUMPDEST PUSH2 0xCD1 PUSH2 0xF38 JUMP JUMPDEST PUSH2 0xCDA DUP2 PUSH2 0x11B3 JUMP JUMPDEST PUSH1 0x1 DUP1 SLOAD PUSH1 0x1 PUSH1 0x1 PUSH1 0xA0 SHL SUB NOT AND PUSH1 0x1 PUSH1 0x1 PUSH1 0xA0 SHL SUB DUP4 AND SWAP1 DUP2 OR SWAP1 SWAP2 SSTORE PUSH1 0x40 MLOAD SWAP1 DUP2 MSTORE PUSH32 0xADACB637D17DE7895E9C7FC75F36437FD5C36D5E6E9CC83B95380F10A052F4A SWAP1 PUSH1 0x20 ADD PUSH2 0x801 JUMP JUMPDEST PUSH2 0xD30 PUSH2 0xF38 JUMP JUMPDEST PUSH2 0xD39 DUP3 PUSH2 0x1209 JUMP JUMPDEST DUP1 SELFBALANCE LT ISZERO PUSH1 0x40 MLOAD DUP1 PUSH1 0x40 ADD PUSH1 0x40 MSTORE DUP1 PUSH1 0x14 DUP2 MSTORE PUSH1 0x20 ADD PUSH20 0x496E73756666696369656E742042616C616E6365 PUSH1 0x60 SHL DUP2 MSTORE POP SWAP1 PUSH2 0xD88 JUMPI PUSH1 0x40 MLOAD PUSH3 0x461BCD PUSH1 0xE5 SHL DUP2 MSTORE PUSH1 0x4 ADD PUSH2 0x9A2 SWAP2 SWAP1 PUSH2 0x1515 JUMP JUMPDEST POP PUSH1 0x0 DUP3 PUSH1 0x1 PUSH1 0x1 PUSH1 0xA0 SHL SUB AND DUP3 PUSH1 0x40 MLOAD PUSH1 0x0 PUSH1 0x40 MLOAD DUP1 DUP4 SUB DUP2 DUP6 DUP8 GAS CALL SWAP3 POP POP POP RETURNDATASIZE DUP1 PUSH1 0x0 DUP2 EQ PUSH2 0xDD6 JUMPI PUSH1 0x40 MLOAD SWAP2 POP PUSH1 0x1F NOT PUSH1 0x3F RETURNDATASIZE ADD AND DUP3 ADD PUSH1 0x40 MSTORE RETURNDATASIZE DUP3 MSTORE RETURNDATASIZE PUSH1 0x0 PUSH1 0x20 DUP5 ADD RETURNDATACOPY PUSH2 0xDDB JUMP JUMPDEST PUSH1 0x60 SWAP2 POP JUMPDEST POP POP SWAP1 POP DUP1 PUSH1 0x40 MLOAD DUP1 PUSH1 0x40 ADD PUSH1 0x40 MSTORE DUP1 PUSH1 0x12 DUP2 MSTORE PUSH1 0x20 ADD PUSH18 0x151C985B9CD858DD1A5BDB8811985A5B1959 PUSH1 0x72 SHL DUP2 MSTORE POP SWAP1 PUSH2 0xE29 JUMPI PUSH1 0x40 MLOAD PUSH3 0x461BCD PUSH1 0xE5 SHL DUP2 MSTORE PUSH1 0x4 ADD PUSH2 0x9A2 SWAP2 SWAP1 PUSH2 0x1515 JUMP JUMPDEST POP PUSH1 0x40 MLOAD DUP3 DUP2 MSTORE PUSH1 0x0 SWAP1 PUSH1 0x1 PUSH1 0x1 PUSH1 0xA0 SHL SUB DUP6 AND SWAP1 PUSH32 0x8F7184268EABC3E5F95D42873237E44E84D2CB27BAA7358AC4FE098D4DFBA2ED SWAP1 PUSH1 0x20 ADD PUSH2 0x472 JUMP JUMPDEST PUSH2 0xE70 PUSH2 0xF38 JUMP JUMPDEST DUP3 PUSH2 0xE7A DUP2 PUSH2 0xF99 JUMP JUMPDEST PUSH2 0xE83 DUP4 PUSH2 0x11B3 JUMP JUMPDEST PUSH1 0x40 MLOAD PUSH4 0xD0F108EB PUSH1 0xE0 SHL DUP2 MSTORE PUSH1 0x1 PUSH1 0x1 PUSH1 0xA0 SHL SUB DUP5 DUP2 AND PUSH1 0x4 DUP4 ADD MSTORE PUSH1 0x24 DUP3 ADD DUP5 SWAP1 MSTORE DUP6 AND SWAP1 PUSH4 0xD0F108EB SWAP1 PUSH1 0x44 ADD PUSH1 0x0 PUSH1 0x40 MLOAD DUP1 DUP4 SUB DUP2 PUSH1 0x0 DUP8 DUP1 EXTCODESIZE ISZERO DUP1 ISZERO PUSH2 0xECD JUMPI PUSH1 0x0 DUP1 REVERT JUMPDEST POP GAS CALL ISZERO DUP1 ISZERO PUSH2 0xEE1 JUMPI RETURNDATASIZE PUSH1 0x0 DUP1 RETURNDATACOPY RETURNDATASIZE PUSH1 0x0 REVERT JUMPDEST POP POP POP POP DUP3 PUSH1 0x1 PUSH1 0x1 PUSH1 0xA0 SHL SUB AND DUP5 PUSH1 0x1 PUSH1 0x1 PUSH1 0xA0 SHL SUB AND PUSH32 0xBE457CE8B7BCAA491415DEF88F108B025525279936EE1DD9EC4DC7DEBFFCEE04 DUP5 PUSH1 0x40 MLOAD PUSH2 0xF2A SWAP2 DUP2 MSTORE PUSH1 0x20 ADD SWAP1 JUMP JUMPDEST PUSH1 0x40 MLOAD DUP1 SWAP2 SUB SWAP1 LOG3 POP POP POP POP JUMP JUMPDEST PUSH1 0x0 SLOAD PUSH1 0x40 DUP1 MLOAD DUP1 DUP3 ADD SWAP1 SWAP2 MSTORE PUSH1 0x13 DUP2 MSTORE PUSH19 0x155CD95C881B9BDD08105D5D1A1BDC9A5E9959 PUSH1 0x6A SHL PUSH1 0x20 DUP3 ADD MSTORE SWAP1 PUSH1 0x1 PUSH1 0x1 PUSH1 0xA0 SHL SUB AND CALLER EQ PUSH2 0xF8E JUMPI PUSH1 0x40 MLOAD PUSH3 0x461BCD PUSH1 0xE5 SHL DUP2 MSTORE PUSH1 0x4 ADD PUSH2 0x9A2 SWAP2 SWAP1 PUSH2 0x1515 JUMP JUMPDEST POP PUSH2 0xF97 PUSH2 0x116A JUMP JUMPDEST JUMP JUMPDEST PUSH1 0x1 PUSH1 0x1 PUSH1 0xA0 SHL SUB DUP2 AND PUSH1 0x0 SWAP1 DUP2 MSTORE PUSH1 0x4 PUSH1 0x20 MSTORE PUSH1 0x40 DUP2 KECCAK256 SLOAD PUSH1 0x5 DUP1 SLOAD SWAP1 SWAP2 SWAP1 DUP2 LT PUSH2 0xFC7 JUMPI PUSH2 0xFC7 PUSH2 0x15B7 JUMP JUMPDEST PUSH1 0x0 SWAP2 DUP3 MSTORE PUSH1 0x20 SWAP1 SWAP2 KECCAK256 ADD SLOAD PUSH1 0x1 PUSH1 0x1 PUSH1 0xA0 SHL SUB AND EQ ISZERO PUSH2 0xCC6 JUMPI PUSH1 0x40 MLOAD PUSH3 0x461BCD PUSH1 0xE5 SHL DUP2 MSTORE PUSH1 0x20 PUSH1 0x4 DUP3 ADD MSTORE PUSH1 0x19 PUSH1 0x24 DUP3 ADD MSTORE PUSH32 0x5365676120556E6B6F776E20746F2074686973205661756C7400000000000000 PUSH1 0x44 DUP3 ADD MSTORE PUSH1 0x64 ADD PUSH2 0x9A2 JUMP JUMPDEST PUSH1 0x1 PUSH1 0x1 PUSH1 0xA0 SHL SUB DUP4 AND PUSH1 0x0 SWAP1 DUP2 MSTORE PUSH1 0x20 DUP3 SWAP1 MSTORE PUSH1 0x40 SWAP1 KECCAK256 SLOAD ISZERO PUSH2 0x1128 JUMPI PUSH1 0x1 PUSH1 0x1 PUSH1 0xA0 SHL SUB DUP4 AND PUSH1 0x0 SWAP1 DUP2 MSTORE PUSH1 0x20 DUP3 SWAP1 MSTORE PUSH1 0x40 DUP2 KECCAK256 SLOAD DUP4 SLOAD DUP5 SWAP2 SWAP1 DUP2 LT PUSH2 0x1074 JUMPI PUSH2 0x1074 PUSH2 0x15B7 JUMP JUMPDEST PUSH1 0x0 SWAP2 DUP3 MSTORE PUSH1 0x20 SWAP1 SWAP2 KECCAK256 ADD SLOAD PUSH1 0x1 PUSH1 0x1 PUSH1 0xA0 SHL SUB AND EQ PUSH2 0x10C8 JUMPI PUSH1 0x40 MLOAD PUSH3 0x461BCD PUSH1 0xE5 SHL DUP2 MSTORE PUSH1 0x20 PUSH1 0x4 DUP3 ADD MSTORE PUSH1 0xF PUSH1 0x24 DUP3 ADD MSTORE PUSH15 0x105B1C9958591E48115B98589B1959 PUSH1 0x8A SHL PUSH1 0x44 DUP3 ADD MSTORE PUSH1 0x64 ADD PUSH2 0x9A2 JUMP JUMPDEST PUSH1 0x1 PUSH1 0x1 PUSH1 0xA0 SHL SUB DUP4 AND PUSH1 0x0 SWAP1 DUP2 MSTORE PUSH1 0x20 DUP3 SWAP1 MSTORE PUSH1 0x40 SWAP1 KECCAK256 SLOAD DUP3 SLOAD DUP5 SWAP2 DUP5 SWAP2 DUP2 LT PUSH2 0x10F5 JUMPI PUSH2 0x10F5 PUSH2 0x15B7 JUMP JUMPDEST SWAP1 PUSH1 0x0 MSTORE PUSH1 0x20 PUSH1 0x0 KECCAK256 ADD PUSH1 0x0 PUSH2 0x100 EXP DUP2 SLOAD DUP2 PUSH1 0x1 PUSH1 0x1 PUSH1 0xA0 SHL SUB MUL NOT AND SWAP1 DUP4 PUSH1 0x1 PUSH1 0x1 PUSH1 0xA0 SHL SUB AND MUL OR SWAP1 SSTORE POP POP POP POP JUMP JUMPDEST DUP2 SLOAD PUSH1 0x1 PUSH1 0x1 PUSH1 0xA0 SHL SUB DUP5 AND PUSH1 0x0 DUP2 DUP2 MSTORE PUSH1 0x20 DUP5 DUP2 MSTORE PUSH1 0x40 DUP3 KECCAK256 DUP5 SWAP1 SSTORE PUSH1 0x1 DUP5 ADD DUP7 SSTORE DUP6 DUP3 MSTORE SWAP1 KECCAK256 SWAP1 SWAP2 ADD DUP1 SLOAD PUSH1 0x1 PUSH1 0x1 PUSH1 0xA0 SHL SUB NOT AND SWAP1 SWAP2 OR SWAP1 SSTORE JUMPDEST POP POP POP JUMP JUMPDEST PUSH3 0x15180 PUSH1 0x3 SLOAD PUSH2 0x117B SWAP2 SWAP1 PUSH2 0x1582 JUMP JUMPDEST PUSH2 0x1185 SWAP1 TIMESTAMP PUSH2 0x156A JUMP JUMPDEST PUSH1 0x2 SSTORE PUSH1 0x40 MLOAD PUSH32 0x7AA982A4520D96ED188D1997CB8420198DBFD349076824ED797A3FD39A7728A1 SWAP1 PUSH1 0x0 SWAP1 LOG1 JUMP JUMPDEST PUSH1 0x1 PUSH1 0x1 PUSH1 0xA0 SHL SUB DUP2 AND PUSH2 0xCC6 JUMPI PUSH1 0x40 MLOAD PUSH3 0x461BCD PUSH1 0xE5 SHL DUP2 MSTORE PUSH1 0x20 PUSH1 0x4 DUP3 ADD MSTORE PUSH1 0x18 PUSH1 0x24 DUP3 ADD MSTORE PUSH32 0x5A65726F2041646472657373204E6F7420416C6C6F7765640000000000000000 PUSH1 0x44 DUP3 ADD MSTORE PUSH1 0x64 ADD PUSH2 0x9A2 JUMP JUMPDEST PUSH2 0x1212 DUP2 PUSH2 0x11B3 JUMP JUMPDEST PUSH1 0x0 SLOAD PUSH1 0x1 PUSH1 0x1 PUSH1 0xA0 SHL SUB DUP3 DUP2 AND SWAP2 AND EQ DUP1 PUSH2 0x126F JUMPI POP PUSH1 0x1 PUSH1 0x1 PUSH1 0xA0 SHL SUB DUP2 AND PUSH1 0x0 SWAP1 DUP2 MSTORE PUSH1 0x4 PUSH1 0x20 MSTORE PUSH1 0x40 DUP2 KECCAK256 SLOAD PUSH1 0x5 DUP1 SLOAD SWAP1 SWAP2 SWAP1 DUP2 LT PUSH2 0x1257 JUMPI PUSH2 0x1257 PUSH2 0x15B7 JUMP JUMPDEST PUSH1 0x0 SWAP2 DUP3 MSTORE PUSH1 0x20 SWAP1 SWAP2 KECCAK256 ADD SLOAD PUSH1 0x1 PUSH1 0x1 PUSH1 0xA0 SHL SUB AND EQ ISZERO JUMPDEST PUSH1 0x40 MLOAD DUP1 PUSH1 0x40 ADD PUSH1 0x40 MSTORE DUP1 PUSH1 0x1D DUP2 MSTORE PUSH1 0x20 ADD PUSH32 0x5265636569766572206973206E6F74204F776E6572206F722053454741000000 DUP2 MSTORE POP SWAP1 PUSH2 0x12C3 JUMPI PUSH1 0x40 MLOAD PUSH3 0x461BCD PUSH1 0xE5 SHL DUP2 MSTORE PUSH1 0x4 ADD PUSH2 0x9A2 SWAP2 SWAP1 PUSH2 0x1515 JUMP JUMPDEST POP POP JUMP JUMPDEST PUSH1 0x40 MLOAD PUSH4 0x70A08231 PUSH1 0xE0 SHL DUP2 MSTORE ADDRESS PUSH1 0x4 DUP3 ADD MSTORE DUP2 SWAP1 PUSH1 0x1 PUSH1 0x1 PUSH1 0xA0 SHL SUB DUP5 AND SWAP1 PUSH4 0x70A08231 SWAP1 PUSH1 0x24 ADD PUSH1 0x20 PUSH1 0x40 MLOAD DUP1 DUP4 SUB DUP2 DUP7 DUP1 EXTCODESIZE ISZERO DUP1 ISZERO PUSH2 0x1308 JUMPI PUSH1 0x0 DUP1 REVERT JUMPDEST POP GAS STATICCALL ISZERO DUP1 ISZERO PUSH2 0x131C JUMPI RETURNDATASIZE PUSH1 0x0 DUP1 RETURNDATACOPY RETURNDATASIZE PUSH1 0x0 REVERT JUMPDEST POP POP POP POP PUSH1 0x40 MLOAD RETURNDATASIZE PUSH1 0x1F NOT PUSH1 0x1F DUP3 ADD AND DUP3 ADD DUP1 PUSH1 0x40 MSTORE POP DUP2 ADD SWAP1 PUSH2 0x1340 SWAP2 SWAP1 PUSH2 0x14AF JUMP JUMPDEST LT ISZERO PUSH1 0x40 MLOAD DUP1 PUSH1 0x40 ADD PUSH1 0x40 MSTORE DUP1 PUSH1 0x14 DUP2 MSTORE PUSH1 0x20 ADD PUSH20 0x496E73756666696369656E742042616C616E6365 PUSH1 0x60 SHL DUP2 MSTORE POP SWAP1 PUSH2 0x1165 JUMPI PUSH1 0x40 MLOAD PUSH3 0x461BCD PUSH1 0xE5 SHL DUP2 MSTORE PUSH1 0x4 ADD PUSH2 0x9A2 SWAP2 SWAP1 PUSH2 0x1515 JUMP JUMPDEST PUSH1 0x0 PUSH1 0x20 DUP3 DUP5 SUB SLT ISZERO PUSH2 0x139F JUMPI PUSH1 0x0 DUP1 REVERT JUMPDEST DUP2 CALLDATALOAD PUSH2 0x13AA DUP2 PUSH2 0x15CD JUMP JUMPDEST SWAP4 SWAP3 POP POP POP JUMP JUMPDEST PUSH1 0x0 PUSH1 0x20 DUP3 DUP5 SUB SLT ISZERO PUSH2 0x13C3 JUMPI PUSH1 0x0 DUP1 REVERT JUMPDEST DUP2 MLOAD PUSH2 0x13AA DUP2 PUSH2 0x15CD JUMP JUMPDEST PUSH1 0x0 DUP1 PUSH1 0x40 DUP4 DUP6 SUB SLT ISZERO PUSH2 0x13E1 JUMPI PUSH1 0x0 DUP1 REVERT JUMPDEST DUP3 CALLDATALOAD PUSH2 0x13EC DUP2 PUSH2 0x15CD JUMP JUMPDEST SWAP5 PUSH1 0x20 SWAP4 SWAP1 SWAP4 ADD CALLDATALOAD SWAP4 POP POP POP JUMP JUMPDEST PUSH1 0x0 DUP1 PUSH1 0x40 DUP4 DUP6 SUB SLT ISZERO PUSH2 0x140D JUMPI PUSH1 0x0 DUP1 REVERT JUMPDEST DUP3 CALLDATALOAD PUSH2 0x1418 DUP2 PUSH2 0x15CD JUMP JUMPDEST SWAP2 POP PUSH1 0x20 DUP4 ADD CALLDATALOAD PUSH2 0x1428 DUP2 PUSH2 0x15CD JUMP JUMPDEST DUP1 SWAP2 POP POP SWAP3 POP SWAP3 SWAP1 POP JUMP JUMPDEST PUSH1 0x0 DUP1 PUSH1 0x0 PUSH1 0x60 DUP5 DUP7 SUB SLT ISZERO PUSH2 0x1448 JUMPI PUSH1 0x0 DUP1 REVERT JUMPDEST DUP4 CALLDATALOAD PUSH2 0x1453 DUP2 PUSH2 0x15CD JUMP JUMPDEST SWAP3 POP PUSH1 0x20 DUP5 ADD CALLDATALOAD PUSH2 0x1463 DUP2 PUSH2 0x15CD JUMP JUMPDEST SWAP3 SWAP6 SWAP3 SWAP5 POP POP POP PUSH1 0x40 SWAP2 SWAP1 SWAP2 ADD CALLDATALOAD SWAP1 JUMP JUMPDEST PUSH1 0x0 PUSH1 0x20 DUP3 DUP5 SUB SLT ISZERO PUSH2 0x1486 JUMPI PUSH1 0x0 DUP1 REVERT JUMPDEST DUP2 MLOAD DUP1 ISZERO ISZERO DUP2 EQ PUSH2 0x13AA JUMPI PUSH1 0x0 DUP1 REVERT JUMPDEST PUSH1 0x0 PUSH1 0x20 DUP3 DUP5 SUB SLT ISZERO PUSH2 0x14A8 JUMPI PUSH1 0x0 DUP1 REVERT JUMPDEST POP CALLDATALOAD SWAP2 SWAP1 POP JUMP JUMPDEST PUSH1 0x0 PUSH1 0x20 DUP3 DUP5 SUB SLT ISZERO PUSH2 0x14C1 JUMPI PUSH1 0x0 DUP1 REVERT JUMPDEST POP MLOAD SWAP2 SWAP1 POP JUMP JUMPDEST PUSH1 0x20 DUP1 DUP3 MSTORE DUP3 MLOAD DUP3 DUP3 ADD DUP2 SWAP1 MSTORE PUSH1 0x0 SWAP2 SWAP1 DUP5 DUP3 ADD SWAP1 PUSH1 0x40 DUP6 ADD SWAP1 DUP5 JUMPDEST DUP2 DUP2 LT ISZERO PUSH2 0x1509 JUMPI DUP4 MLOAD PUSH1 0x1 PUSH1 0x1 PUSH1 0xA0 SHL SUB AND DUP4 MSTORE SWAP3 DUP5 ADD SWAP3 SWAP2 DUP5 ADD SWAP2 PUSH1 0x1 ADD PUSH2 0x14E4 JUMP JUMPDEST POP SWAP1 SWAP7 SWAP6 POP POP POP POP POP POP JUMP JUMPDEST PUSH1 0x0 PUSH1 0x20 DUP1 DUP4 MSTORE DUP4 MLOAD DUP1 DUP3 DUP6 ADD MSTORE PUSH1 0x0 JUMPDEST DUP2 DUP2 LT ISZERO PUSH2 0x1542 JUMPI DUP6 DUP2 ADD DUP4 ADD MLOAD DUP6 DUP3 ADD PUSH1 0x40 ADD MSTORE DUP3 ADD PUSH2 0x1526 JUMP JUMPDEST DUP2 DUP2 GT ISZERO PUSH2 0x1554 JUMPI PUSH1 0x0 PUSH1 0x40 DUP4 DUP8 ADD ADD MSTORE JUMPDEST POP PUSH1 0x1F ADD PUSH1 0x1F NOT AND SWAP3 SWAP1 SWAP3 ADD PUSH1 0x40 ADD SWAP4 SWAP3 POP POP POP JUMP JUMPDEST PUSH1 0x0 DUP3 NOT DUP3 GT ISZERO PUSH2 0x157D JUMPI PUSH2 0x157D PUSH2 0x15A1 JUMP JUMPDEST POP ADD SWAP1 JUMP JUMPDEST PUSH1 0x0 DUP2 PUSH1 0x0 NOT DIV DUP4 GT DUP3 ISZERO ISZERO AND ISZERO PUSH2 0x159C JUMPI PUSH2 0x159C PUSH2 0x15A1 JUMP JUMPDEST POP MUL SWAP1 JUMP JUMPDEST PUSH4 0x4E487B71 PUSH1 0xE0 SHL PUSH1 0x0 MSTORE PUSH1 0x11 PUSH1 0x4 MSTORE PUSH1 0x24 PUSH1 0x0 REVERT JUMPDEST PUSH4 0x4E487B71 PUSH1 0xE0 SHL PUSH1 0x0 MSTORE PUSH1 0x32 PUSH1 0x4 MSTORE PUSH1 0x24 PUSH1 0x0 REVERT JUMPDEST PUSH1 0x1 PUSH1 0x1 PUSH1 0xA0 SHL SUB DUP2 AND DUP2 EQ PUSH2 0xCC6 JUMPI PUSH1 0x0 DUP1 REVERT INVALID LOG2 PUSH5 0x6970667358 0x22 SLT KECCAK256 0xE8 SWAP10 SLOAD 0xE3 DUP7 0xE7 0xCF 0xD8 PUSH7 0x1F7492A88815C2 PUSH12 0x6C0E036DA4DC4A073D0596DE CODECOPY 0xDE 0xAE PUSH5 0x736F6C6343 STOP ADDMOD MOD STOP CALLER ","sha1":"eb8e58a29b1bd4fb39946d5841f674cc6b28e4bd","source":"//SPDX-License-Identifier: BUSL-1.1\npragma solidity ^0.8.0;\n\nimport \"../interfaces/ISegaP.sol\";\nimport \"../interfaces/ISegaFactP.sol\";\nimport \"@openzeppelin/contracts/token/ERC20/IERC20.sol\";\n\ncontract Vault {\n    \n    address public immutable segaFactory;\n    address public immutable RCU;\n\n    uint256 constant oneDay = 24*60*60 ; \n    //this is 1 for testing only, should be 24*60*60\n\n    string constant noAccess = \"User not Authorized\"; \n    string constant txnFail = \"Transaction Failed\";\n    string constant lowBalance = \"Insufficient Balance\";\n    string constant badReceiver = \"Receiver is not Owner or SEGA\";\n\n    address payable private owner;\n    address private backupAccount;\n    uint256 private releaseTime;\n    uint256 private unlockDays;\n\n    mapping (address => uint256) private SegaMap;\n    address[] private SegaList;\n\n    event Received(address, uint);\n    event OwnerIsActive();\n\n    event ChangedBackup(address _backup);\n    event ChangedInactiveTime(uint);\n    event OwnershipTransfered(address indexed _new, address indexed _old);\n\n    event NewSegaCreated(address newSega);\n    event SentOutAssets(address indexed _to, address indexed _token, uint256 _amount);\n\n    event SegaFrozen(address indexed _sega,uint8 indexed onOff);\n    event SegaRecall(address indexed _sega, address indexed _token, uint256 _amount);\n    event SegaTraderChanged(address indexed _sega, address newTrader);\n\n    /*********************************************\n    Modifiers\n    *********************************************/\n\n    modifier isOwner() {\n        _isOwner();\n        _;\n    }\n\n    modifier isSega(address _sega) {\n        _isSega(_sega);\n        _;\n    }\n\n    modifier viewByORB() {\n        _viewByORB();\n        _;\n    }\n\n    function _isOwner() internal {\n        require( msg.sender == owner, noAccess);\n        ownerActive();\n    }\n    \n    function _isSega(address _sega) internal view {\n        require( SegaList[ SegaMap[_sega] ] != address(0), \n                \"Sega Unkown to this Vault\");\n    }\n\n    function ownerActive() internal {\n        releaseTime = block.timestamp + unlockDays * oneDay;\n        emit OwnerIsActive();\n    }\n\n    function _viewByORB() internal view {\n        require(\n            msg.sender == owner ||\n            msg.sender == backupAccount,\n            noAccess\n        );\n    }\n\n    function _notZero(address _address) internal pure {\n        require (_address != address(0), \"Zero Address Not Allowed\");\n    }\n\n    function _enoughBalance(IERC20 _token, uint256 _amount) internal view{\n        require(_token.balanceOf(address(this)) >= _amount, lowBalance);\n    }\n\n    function _checkReceiver(address receiver) internal view {\n        _notZero(receiver);\n        require(receiver == owner ||\n                SegaList[ SegaMap[receiver] ] != address(0), \n                badReceiver);\n    }\n    \n\n    /*******************************************\n    Constructor, Recieve, Fallback\n    *******************************************/\n\n    constructor(address _RCU, address _owner, address _segaFact) {\n        \n        RCU = _RCU;\n        segaFactory = _segaFact;\n\n        owner = payable(_owner);\n        backupAccount = _owner;\n        unlockDays = 365;\n        releaseTime = block.timestamp + unlockDays * oneDay;\n        \n        SegaList.push(address(0));\n    }\n\n    receive() external payable {\n        emit Received(msg.sender, msg.value);\n    }\n    \n    fallback() external payable {\n        if (msg.value > 0) { \n            emit Received(msg.sender, msg.value);\n        }\n    }\n\n    /*********************************************\n    Owner Only Functions - Relevant for backupAccount\n    *********************************************/\n    \n    //For Owner to set Backup Account\n    function setBackup(address _backup) public isOwner {\n        _notZero(_backup);\n        backupAccount = _backup;\n        emit ChangedBackup(_backup);\n    }\n    \n    //For Owner to set days after which Owner account declared inactive\n    function setUnlockPeriod(uint256 _unlockTime) public isOwner {\n        unlockDays = _unlockTime;\n        ownerActive();\n        emit ChangedInactiveTime(_unlockTime);\n    }\n    \n    //For Backup Account to claim the role of Owner\n    function claimVault() public {\n        require(msg.sender == backupAccount,noAccess);\n        require(block.timestamp >= releaseTime,\"Owner is not declared inactive\");\n        address oldAc = owner;\n        owner = payable(backupAccount);\n        emit OwnershipTransfered(owner, oldAc);\n        ownerActive();\n    }\n    \n    /*------------------------------------------\n    Vault Admin & Management Functions - Owner & ROs\n    ------------------------------------------*/\n\n    /********************************************\n    Functions to Return Vault Assets to Owner/Sega\n    *********************************************/\n\n    //Transfering Eth to allowed counterparties\n    function sendAssets(address payable receiver, uint256 amount) public isOwner {\n        _checkReceiver(receiver);\n        require(address(this).balance >= amount, lowBalance);\n        (bool success, ) = receiver.call{value: amount}(\"\");\n        require(success, txnFail);\n        emit SentOutAssets(receiver, address(0), amount);\n    }\n    \n    // Transferring & Approving allowed Tokens to Owner or Sega\n    function sendAssets(address receiver, address _token, uint256 amount) public isOwner {\n        _notZero(_token);\n        _checkReceiver(receiver);\n        IERC20 Token = IERC20(_token);\n        _enoughBalance(Token, amount);\n        bool success = Token.transfer(receiver, amount);\n        require(success, txnFail);\n        emit SentOutAssets(receiver, _token, amount);\n    }\n\n    /*-------------------------------------------\n    Functions to Manage Segregated Accounts\n    --------------------------------------------*/\n\n    /*********************\n    Create New SEGA\n    *********************/\n\n    //For Owner to create new Segregated Account\n    function createNewSega() public isOwner returns (address) {\n        require(IRCU(RCU).verifySF(segaFactory));\n        address _sega = ISegaFactP(segaFactory).createSega(address(this), owner);\n        itemIn(_sega, SegaList, SegaMap);\n        emit NewSegaCreated(_sega);\n        return _sega;\n    }\n\n    //For Owner to Custom Sega Account\n    function createCustomSega(address _segaFactory, uint256 index) public isOwner returns (address) {\n        require(IRCU(RCU).verifySF(_segaFactory));\n        address _sega = ISegaFactP(_segaFactory).createSega(address(this), owner, index);\n        itemIn(_sega, SegaList, SegaMap);\n        emit NewSegaCreated(_sega);\n        return _sega;\n    }\n\n    /*********************\n    SEGA Admin Functions\n    *********************/\n\n    //-----To Pause & Unpause Account Transfers-----//\n\n    function pauseSega(address _sega) public isOwner isSega(_sega) {\n        ISega(_sega).pauseTransfers();\n        emit SegaFrozen(_sega, 1);\n    }\n    function unpauseSega(address _sega) public isOwner isSega(_sega) {\n        ISega(_sega).unpauseTransfers();\n        emit SegaFrozen(_sega, 0);\n    }\n\n    function changeTrader(address _sega, address _newTrader) public isOwner isSega(_sega) {\n        ISega(_sega).changeTrader(_newTrader);\n        emit SegaTraderChanged(_sega, _newTrader);\n    }\n    \n    /****************************\n    Force Recall of Sega Balances\n    *****************************/\n\n    function RecallFromSega(address _sega, uint256 _amount) public isOwner isSega(_sega) {\n        ISega(_sega).returnToVault(_amount);\n        emit SegaRecall(_sega, address(0), _amount);\n    }\n    \n    function RecallFromSega(address _sega, address _token, uint256 _amount) public isOwner isSega(_sega) {\n        _notZero(_token);\n        ISega(_sega).returnToVault(_token, _amount);\n        emit SegaRecall(_sega, _token, _amount);\n    }    \n    \n    /*------------------------------------------\n    Internal Functions\n    -------------------------------------------*/\n\n\n    function itemIn(address _item, address[] storage _list, mapping(address=>uint) storage _map) internal {\n        if (_map[_item] != 0 ) {\n            require( _list[_map[_item]] == address(0), \"Already Enabled\");\n            _list[ _map[_item] ] = _item;\n        } else {\n        _map[_item] = _list.length;\n        _list.push(_item);\n        }\n    }\n\n    function checkTxn(bool success) internal pure {\n        require(success, \"Transfer Unsuccesful\");\n    }\n    \n\n    /*------------------------------------------\n    View Only Functions\n    -------------------------------------------*/\n\n    //For Owner or Backup Account to view the Backup Account address\n    function getRecoveryInfo() public view returns (address, address, uint256, uint256) {\n        return (owner, backupAccount, releaseTime, unlockDays);\n    }\n\n    //For Owner to view List of Linked Sega(s)\n    function viewSegaList() public view returns (address[] memory) {\n        return SegaList;\n    }\n\n}\n\ninterface IRCU{\n    function verifySF(address) external returns (bool);\n}","sourcePath":"contracts/2_VaultP.sol","type":"contract","deployment":{"address":"0x86Aa84371DcFE4d229d0Ef5d25cC7B164FCb5231","chainid":"97","blockHeight":14261480}}