{
  "abi": [
    {
      "inputs": [
        {
          "internalType": "address",
          "name": "_parentVault",
          "type": "address"
        },
        {
          "internalType": "address",
          "name": "_owner",
          "type": "address"
        }
      ],
      "stateMutability": "nonpayable",
      "type": "constructor"
    },
    {
      "anonymous": false,
      "inputs": [
        {
          "indexed": true,
          "internalType": "address",
          "name": "_to",
          "type": "address"
        },
        {
          "indexed": true,
          "internalType": "address",
          "name": "_token",
          "type": "address"
        },
        {
          "indexed": false,
          "internalType": "uint256",
          "name": "_amount",
          "type": "uint256"
        }
      ],
      "name": "ApprovedTokensOut",
      "type": "event"
    },
    {
      "anonymous": false,
      "inputs": [
        {
          "indexed": false,
          "internalType": "address",
          "name": "account",
          "type": "address"
        }
      ],
      "name": "Paused",
      "type": "event"
    },
    {
      "anonymous": false,
      "inputs": [
        {
          "indexed": true,
          "internalType": "address",
          "name": "_from",
          "type": "address"
        },
        {
          "indexed": false,
          "internalType": "uint256",
          "name": "amount",
          "type": "uint256"
        }
      ],
      "name": "Received",
      "type": "event"
    },
    {
      "anonymous": false,
      "inputs": [
        {
          "indexed": false,
          "internalType": "address",
          "name": "newTrader",
          "type": "address"
        }
      ],
      "name": "SegaTraderChanged",
      "type": "event"
    },
    {
      "anonymous": false,
      "inputs": [
        {
          "indexed": true,
          "internalType": "address",
          "name": "_to",
          "type": "address"
        },
        {
          "indexed": true,
          "internalType": "address",
          "name": "_token",
          "type": "address"
        },
        {
          "indexed": false,
          "internalType": "uint256",
          "name": "_amount",
          "type": "uint256"
        }
      ],
      "name": "SentOutAssets",
      "type": "event"
    },
    {
      "anonymous": false,
      "inputs": [
        {
          "indexed": true,
          "internalType": "address",
          "name": "_SC",
          "type": "address"
        },
        {
          "indexed": true,
          "internalType": "bytes4",
          "name": "_method",
          "type": "bytes4"
        },
        {
          "indexed": false,
          "internalType": "uint256",
          "name": "_value",
          "type": "uint256"
        }
      ],
      "name": "SmartContractCall",
      "type": "event"
    },
    {
      "anonymous": false,
      "inputs": [
        {
          "indexed": false,
          "internalType": "address",
          "name": "account",
          "type": "address"
        }
      ],
      "name": "Unpaused",
      "type": "event"
    },
    {
      "stateMutability": "payable",
      "type": "fallback"
    },
    {
      "inputs": [
        {
          "internalType": "address",
          "name": "smartContract",
          "type": "address"
        },
        {
          "internalType": "bytes",
          "name": "data",
          "type": "bytes"
        }
      ],
      "name": "callSC",
      "outputs": [],
      "stateMutability": "nonpayable",
      "type": "function"
    },
    {
      "inputs": [
        {
          "internalType": "address",
          "name": "smartContract",
          "type": "address"
        },
        {
          "internalType": "bytes",
          "name": "data",
          "type": "bytes"
        },
        {
          "internalType": "uint256",
          "name": "_value",
          "type": "uint256"
        }
      ],
      "name": "callSC",
      "outputs": [],
      "stateMutability": "nonpayable",
      "type": "function"
    },
    {
      "inputs": [
        {
          "internalType": "address",
          "name": "_newTrader",
          "type": "address"
        }
      ],
      "name": "changeTrader",
      "outputs": [],
      "stateMutability": "nonpayable",
      "type": "function"
    },
    {
      "inputs": [],
      "name": "getInfo",
      "outputs": [
        {
          "internalType": "address",
          "name": "",
          "type": "address"
        },
        {
          "internalType": "address",
          "name": "",
          "type": "address"
        },
        {
          "internalType": "bool",
          "name": "",
          "type": "bool"
        }
      ],
      "stateMutability": "view",
      "type": "function"
    },
    {
      "inputs": [],
      "name": "pauseTransfers",
      "outputs": [],
      "stateMutability": "nonpayable",
      "type": "function"
    },
    {
      "inputs": [],
      "name": "paused",
      "outputs": [
        {
          "internalType": "bool",
          "name": "",
          "type": "bool"
        }
      ],
      "stateMutability": "view",
      "type": "function"
    },
    {
      "inputs": [
        {
          "internalType": "uint256",
          "name": "_amount",
          "type": "uint256"
        }
      ],
      "name": "returnToVault",
      "outputs": [],
      "stateMutability": "nonpayable",
      "type": "function"
    },
    {
      "inputs": [
        {
          "internalType": "address",
          "name": "_token",
          "type": "address"
        },
        {
          "internalType": "uint256",
          "name": "_amount",
          "type": "uint256"
        }
      ],
      "name": "returnToVault",
      "outputs": [],
      "stateMutability": "nonpayable",
      "type": "function"
    },
    {
      "inputs": [
        {
          "internalType": "address payable",
          "name": "receiver",
          "type": "address"
        },
        {
          "internalType": "uint256",
          "name": "amount",
          "type": "uint256"
        }
      ],
      "name": "sendNativeAssets",
      "outputs": [],
      "stateMutability": "nonpayable",
      "type": "function"
    },
    {
      "inputs": [
        {
          "internalType": "address",
          "name": "receiver",
          "type": "address"
        },
        {
          "internalType": "address",
          "name": "_token",
          "type": "address"
        },
        {
          "internalType": "uint256",
          "name": "amount",
          "type": "uint256"
        }
      ],
      "name": "sendTokenAssets",
      "outputs": [],
      "stateMutability": "nonpayable",
      "type": "function"
    },
    {
      "inputs": [
        {
          "internalType": "address",
          "name": "spender",
          "type": "address"
        },
        {
          "internalType": "address",
          "name": "_token",
          "type": "address"
        },
        {
          "internalType": "uint256",
          "name": "amount",
          "type": "uint256"
        }
      ],
      "name": "tokenApprove",
      "outputs": [],
      "stateMutability": "nonpayable",
      "type": "function"
    },
    {
      "inputs": [],
      "name": "unpauseTransfers",
      "outputs": [],
      "stateMutability": "nonpayable",
      "type": "function"
    },
    {
      "inputs": [],
      "name": "version",
      "outputs": [
        {
          "internalType": "uint256",
          "name": "",
          "type": "uint256"
        }
      ],
      "stateMutability": "view",
      "type": "function"
    },
    {
      "stateMutability": "payable",
      "type": "receive"
    }
  ],
  "bytecode": "608060405234801561001057600080fd5b5060405161130b38038061130b83398101604081905261002f91610085565b600080546001600160a81b0319166101006001600160a01b0394851602179055600180546001600160a01b031916919092161790556100b8565b80516001600160a01b038116811461008057600080fd5b919050565b6000806040838503121561009857600080fd5b6100a183610069565b91506100af60208401610069565b90509250929050565b611244806100c76000396000f3fe6080604052600436106100c65760003560e01c80636880aafe1161007f578063d04f74ea11610059578063d04f74ea14610278578063d0f108eb14610298578063d4a015e4146102b8578063fb3f4d29146102d857610103565b80636880aafe146102235780638936a91f14610243578063c3b60ca61461025857610103565b806303fa14171461013d5780632fb0b77e1461015d57806347af99571461017d57806354fd4d50146101925780635a9b0b89146101bb5780635c975abb1461020057610103565b366101035760405134815233907f88a5966d370b9919b20f3e2c13ff65706f196a4e32cc2c12bf57088f88525874906020015b60405180910390a2005b341561013b5760405134815233907f88a5966d370b9919b20f3e2c13ff65706f196a4e32cc2c12bf57088f88525874906020016100f9565b005b34801561014957600080fd5b5061013b610158366004610fbd565b6102f8565b34801561016957600080fd5b5061013b610178366004611112565b610354565b34801561018957600080fd5b5061013b6103b6565b34801561019e57600080fd5b506101a861277681565b6040519081526020015b60405180910390f35b3480156101c757600080fd5b50600054600154604080516001600160a01b03610100850481168252909216602083015260ff90921615918101919091526060016101b2565b34801561020c57600080fd5b5060005460ff1660405190151581526020016101b2565b34801561022f57600080fd5b5061013b61023e366004610fda565b6103c8565b34801561024f57600080fd5b5061013b610416565b34801561026457600080fd5b5061013b610273366004611047565b610426565b34801561028457600080fd5b5061013b610293366004611006565b6104c9565b3480156102a457600080fd5b5061013b6102b3366004610fda565b61060c565b3480156102c457600080fd5b5061013b6102d3366004611097565b61073f565b3480156102e457600080fd5b5061013b6102f3366004611006565b6107d3565b610300610906565b600180546001600160a01b0319166001600160a01b0383169081179091556040519081527f91c186c0719ed592ee83c1c56b97609511e4b91d6d93ed40c8d80663b997467f9060200160405180910390a150565b61035c610964565b6000546103779061010090046001600160a01b0316826109e4565b600080546040516101009091046001600160a01b0316906000805160206111ef833981519152906103ab9085815260200190565b60405180910390a350565b6103be610906565b6103c6610b02565b565b6103d0610b9a565b6103d982610c36565b6103e382826109e4565b6040518181526000906001600160a01b038416906000805160206111ef8339815191529060200160405180910390a35050565b61041e610906565b6103c6610c8c565b61042e610b9a565b6104658282600060405180604001604052806012815260200171151c985b9cd858dd1a5bdb8811985a5b195960721b815250610d06565b506000610473826020015190565b9050806001600160e01b031916836001600160a01b03167fec539c4dbcb33605d0ad29cd8cbd6ca59bb51a4b5ef9388e055a91a3a188339e60006040516104bc91815260200190565b60405180910390a3505050565b6104d1610b9a565b6104da82610c36565b6104e383610c36565b816104ee8183610e2e565b60405163a9059cbb60e01b81526001600160a01b038581166004830152602482018490526000919083169063a9059cbb90604401602060405180830381600087803b15801561053c57600080fd5b505af1158015610550573d6000803e3d6000fd5b505050506040513d601f19601f8201168201806040525081019061057491906110f0565b90508060405180604001604052806012815260200171151c985b9cd858dd1a5bdb8811985a5b195960721b815250906105c95760405162461bcd60e51b81526004016105c09190611160565b60405180910390fd5b50836001600160a01b0316856001600160a01b03166000805160206111ef833981519152856040516105fd91815260200190565b60405180910390a35050505050565b610614610964565b61061d82610c36565b816106288183610e2e565b6000805460405163a9059cbb60e01b81526101009091046001600160a01b0390811660048301526024820185905283169063a9059cbb90604401602060405180830381600087803b15801561067c57600080fd5b505af1158015610690573d6000803e3d6000fd5b505050506040513d601f19601f820116820180604052508101906106b491906110f0565b90508060405180604001604052806012815260200171151c985b9cd858dd1a5bdb8811985a5b195960721b815250906107005760405162461bcd60e51b81526004016105c09190611160565b506000546040518481526001600160a01b0386811692610100900416906000805160206111ef833981519152906020015b60405180910390a350505050565b610747610b9a565b61077d83838360405180604001604052806012815260200171151c985b9cd858dd1a5bdb8811985a5b195960721b815250610d06565b50600061078b836020015190565b9050806001600160e01b031916846001600160a01b03167fec539c4dbcb33605d0ad29cd8cbd6ca59bb51a4b5ef9388e055a91a3a188339e8460405161073191815260200190565b6107db610b9a565b6107e482610c36565b6107ed83610c36565b60405163095ea7b360e01b81526001600160a01b03848116600483015260248201839052839160009183169063095ea7b390604401602060405180830381600087803b15801561083c57600080fd5b505af1158015610850573d6000803e3d6000fd5b505050506040513d601f19601f8201168201806040525081019061087491906110f0565b90508060405180604001604052806012815260200171151c985b9cd858dd1a5bdb8811985a5b195960721b815250906108c05760405162461bcd60e51b81526004016105c09190611160565b50836001600160a01b0316856001600160a01b03167f4e48f8ea88ab4eebce074074f123da6364ef9c1734c8e16843337615c081ad68856040516105fd91815260200190565b600054604080518082019091526013815272155cd95c881b9bdd08105d5d1a1bdc9a5e9959606a1b60208201529061010090046001600160a01b031633146109615760405162461bcd60e51b81526004016105c09190611160565b50565b60005461010090046001600160a01b031633148061099a575060005460ff1615801561099a57506001546001600160a01b031633145b60405180604001604052806013815260200172155cd95c881b9bdd08105d5d1a1bdc9a5e9959606a1b815250906109615760405162461bcd60e51b81526004016105c09190611160565b80471015610a345760405162461bcd60e51b815260206004820152601d60248201527f416464726573733a20696e73756666696369656e742062616c616e636500000060448201526064016105c0565b6000826001600160a01b03168260405160006040518083038185875af1925050503d8060008114610a81576040519150601f19603f3d011682016040523d82523d6000602084013e610a86565b606091505b5050905080610afd5760405162461bcd60e51b815260206004820152603a60248201527f416464726573733a20756e61626c6520746f2073656e642076616c75652c207260448201527f6563697069656e74206d6179206861766520726576657274656400000000000060648201526084016105c0565b505050565b60005460ff1615610b485760405162461bcd60e51b815260206004820152601060248201526f14185d5cd8589b194e881c185d5cd95960821b60448201526064016105c0565b6000805460ff191660011790557f62e78cea01bee320cd4e420270b5ea74000d11b0c9f74754ebdbfc544b05a258610b7d3390565b6040516001600160a01b03909116815260200160405180910390a1565b60005460ff1615610be05760405162461bcd60e51b815260206004820152601060248201526f14185d5cd8589b194e881c185d5cd95960821b60448201526064016105c0565b600154604080518082019091526013815272155cd95c881b9bdd08105d5d1a1bdc9a5e9959606a1b6020820152906001600160a01b031633146109615760405162461bcd60e51b81526004016105c09190611160565b6001600160a01b0381166109615760405162461bcd60e51b815260206004820152601860248201527f5a65726f2041646472657373204e6f7420416c6c6f776564000000000000000060448201526064016105c0565b60005460ff16610cd55760405162461bcd60e51b815260206004820152601460248201527314185d5cd8589b194e881b9bdd081c185d5cd95960621b60448201526064016105c0565b6000805460ff191690557f5db9ee0a495bf2e6ff9c91a7834c1ba4fdd244a5e8aa4e537bd38aeae4b073aa33610b7d565b606082471015610d675760405162461bcd60e51b815260206004820152602660248201527f416464726573733a20696e73756666696369656e742062616c616e636520666f6044820152651c8818d85b1b60d21b60648201526084016105c0565b843b610db55760405162461bcd60e51b815260206004820152601d60248201527f416464726573733a2063616c6c20746f206e6f6e2d636f6e747261637400000060448201526064016105c0565b600080866001600160a01b03168587604051610dd19190611144565b60006040518083038185875af1925050503d8060008114610e0e576040519150601f19603f3d011682016040523d82523d6000602084013e610e13565b606091505b5091509150610e23828286610ef0565b979650505050505050565b6040516370a0823160e01b815230600482015281906001600160a01b038416906370a082319060240160206040518083038186803b158015610e6f57600080fd5b505afa158015610e83573d6000803e3d6000fd5b505050506040513d601f19601f82011682018060405250810190610ea7919061112b565b1015610eec5760405162461bcd60e51b8152602060048201526014602482015273496e73756666696369656e742062616c616e636560601b60448201526064016105c0565b5050565b60608315610eff575081610f29565b825115610f0f5782518084602001fd5b8160405162461bcd60e51b81526004016105c09190611160565b9392505050565b600082601f830112610f4157600080fd5b813567ffffffffffffffff80821115610f5c57610f5c6111c3565b604051601f8301601f19908116603f01168101908282118183101715610f8457610f846111c3565b81604052838152866020858801011115610f9d57600080fd5b836020870160208301376000602085830101528094505050505092915050565b600060208284031215610fcf57600080fd5b8135610f29816111d9565b60008060408385031215610fed57600080fd5b8235610ff8816111d9565b946020939093013593505050565b60008060006060848603121561101b57600080fd5b8335611026816111d9565b92506020840135611036816111d9565b929592945050506040919091013590565b6000806040838503121561105a57600080fd5b8235611065816111d9565b9150602083013567ffffffffffffffff81111561108157600080fd5b61108d85828601610f30565b9150509250929050565b6000806000606084860312156110ac57600080fd5b83356110b7816111d9565b9250602084013567ffffffffffffffff8111156110d357600080fd5b6110df86828701610f30565b925050604084013590509250925092565b60006020828403121561110257600080fd5b81518015158114610f2957600080fd5b60006020828403121561112457600080fd5b5035919050565b60006020828403121561113d57600080fd5b5051919050565b60008251611156818460208701611193565b9190910192915050565b602081526000825180602084015261117f816040850160208701611193565b601f01601f19169190910160400192915050565b60005b838110156111ae578181015183820152602001611196565b838111156111bd576000848401525b50505050565b634e487b7160e01b600052604160045260246000fd5b6001600160a01b038116811461096157600080fdfe8f7184268eabc3e5f95d42873237e44e84d2cb27baa7358ac4fe098d4dfba2eda264697066735822122008fb404e52c4aa75023913d2296bccf785baeecd61b204ebd81cfc2f107244d464736f6c63430008060033",
  "bytecodeSha1": "6fbd64ddc29f2e6039a043540d75b5b779996d6c",
  "compiler": {
    "evm_version": "istanbul",
    "optimizer": {
      "enabled": true,
      "runs": 200
    },
    "version": "0.8.6+commit.11564f7e"
  },
  "contractName": "SEGA_v112",
  "language": "Solidity",
  "natspec": {
    "kind": "dev",
    "methods": {
      "paused()": {
        "details": "Returns true if the contract is paused, and false otherwise."
      }
    },
    "version": 1
  },
  "opcodes": "PUSH1 0x80 PUSH1 0x40 MSTORE PUSH1 0x4 CALLDATASIZE LT PUSH2 0xC6 JUMPI PUSH1 0x0 CALLDATALOAD PUSH1 0xE0 SHR DUP1 PUSH4 0x6880AAFE GT PUSH2 0x7F JUMPI DUP1 PUSH4 0xD04F74EA GT PUSH2 0x59 JUMPI DUP1 PUSH4 0xD04F74EA EQ PUSH2 0x278 JUMPI DUP1 PUSH4 0xD0F108EB EQ PUSH2 0x298 JUMPI DUP1 PUSH4 0xD4A015E4 EQ PUSH2 0x2B8 JUMPI DUP1 PUSH4 0xFB3F4D29 EQ PUSH2 0x2D8 JUMPI PUSH2 0x103 JUMP JUMPDEST DUP1 PUSH4 0x6880AAFE EQ PUSH2 0x223 JUMPI DUP1 PUSH4 0x8936A91F EQ PUSH2 0x243 JUMPI DUP1 PUSH4 0xC3B60CA6 EQ PUSH2 0x258 JUMPI PUSH2 0x103 JUMP JUMPDEST DUP1 PUSH4 0x3FA1417 EQ PUSH2 0x13D JUMPI DUP1 PUSH4 0x2FB0B77E EQ PUSH2 0x15D JUMPI DUP1 PUSH4 0x47AF9957 EQ PUSH2 0x17D JUMPI DUP1 PUSH4 0x54FD4D50 EQ PUSH2 0x192 JUMPI DUP1 PUSH4 0x5A9B0B89 EQ PUSH2 0x1BB JUMPI DUP1 PUSH4 0x5C975ABB EQ PUSH2 0x200 JUMPI PUSH2 0x103 JUMP JUMPDEST CALLDATASIZE PUSH2 0x103 JUMPI PUSH1 0x40 MLOAD CALLVALUE DUP2 MSTORE CALLER SWAP1 PUSH32 0x88A5966D370B9919B20F3E2C13FF65706F196A4E32CC2C12BF57088F88525874 SWAP1 PUSH1 0x20 ADD JUMPDEST PUSH1 0x40 MLOAD DUP1 SWAP2 SUB SWAP1 LOG2 STOP JUMPDEST CALLVALUE ISZERO PUSH2 0x13B JUMPI PUSH1 0x40 MLOAD CALLVALUE DUP2 MSTORE CALLER SWAP1 PUSH32 0x88A5966D370B9919B20F3E2C13FF65706F196A4E32CC2C12BF57088F88525874 SWAP1 PUSH1 0x20 ADD PUSH2 0xF9 JUMP JUMPDEST STOP JUMPDEST CALLVALUE DUP1 ISZERO PUSH2 0x149 JUMPI PUSH1 0x0 DUP1 REVERT JUMPDEST POP PUSH2 0x13B PUSH2 0x158 CALLDATASIZE PUSH1 0x4 PUSH2 0xFBD JUMP JUMPDEST PUSH2 0x2F8 JUMP JUMPDEST CALLVALUE DUP1 ISZERO PUSH2 0x169 JUMPI PUSH1 0x0 DUP1 REVERT JUMPDEST POP PUSH2 0x13B PUSH2 0x178 CALLDATASIZE PUSH1 0x4 PUSH2 0x1112 JUMP JUMPDEST PUSH2 0x354 JUMP JUMPDEST CALLVALUE DUP1 ISZERO PUSH2 0x189 JUMPI PUSH1 0x0 DUP1 REVERT JUMPDEST POP PUSH2 0x13B PUSH2 0x3B6 JUMP JUMPDEST CALLVALUE DUP1 ISZERO PUSH2 0x19E JUMPI PUSH1 0x0 DUP1 REVERT JUMPDEST POP PUSH2 0x1A8 PUSH2 0x2776 DUP2 JUMP JUMPDEST PUSH1 0x40 MLOAD SWAP1 DUP2 MSTORE PUSH1 0x20 ADD JUMPDEST PUSH1 0x40 MLOAD DUP1 SWAP2 SUB SWAP1 RETURN JUMPDEST CALLVALUE DUP1 ISZERO PUSH2 0x1C7 JUMPI PUSH1 0x0 DUP1 REVERT JUMPDEST POP PUSH1 0x0 SLOAD PUSH1 0x1 SLOAD PUSH1 0x40 DUP1 MLOAD PUSH1 0x1 PUSH1 0x1 PUSH1 0xA0 SHL SUB PUSH2 0x100 DUP6 DIV DUP2 AND DUP3 MSTORE SWAP1 SWAP3 AND PUSH1 0x20 DUP4 ADD MSTORE PUSH1 0xFF SWAP1 SWAP3 AND ISZERO SWAP2 DUP2 ADD SWAP2 SWAP1 SWAP2 MSTORE PUSH1 0x60 ADD PUSH2 0x1B2 JUMP JUMPDEST CALLVALUE DUP1 ISZERO PUSH2 0x20C JUMPI PUSH1 0x0 DUP1 REVERT JUMPDEST POP PUSH1 0x0 SLOAD PUSH1 0xFF AND PUSH1 0x40 MLOAD SWAP1 ISZERO ISZERO DUP2 MSTORE PUSH1 0x20 ADD PUSH2 0x1B2 JUMP JUMPDEST CALLVALUE DUP1 ISZERO PUSH2 0x22F JUMPI PUSH1 0x0 DUP1 REVERT JUMPDEST POP PUSH2 0x13B PUSH2 0x23E CALLDATASIZE PUSH1 0x4 PUSH2 0xFDA JUMP JUMPDEST PUSH2 0x3C8 JUMP JUMPDEST CALLVALUE DUP1 ISZERO PUSH2 0x24F JUMPI PUSH1 0x0 DUP1 REVERT JUMPDEST POP PUSH2 0x13B PUSH2 0x416 JUMP JUMPDEST CALLVALUE DUP1 ISZERO PUSH2 0x264 JUMPI PUSH1 0x0 DUP1 REVERT JUMPDEST POP PUSH2 0x13B PUSH2 0x273 CALLDATASIZE PUSH1 0x4 PUSH2 0x1047 JUMP JUMPDEST PUSH2 0x426 JUMP JUMPDEST CALLVALUE DUP1 ISZERO PUSH2 0x284 JUMPI PUSH1 0x0 DUP1 REVERT JUMPDEST POP PUSH2 0x13B PUSH2 0x293 CALLDATASIZE PUSH1 0x4 PUSH2 0x1006 JUMP JUMPDEST PUSH2 0x4C9 JUMP JUMPDEST CALLVALUE DUP1 ISZERO PUSH2 0x2A4 JUMPI PUSH1 0x0 DUP1 REVERT JUMPDEST POP PUSH2 0x13B PUSH2 0x2B3 CALLDATASIZE PUSH1 0x4 PUSH2 0xFDA JUMP JUMPDEST PUSH2 0x60C JUMP JUMPDEST CALLVALUE DUP1 ISZERO PUSH2 0x2C4 JUMPI PUSH1 0x0 DUP1 REVERT JUMPDEST POP PUSH2 0x13B PUSH2 0x2D3 CALLDATASIZE PUSH1 0x4 PUSH2 0x1097 JUMP JUMPDEST PUSH2 0x73F JUMP JUMPDEST CALLVALUE DUP1 ISZERO PUSH2 0x2E4 JUMPI PUSH1 0x0 DUP1 REVERT JUMPDEST POP PUSH2 0x13B PUSH2 0x2F3 CALLDATASIZE PUSH1 0x4 PUSH2 0x1006 JUMP JUMPDEST PUSH2 0x7D3 JUMP JUMPDEST PUSH2 0x300 PUSH2 0x906 JUMP JUMPDEST PUSH1 0x1 DUP1 SLOAD PUSH1 0x1 PUSH1 0x1 PUSH1 0xA0 SHL SUB NOT AND PUSH1 0x1 PUSH1 0x1 PUSH1 0xA0 SHL SUB DUP4 AND SWAP1 DUP2 OR SWAP1 SWAP2 SSTORE PUSH1 0x40 MLOAD SWAP1 DUP2 MSTORE PUSH32 0x91C186C0719ED592EE83C1C56B97609511E4B91D6D93ED40C8D80663B997467F SWAP1 PUSH1 0x20 ADD PUSH1 0x40 MLOAD DUP1 SWAP2 SUB SWAP1 LOG1 POP JUMP JUMPDEST PUSH2 0x35C PUSH2 0x964 JUMP JUMPDEST PUSH1 0x0 SLOAD PUSH2 0x377 SWAP1 PUSH2 0x100 SWAP1 DIV PUSH1 0x1 PUSH1 0x1 PUSH1 0xA0 SHL SUB AND DUP3 PUSH2 0x9E4 JUMP JUMPDEST PUSH1 0x0 DUP1 SLOAD PUSH1 0x40 MLOAD PUSH2 0x100 SWAP1 SWAP2 DIV PUSH1 0x1 PUSH1 0x1 PUSH1 0xA0 SHL SUB AND SWAP1 PUSH1 0x0 DUP1 MLOAD PUSH1 0x20 PUSH2 0x11EF DUP4 CODECOPY DUP2 MLOAD SWAP2 MSTORE SWAP1 PUSH2 0x3AB SWAP1 DUP6 DUP2 MSTORE PUSH1 0x20 ADD SWAP1 JUMP JUMPDEST PUSH1 0x40 MLOAD DUP1 SWAP2 SUB SWAP1 LOG3 POP JUMP JUMPDEST PUSH2 0x3BE PUSH2 0x906 JUMP JUMPDEST PUSH2 0x3C6 PUSH2 0xB02 JUMP JUMPDEST JUMP JUMPDEST PUSH2 0x3D0 PUSH2 0xB9A JUMP JUMPDEST PUSH2 0x3D9 DUP3 PUSH2 0xC36 JUMP JUMPDEST PUSH2 0x3E3 DUP3 DUP3 PUSH2 0x9E4 JUMP JUMPDEST PUSH1 0x40 MLOAD DUP2 DUP2 MSTORE PUSH1 0x0 SWAP1 PUSH1 0x1 PUSH1 0x1 PUSH1 0xA0 SHL SUB DUP5 AND SWAP1 PUSH1 0x0 DUP1 MLOAD PUSH1 0x20 PUSH2 0x11EF DUP4 CODECOPY DUP2 MLOAD SWAP2 MSTORE SWAP1 PUSH1 0x20 ADD PUSH1 0x40 MLOAD DUP1 SWAP2 SUB SWAP1 LOG3 POP POP JUMP JUMPDEST PUSH2 0x41E PUSH2 0x906 JUMP JUMPDEST PUSH2 0x3C6 PUSH2 0xC8C JUMP JUMPDEST PUSH2 0x42E PUSH2 0xB9A JUMP JUMPDEST PUSH2 0x465 DUP3 DUP3 PUSH1 0x0 PUSH1 0x40 MLOAD DUP1 PUSH1 0x40 ADD PUSH1 0x40 MSTORE DUP1 PUSH1 0x12 DUP2 MSTORE PUSH1 0x20 ADD PUSH18 0x151C985B9CD858DD1A5BDB8811985A5B1959 PUSH1 0x72 SHL DUP2 MSTORE POP PUSH2 0xD06 JUMP JUMPDEST POP PUSH1 0x0 PUSH2 0x473 DUP3 PUSH1 0x20 ADD MLOAD SWAP1 JUMP JUMPDEST SWAP1 POP DUP1 PUSH1 0x1 PUSH1 0x1 PUSH1 0xE0 SHL SUB NOT AND DUP4 PUSH1 0x1 PUSH1 0x1 PUSH1 0xA0 SHL SUB AND PUSH32 0xEC539C4DBCB33605D0AD29CD8CBD6CA59BB51A4B5EF9388E055A91A3A188339E PUSH1 0x0 PUSH1 0x40 MLOAD PUSH2 0x4BC SWAP2 DUP2 MSTORE PUSH1 0x20 ADD SWAP1 JUMP JUMPDEST PUSH1 0x40 MLOAD DUP1 SWAP2 SUB SWAP1 LOG3 POP POP POP JUMP JUMPDEST PUSH2 0x4D1 PUSH2 0xB9A JUMP JUMPDEST PUSH2 0x4DA DUP3 PUSH2 0xC36 JUMP JUMPDEST PUSH2 0x4E3 DUP4 PUSH2 0xC36 JUMP JUMPDEST DUP2 PUSH2 0x4EE DUP2 DUP4 PUSH2 0xE2E JUMP JUMPDEST PUSH1 0x40 MLOAD PUSH4 0xA9059CBB PUSH1 0xE0 SHL DUP2 MSTORE PUSH1 0x1 PUSH1 0x1 PUSH1 0xA0 SHL SUB DUP6 DUP2 AND PUSH1 0x4 DUP4 ADD MSTORE PUSH1 0x24 DUP3 ADD DUP5 SWAP1 MSTORE PUSH1 0x0 SWAP2 SWAP1 DUP4 AND SWAP1 PUSH4 0xA9059CBB SWAP1 PUSH1 0x44 ADD PUSH1 0x20 PUSH1 0x40 MLOAD DUP1 DUP4 SUB DUP2 PUSH1 0x0 DUP8 DUP1 EXTCODESIZE ISZERO DUP1 ISZERO PUSH2 0x53C JUMPI PUSH1 0x0 DUP1 REVERT JUMPDEST POP GAS CALL ISZERO DUP1 ISZERO PUSH2 0x550 JUMPI RETURNDATASIZE PUSH1 0x0 DUP1 RETURNDATACOPY RETURNDATASIZE PUSH1 0x0 REVERT JUMPDEST POP POP POP POP PUSH1 0x40 MLOAD RETURNDATASIZE PUSH1 0x1F NOT PUSH1 0x1F DUP3 ADD AND DUP3 ADD DUP1 PUSH1 0x40 MSTORE POP DUP2 ADD SWAP1 PUSH2 0x574 SWAP2 SWAP1 PUSH2 0x10F0 JUMP JUMPDEST SWAP1 POP DUP1 PUSH1 0x40 MLOAD DUP1 PUSH1 0x40 ADD PUSH1 0x40 MSTORE DUP1 PUSH1 0x12 DUP2 MSTORE PUSH1 0x20 ADD PUSH18 0x151C985B9CD858DD1A5BDB8811985A5B1959 PUSH1 0x72 SHL DUP2 MSTORE POP SWAP1 PUSH2 0x5C9 JUMPI PUSH1 0x40 MLOAD PUSH3 0x461BCD PUSH1 0xE5 SHL DUP2 MSTORE PUSH1 0x4 ADD PUSH2 0x5C0 SWAP2 SWAP1 PUSH2 0x1160 JUMP JUMPDEST PUSH1 0x40 MLOAD DUP1 SWAP2 SUB SWAP1 REVERT JUMPDEST POP DUP4 PUSH1 0x1 PUSH1 0x1 PUSH1 0xA0 SHL SUB AND DUP6 PUSH1 0x1 PUSH1 0x1 PUSH1 0xA0 SHL SUB AND PUSH1 0x0 DUP1 MLOAD PUSH1 0x20 PUSH2 0x11EF DUP4 CODECOPY DUP2 MLOAD SWAP2 MSTORE DUP6 PUSH1 0x40 MLOAD PUSH2 0x5FD SWAP2 DUP2 MSTORE PUSH1 0x20 ADD SWAP1 JUMP JUMPDEST PUSH1 0x40 MLOAD DUP1 SWAP2 SUB SWAP1 LOG3 POP POP POP POP POP JUMP JUMPDEST PUSH2 0x614 PUSH2 0x964 JUMP JUMPDEST PUSH2 0x61D DUP3 PUSH2 0xC36 JUMP JUMPDEST DUP2 PUSH2 0x628 DUP2 DUP4 PUSH2 0xE2E JUMP JUMPDEST PUSH1 0x0 DUP1 SLOAD PUSH1 0x40 MLOAD PUSH4 0xA9059CBB PUSH1 0xE0 SHL DUP2 MSTORE PUSH2 0x100 SWAP1 SWAP2 DIV PUSH1 0x1 PUSH1 0x1 PUSH1 0xA0 SHL SUB SWAP1 DUP2 AND PUSH1 0x4 DUP4 ADD MSTORE PUSH1 0x24 DUP3 ADD DUP6 SWAP1 MSTORE DUP4 AND SWAP1 PUSH4 0xA9059CBB SWAP1 PUSH1 0x44 ADD PUSH1 0x20 PUSH1 0x40 MLOAD DUP1 DUP4 SUB DUP2 PUSH1 0x0 DUP8 DUP1 EXTCODESIZE ISZERO DUP1 ISZERO PUSH2 0x67C JUMPI PUSH1 0x0 DUP1 REVERT JUMPDEST POP GAS CALL ISZERO DUP1 ISZERO PUSH2 0x690 JUMPI RETURNDATASIZE PUSH1 0x0 DUP1 RETURNDATACOPY RETURNDATASIZE PUSH1 0x0 REVERT JUMPDEST POP POP POP POP PUSH1 0x40 MLOAD RETURNDATASIZE PUSH1 0x1F NOT PUSH1 0x1F DUP3 ADD AND DUP3 ADD DUP1 PUSH1 0x40 MSTORE POP DUP2 ADD SWAP1 PUSH2 0x6B4 SWAP2 SWAP1 PUSH2 0x10F0 JUMP JUMPDEST SWAP1 POP DUP1 PUSH1 0x40 MLOAD DUP1 PUSH1 0x40 ADD PUSH1 0x40 MSTORE DUP1 PUSH1 0x12 DUP2 MSTORE PUSH1 0x20 ADD PUSH18 0x151C985B9CD858DD1A5BDB8811985A5B1959 PUSH1 0x72 SHL DUP2 MSTORE POP SWAP1 PUSH2 0x700 JUMPI PUSH1 0x40 MLOAD PUSH3 0x461BCD PUSH1 0xE5 SHL DUP2 MSTORE PUSH1 0x4 ADD PUSH2 0x5C0 SWAP2 SWAP1 PUSH2 0x1160 JUMP JUMPDEST POP PUSH1 0x0 SLOAD PUSH1 0x40 MLOAD DUP5 DUP2 MSTORE PUSH1 0x1 PUSH1 0x1 PUSH1 0xA0 SHL SUB DUP7 DUP2 AND SWAP3 PUSH2 0x100 SWAP1 DIV AND SWAP1 PUSH1 0x0 DUP1 MLOAD PUSH1 0x20 PUSH2 0x11EF DUP4 CODECOPY DUP2 MLOAD SWAP2 MSTORE SWAP1 PUSH1 0x20 ADD JUMPDEST PUSH1 0x40 MLOAD DUP1 SWAP2 SUB SWAP1 LOG3 POP POP POP POP JUMP JUMPDEST PUSH2 0x747 PUSH2 0xB9A JUMP JUMPDEST PUSH2 0x77D DUP4 DUP4 DUP4 PUSH1 0x40 MLOAD DUP1 PUSH1 0x40 ADD PUSH1 0x40 MSTORE DUP1 PUSH1 0x12 DUP2 MSTORE PUSH1 0x20 ADD PUSH18 0x151C985B9CD858DD1A5BDB8811985A5B1959 PUSH1 0x72 SHL DUP2 MSTORE POP PUSH2 0xD06 JUMP JUMPDEST POP PUSH1 0x0 PUSH2 0x78B DUP4 PUSH1 0x20 ADD MLOAD SWAP1 JUMP JUMPDEST SWAP1 POP DUP1 PUSH1 0x1 PUSH1 0x1 PUSH1 0xE0 SHL SUB NOT AND DUP5 PUSH1 0x1 PUSH1 0x1 PUSH1 0xA0 SHL SUB AND PUSH32 0xEC539C4DBCB33605D0AD29CD8CBD6CA59BB51A4B5EF9388E055A91A3A188339E DUP5 PUSH1 0x40 MLOAD PUSH2 0x731 SWAP2 DUP2 MSTORE PUSH1 0x20 ADD SWAP1 JUMP JUMPDEST PUSH2 0x7DB PUSH2 0xB9A JUMP JUMPDEST PUSH2 0x7E4 DUP3 PUSH2 0xC36 JUMP JUMPDEST PUSH2 0x7ED DUP4 PUSH2 0xC36 JUMP JUMPDEST PUSH1 0x40 MLOAD PUSH4 0x95EA7B3 PUSH1 0xE0 SHL DUP2 MSTORE PUSH1 0x1 PUSH1 0x1 PUSH1 0xA0 SHL SUB DUP5 DUP2 AND PUSH1 0x4 DUP4 ADD MSTORE PUSH1 0x24 DUP3 ADD DUP4 SWAP1 MSTORE DUP4 SWAP2 PUSH1 0x0 SWAP2 DUP4 AND SWAP1 PUSH4 0x95EA7B3 SWAP1 PUSH1 0x44 ADD PUSH1 0x20 PUSH1 0x40 MLOAD DUP1 DUP4 SUB DUP2 PUSH1 0x0 DUP8 DUP1 EXTCODESIZE ISZERO DUP1 ISZERO PUSH2 0x83C JUMPI PUSH1 0x0 DUP1 REVERT JUMPDEST POP GAS CALL ISZERO DUP1 ISZERO PUSH2 0x850 JUMPI RETURNDATASIZE PUSH1 0x0 DUP1 RETURNDATACOPY RETURNDATASIZE PUSH1 0x0 REVERT JUMPDEST POP POP POP POP PUSH1 0x40 MLOAD RETURNDATASIZE PUSH1 0x1F NOT PUSH1 0x1F DUP3 ADD AND DUP3 ADD DUP1 PUSH1 0x40 MSTORE POP DUP2 ADD SWAP1 PUSH2 0x874 SWAP2 SWAP1 PUSH2 0x10F0 JUMP JUMPDEST SWAP1 POP DUP1 PUSH1 0x40 MLOAD DUP1 PUSH1 0x40 ADD PUSH1 0x40 MSTORE DUP1 PUSH1 0x12 DUP2 MSTORE PUSH1 0x20 ADD PUSH18 0x151C985B9CD858DD1A5BDB8811985A5B1959 PUSH1 0x72 SHL DUP2 MSTORE POP SWAP1 PUSH2 0x8C0 JUMPI PUSH1 0x40 MLOAD PUSH3 0x461BCD PUSH1 0xE5 SHL DUP2 MSTORE PUSH1 0x4 ADD PUSH2 0x5C0 SWAP2 SWAP1 PUSH2 0x1160 JUMP JUMPDEST POP DUP4 PUSH1 0x1 PUSH1 0x1 PUSH1 0xA0 SHL SUB AND DUP6 PUSH1 0x1 PUSH1 0x1 PUSH1 0xA0 SHL SUB AND PUSH32 0x4E48F8EA88AB4EEBCE074074F123DA6364EF9C1734C8E16843337615C081AD68 DUP6 PUSH1 0x40 MLOAD PUSH2 0x5FD SWAP2 DUP2 MSTORE PUSH1 0x20 ADD SWAP1 JUMP JUMPDEST PUSH1 0x0 SLOAD PUSH1 0x40 DUP1 MLOAD DUP1 DUP3 ADD SWAP1 SWAP2 MSTORE PUSH1 0x13 DUP2 MSTORE PUSH19 0x155CD95C881B9BDD08105D5D1A1BDC9A5E9959 PUSH1 0x6A SHL PUSH1 0x20 DUP3 ADD MSTORE SWAP1 PUSH2 0x100 SWAP1 DIV PUSH1 0x1 PUSH1 0x1 PUSH1 0xA0 SHL SUB AND CALLER EQ PUSH2 0x961 JUMPI PUSH1 0x40 MLOAD PUSH3 0x461BCD PUSH1 0xE5 SHL DUP2 MSTORE PUSH1 0x4 ADD PUSH2 0x5C0 SWAP2 SWAP1 PUSH2 0x1160 JUMP JUMPDEST POP JUMP JUMPDEST PUSH1 0x0 SLOAD PUSH2 0x100 SWAP1 DIV PUSH1 0x1 PUSH1 0x1 PUSH1 0xA0 SHL SUB AND CALLER EQ DUP1 PUSH2 0x99A JUMPI POP PUSH1 0x0 SLOAD PUSH1 0xFF AND ISZERO DUP1 ISZERO PUSH2 0x99A JUMPI POP PUSH1 0x1 SLOAD PUSH1 0x1 PUSH1 0x1 PUSH1 0xA0 SHL SUB AND CALLER EQ JUMPDEST PUSH1 0x40 MLOAD DUP1 PUSH1 0x40 ADD PUSH1 0x40 MSTORE DUP1 PUSH1 0x13 DUP2 MSTORE PUSH1 0x20 ADD PUSH19 0x155CD95C881B9BDD08105D5D1A1BDC9A5E9959 PUSH1 0x6A SHL DUP2 MSTORE POP SWAP1 PUSH2 0x961 JUMPI PUSH1 0x40 MLOAD PUSH3 0x461BCD PUSH1 0xE5 SHL DUP2 MSTORE PUSH1 0x4 ADD PUSH2 0x5C0 SWAP2 SWAP1 PUSH2 0x1160 JUMP JUMPDEST DUP1 SELFBALANCE LT ISZERO PUSH2 0xA34 JUMPI PUSH1 0x40 MLOAD PUSH3 0x461BCD PUSH1 0xE5 SHL DUP2 MSTORE PUSH1 0x20 PUSH1 0x4 DUP3 ADD MSTORE PUSH1 0x1D PUSH1 0x24 DUP3 ADD MSTORE PUSH32 0x416464726573733A20696E73756666696369656E742062616C616E6365000000 PUSH1 0x44 DUP3 ADD MSTORE PUSH1 0x64 ADD PUSH2 0x5C0 JUMP JUMPDEST PUSH1 0x0 DUP3 PUSH1 0x1 PUSH1 0x1 PUSH1 0xA0 SHL SUB AND DUP3 PUSH1 0x40 MLOAD PUSH1 0x0 PUSH1 0x40 MLOAD DUP1 DUP4 SUB DUP2 DUP6 DUP8 GAS CALL SWAP3 POP POP POP RETURNDATASIZE DUP1 PUSH1 0x0 DUP2 EQ PUSH2 0xA81 JUMPI PUSH1 0x40 MLOAD SWAP2 POP PUSH1 0x1F NOT PUSH1 0x3F RETURNDATASIZE ADD AND DUP3 ADD PUSH1 0x40 MSTORE RETURNDATASIZE DUP3 MSTORE RETURNDATASIZE PUSH1 0x0 PUSH1 0x20 DUP5 ADD RETURNDATACOPY PUSH2 0xA86 JUMP JUMPDEST PUSH1 0x60 SWAP2 POP JUMPDEST POP POP SWAP1 POP DUP1 PUSH2 0xAFD JUMPI PUSH1 0x40 MLOAD PUSH3 0x461BCD PUSH1 0xE5 SHL DUP2 MSTORE PUSH1 0x20 PUSH1 0x4 DUP3 ADD MSTORE PUSH1 0x3A PUSH1 0x24 DUP3 ADD MSTORE PUSH32 0x416464726573733A20756E61626C6520746F2073656E642076616C75652C2072 PUSH1 0x44 DUP3 ADD MSTORE PUSH32 0x6563697069656E74206D61792068617665207265766572746564000000000000 PUSH1 0x64 DUP3 ADD MSTORE PUSH1 0x84 ADD PUSH2 0x5C0 JUMP JUMPDEST POP POP POP JUMP JUMPDEST PUSH1 0x0 SLOAD PUSH1 0xFF AND ISZERO PUSH2 0xB48 JUMPI PUSH1 0x40 MLOAD PUSH3 0x461BCD PUSH1 0xE5 SHL DUP2 MSTORE PUSH1 0x20 PUSH1 0x4 DUP3 ADD MSTORE PUSH1 0x10 PUSH1 0x24 DUP3 ADD MSTORE PUSH16 0x14185D5CD8589B194E881C185D5CD959 PUSH1 0x82 SHL PUSH1 0x44 DUP3 ADD MSTORE PUSH1 0x64 ADD PUSH2 0x5C0 JUMP JUMPDEST PUSH1 0x0 DUP1 SLOAD PUSH1 0xFF NOT AND PUSH1 0x1 OR SWAP1 SSTORE PUSH32 0x62E78CEA01BEE320CD4E420270B5EA74000D11B0C9F74754EBDBFC544B05A258 PUSH2 0xB7D CALLER SWAP1 JUMP JUMPDEST PUSH1 0x40 MLOAD PUSH1 0x1 PUSH1 0x1 PUSH1 0xA0 SHL SUB SWAP1 SWAP2 AND DUP2 MSTORE PUSH1 0x20 ADD PUSH1 0x40 MLOAD DUP1 SWAP2 SUB SWAP1 LOG1 JUMP JUMPDEST PUSH1 0x0 SLOAD PUSH1 0xFF AND ISZERO PUSH2 0xBE0 JUMPI PUSH1 0x40 MLOAD PUSH3 0x461BCD PUSH1 0xE5 SHL DUP2 MSTORE PUSH1 0x20 PUSH1 0x4 DUP3 ADD MSTORE PUSH1 0x10 PUSH1 0x24 DUP3 ADD MSTORE PUSH16 0x14185D5CD8589B194E881C185D5CD959 PUSH1 0x82 SHL PUSH1 0x44 DUP3 ADD MSTORE PUSH1 0x64 ADD PUSH2 0x5C0 JUMP JUMPDEST PUSH1 0x1 SLOAD PUSH1 0x40 DUP1 MLOAD DUP1 DUP3 ADD SWAP1 SWAP2 MSTORE PUSH1 0x13 DUP2 MSTORE PUSH19 0x155CD95C881B9BDD08105D5D1A1BDC9A5E9959 PUSH1 0x6A SHL PUSH1 0x20 DUP3 ADD MSTORE SWAP1 PUSH1 0x1 PUSH1 0x1 PUSH1 0xA0 SHL SUB AND CALLER EQ PUSH2 0x961 JUMPI PUSH1 0x40 MLOAD PUSH3 0x461BCD PUSH1 0xE5 SHL DUP2 MSTORE PUSH1 0x4 ADD PUSH2 0x5C0 SWAP2 SWAP1 PUSH2 0x1160 JUMP JUMPDEST PUSH1 0x1 PUSH1 0x1 PUSH1 0xA0 SHL SUB DUP2 AND PUSH2 0x961 JUMPI PUSH1 0x40 MLOAD PUSH3 0x461BCD PUSH1 0xE5 SHL DUP2 MSTORE PUSH1 0x20 PUSH1 0x4 DUP3 ADD MSTORE PUSH1 0x18 PUSH1 0x24 DUP3 ADD MSTORE PUSH32 0x5A65726F2041646472657373204E6F7420416C6C6F7765640000000000000000 PUSH1 0x44 DUP3 ADD MSTORE PUSH1 0x64 ADD PUSH2 0x5C0 JUMP JUMPDEST PUSH1 0x0 SLOAD PUSH1 0xFF AND PUSH2 0xCD5 JUMPI PUSH1 0x40 MLOAD PUSH3 0x461BCD PUSH1 0xE5 SHL DUP2 MSTORE PUSH1 0x20 PUSH1 0x4 DUP3 ADD MSTORE PUSH1 0x14 PUSH1 0x24 DUP3 ADD MSTORE PUSH20 0x14185D5CD8589B194E881B9BDD081C185D5CD959 PUSH1 0x62 SHL PUSH1 0x44 DUP3 ADD MSTORE PUSH1 0x64 ADD PUSH2 0x5C0 JUMP JUMPDEST PUSH1 0x0 DUP1 SLOAD PUSH1 0xFF NOT AND SWAP1 SSTORE PUSH32 0x5DB9EE0A495BF2E6FF9C91A7834C1BA4FDD244A5E8AA4E537BD38AEAE4B073AA CALLER PUSH2 0xB7D JUMP JUMPDEST PUSH1 0x60 DUP3 SELFBALANCE LT ISZERO PUSH2 0xD67 JUMPI PUSH1 0x40 MLOAD PUSH3 0x461BCD PUSH1 0xE5 SHL DUP2 MSTORE PUSH1 0x20 PUSH1 0x4 DUP3 ADD MSTORE PUSH1 0x26 PUSH1 0x24 DUP3 ADD MSTORE PUSH32 0x416464726573733A20696E73756666696369656E742062616C616E636520666F PUSH1 0x44 DUP3 ADD MSTORE PUSH6 0x1C8818D85B1B PUSH1 0xD2 SHL PUSH1 0x64 DUP3 ADD MSTORE PUSH1 0x84 ADD PUSH2 0x5C0 JUMP JUMPDEST DUP5 EXTCODESIZE PUSH2 0xDB5 JUMPI PUSH1 0x40 MLOAD PUSH3 0x461BCD PUSH1 0xE5 SHL DUP2 MSTORE PUSH1 0x20 PUSH1 0x4 DUP3 ADD MSTORE PUSH1 0x1D PUSH1 0x24 DUP3 ADD MSTORE PUSH32 0x416464726573733A2063616C6C20746F206E6F6E2D636F6E7472616374000000 PUSH1 0x44 DUP3 ADD MSTORE PUSH1 0x64 ADD PUSH2 0x5C0 JUMP JUMPDEST PUSH1 0x0 DUP1 DUP7 PUSH1 0x1 PUSH1 0x1 PUSH1 0xA0 SHL SUB AND DUP6 DUP8 PUSH1 0x40 MLOAD PUSH2 0xDD1 SWAP2 SWAP1 PUSH2 0x1144 JUMP JUMPDEST PUSH1 0x0 PUSH1 0x40 MLOAD DUP1 DUP4 SUB DUP2 DUP6 DUP8 GAS CALL SWAP3 POP POP POP RETURNDATASIZE DUP1 PUSH1 0x0 DUP2 EQ PUSH2 0xE0E JUMPI PUSH1 0x40 MLOAD SWAP2 POP PUSH1 0x1F NOT PUSH1 0x3F RETURNDATASIZE ADD AND DUP3 ADD PUSH1 0x40 MSTORE RETURNDATASIZE DUP3 MSTORE RETURNDATASIZE PUSH1 0x0 PUSH1 0x20 DUP5 ADD RETURNDATACOPY PUSH2 0xE13 JUMP JUMPDEST PUSH1 0x60 SWAP2 POP JUMPDEST POP SWAP2 POP SWAP2 POP PUSH2 0xE23 DUP3 DUP3 DUP7 PUSH2 0xEF0 JUMP JUMPDEST SWAP8 SWAP7 POP POP POP POP POP POP POP JUMP JUMPDEST PUSH1 0x40 MLOAD PUSH4 0x70A08231 PUSH1 0xE0 SHL DUP2 MSTORE ADDRESS PUSH1 0x4 DUP3 ADD MSTORE DUP2 SWAP1 PUSH1 0x1 PUSH1 0x1 PUSH1 0xA0 SHL SUB DUP5 AND SWAP1 PUSH4 0x70A08231 SWAP1 PUSH1 0x24 ADD PUSH1 0x20 PUSH1 0x40 MLOAD DUP1 DUP4 SUB DUP2 DUP7 DUP1 EXTCODESIZE ISZERO DUP1 ISZERO PUSH2 0xE6F JUMPI PUSH1 0x0 DUP1 REVERT JUMPDEST POP GAS STATICCALL ISZERO DUP1 ISZERO PUSH2 0xE83 JUMPI RETURNDATASIZE PUSH1 0x0 DUP1 RETURNDATACOPY RETURNDATASIZE PUSH1 0x0 REVERT JUMPDEST POP POP POP POP PUSH1 0x40 MLOAD RETURNDATASIZE PUSH1 0x1F NOT PUSH1 0x1F DUP3 ADD AND DUP3 ADD DUP1 PUSH1 0x40 MSTORE POP DUP2 ADD SWAP1 PUSH2 0xEA7 SWAP2 SWAP1 PUSH2 0x112B JUMP JUMPDEST LT ISZERO PUSH2 0xEEC JUMPI PUSH1 0x40 MLOAD PUSH3 0x461BCD PUSH1 0xE5 SHL DUP2 MSTORE PUSH1 0x20 PUSH1 0x4 DUP3 ADD MSTORE PUSH1 0x14 PUSH1 0x24 DUP3 ADD MSTORE PUSH20 0x496E73756666696369656E742062616C616E6365 PUSH1 0x60 SHL PUSH1 0x44 DUP3 ADD MSTORE PUSH1 0x64 ADD PUSH2 0x5C0 JUMP JUMPDEST POP POP JUMP JUMPDEST PUSH1 0x60 DUP4 ISZERO PUSH2 0xEFF JUMPI POP DUP2 PUSH2 0xF29 JUMP JUMPDEST DUP3 MLOAD ISZERO PUSH2 0xF0F JUMPI DUP3 MLOAD DUP1 DUP5 PUSH1 0x20 ADD REVERT JUMPDEST DUP2 PUSH1 0x40 MLOAD PUSH3 0x461BCD PUSH1 0xE5 SHL DUP2 MSTORE PUSH1 0x4 ADD PUSH2 0x5C0 SWAP2 SWAP1 PUSH2 0x1160 JUMP JUMPDEST SWAP4 SWAP3 POP POP POP JUMP JUMPDEST PUSH1 0x0 DUP3 PUSH1 0x1F DUP4 ADD SLT PUSH2 0xF41 JUMPI PUSH1 0x0 DUP1 REVERT JUMPDEST DUP2 CALLDATALOAD PUSH8 0xFFFFFFFFFFFFFFFF DUP1 DUP3 GT ISZERO PUSH2 0xF5C JUMPI PUSH2 0xF5C PUSH2 0x11C3 JUMP JUMPDEST PUSH1 0x40 MLOAD PUSH1 0x1F DUP4 ADD PUSH1 0x1F NOT SWAP1 DUP2 AND PUSH1 0x3F ADD AND DUP2 ADD SWAP1 DUP3 DUP3 GT DUP2 DUP4 LT OR ISZERO PUSH2 0xF84 JUMPI PUSH2 0xF84 PUSH2 0x11C3 JUMP JUMPDEST DUP2 PUSH1 0x40 MSTORE DUP4 DUP2 MSTORE DUP7 PUSH1 0x20 DUP6 DUP9 ADD ADD GT ISZERO PUSH2 0xF9D JUMPI PUSH1 0x0 DUP1 REVERT JUMPDEST DUP4 PUSH1 0x20 DUP8 ADD PUSH1 0x20 DUP4 ADD CALLDATACOPY PUSH1 0x0 PUSH1 0x20 DUP6 DUP4 ADD ADD MSTORE DUP1 SWAP5 POP POP POP POP POP SWAP3 SWAP2 POP POP JUMP JUMPDEST PUSH1 0x0 PUSH1 0x20 DUP3 DUP5 SUB SLT ISZERO PUSH2 0xFCF JUMPI PUSH1 0x0 DUP1 REVERT JUMPDEST DUP2 CALLDATALOAD PUSH2 0xF29 DUP2 PUSH2 0x11D9 JUMP JUMPDEST PUSH1 0x0 DUP1 PUSH1 0x40 DUP4 DUP6 SUB SLT ISZERO PUSH2 0xFED JUMPI PUSH1 0x0 DUP1 REVERT JUMPDEST DUP3 CALLDATALOAD PUSH2 0xFF8 DUP2 PUSH2 0x11D9 JUMP JUMPDEST SWAP5 PUSH1 0x20 SWAP4 SWAP1 SWAP4 ADD CALLDATALOAD SWAP4 POP POP POP JUMP JUMPDEST PUSH1 0x0 DUP1 PUSH1 0x0 PUSH1 0x60 DUP5 DUP7 SUB SLT ISZERO PUSH2 0x101B JUMPI PUSH1 0x0 DUP1 REVERT JUMPDEST DUP4 CALLDATALOAD PUSH2 0x1026 DUP2 PUSH2 0x11D9 JUMP JUMPDEST SWAP3 POP PUSH1 0x20 DUP5 ADD CALLDATALOAD PUSH2 0x1036 DUP2 PUSH2 0x11D9 JUMP JUMPDEST SWAP3 SWAP6 SWAP3 SWAP5 POP POP POP PUSH1 0x40 SWAP2 SWAP1 SWAP2 ADD CALLDATALOAD SWAP1 JUMP JUMPDEST PUSH1 0x0 DUP1 PUSH1 0x40 DUP4 DUP6 SUB SLT ISZERO PUSH2 0x105A JUMPI PUSH1 0x0 DUP1 REVERT JUMPDEST DUP3 CALLDATALOAD PUSH2 0x1065 DUP2 PUSH2 0x11D9 JUMP JUMPDEST SWAP2 POP PUSH1 0x20 DUP4 ADD CALLDATALOAD PUSH8 0xFFFFFFFFFFFFFFFF DUP2 GT ISZERO PUSH2 0x1081 JUMPI PUSH1 0x0 DUP1 REVERT JUMPDEST PUSH2 0x108D DUP6 DUP3 DUP7 ADD PUSH2 0xF30 JUMP JUMPDEST SWAP2 POP POP SWAP3 POP SWAP3 SWAP1 POP JUMP JUMPDEST PUSH1 0x0 DUP1 PUSH1 0x0 PUSH1 0x60 DUP5 DUP7 SUB SLT ISZERO PUSH2 0x10AC JUMPI PUSH1 0x0 DUP1 REVERT JUMPDEST DUP4 CALLDATALOAD PUSH2 0x10B7 DUP2 PUSH2 0x11D9 JUMP JUMPDEST SWAP3 POP PUSH1 0x20 DUP5 ADD CALLDATALOAD PUSH8 0xFFFFFFFFFFFFFFFF DUP2 GT ISZERO PUSH2 0x10D3 JUMPI PUSH1 0x0 DUP1 REVERT JUMPDEST PUSH2 0x10DF DUP7 DUP3 DUP8 ADD PUSH2 0xF30 JUMP JUMPDEST SWAP3 POP POP PUSH1 0x40 DUP5 ADD CALLDATALOAD SWAP1 POP SWAP3 POP SWAP3 POP SWAP3 JUMP JUMPDEST PUSH1 0x0 PUSH1 0x20 DUP3 DUP5 SUB SLT ISZERO PUSH2 0x1102 JUMPI PUSH1 0x0 DUP1 REVERT JUMPDEST DUP2 MLOAD DUP1 ISZERO ISZERO DUP2 EQ PUSH2 0xF29 JUMPI PUSH1 0x0 DUP1 REVERT JUMPDEST PUSH1 0x0 PUSH1 0x20 DUP3 DUP5 SUB SLT ISZERO PUSH2 0x1124 JUMPI PUSH1 0x0 DUP1 REVERT JUMPDEST POP CALLDATALOAD SWAP2 SWAP1 POP JUMP JUMPDEST PUSH1 0x0 PUSH1 0x20 DUP3 DUP5 SUB SLT ISZERO PUSH2 0x113D JUMPI PUSH1 0x0 DUP1 REVERT JUMPDEST POP MLOAD SWAP2 SWAP1 POP JUMP JUMPDEST PUSH1 0x0 DUP3 MLOAD PUSH2 0x1156 DUP2 DUP5 PUSH1 0x20 DUP8 ADD PUSH2 0x1193 JUMP JUMPDEST SWAP2 SWAP1 SWAP2 ADD SWAP3 SWAP2 POP POP JUMP JUMPDEST PUSH1 0x20 DUP2 MSTORE PUSH1 0x0 DUP3 MLOAD DUP1 PUSH1 0x20 DUP5 ADD MSTORE PUSH2 0x117F DUP2 PUSH1 0x40 DUP6 ADD PUSH1 0x20 DUP8 ADD PUSH2 0x1193 JUMP JUMPDEST PUSH1 0x1F ADD PUSH1 0x1F NOT AND SWAP2 SWAP1 SWAP2 ADD PUSH1 0x40 ADD SWAP3 SWAP2 POP POP JUMP JUMPDEST PUSH1 0x0 JUMPDEST DUP4 DUP2 LT ISZERO PUSH2 0x11AE JUMPI DUP2 DUP2 ADD MLOAD DUP4 DUP3 ADD MSTORE PUSH1 0x20 ADD PUSH2 0x1196 JUMP JUMPDEST DUP4 DUP2 GT ISZERO PUSH2 0x11BD JUMPI PUSH1 0x0 DUP5 DUP5 ADD MSTORE JUMPDEST POP POP POP POP JUMP JUMPDEST PUSH4 0x4E487B71 PUSH1 0xE0 SHL PUSH1 0x0 MSTORE PUSH1 0x41 PUSH1 0x4 MSTORE PUSH1 0x24 PUSH1 0x0 REVERT JUMPDEST PUSH1 0x1 PUSH1 0x1 PUSH1 0xA0 SHL SUB DUP2 AND DUP2 EQ PUSH2 0x961 JUMPI PUSH1 0x0 DUP1 REVERT INVALID DUP16 PUSH18 0x84268EABC3E5F95D42873237E44E84D2CB27 0xBA 0xA7 CALLDATALOAD DUP11 0xC4 INVALID MULMOD DUP14 0x4D 0xFB LOG2 0xED LOG2 PUSH5 0x6970667358 0x22 SLT KECCAK256 ADDMOD 0xFB BLOCKHASH 0x4E MSTORE 0xC4 0xAA PUSH22 0x23913D2296BCCF785BAEECD61B204EBD81CFC2F1072 DIFFICULTY 0xD4 PUSH5 0x736F6C6343 STOP ADDMOD MOD STOP CALLER ",
  "sha1": "49f694b5fc0e2d4de2df1a34803e5e9b743f6579",
  "source": "//SPDX-License-Identifier: BUSL-1.1\npragma solidity ^0.8.0;\n\nimport {Address} from \"@openzeppelin/contracts/utils/Address.sol\";\n\nimport \"@openzeppelin/contracts/token/ERC20/IERC20.sol\";\nimport \"@openzeppelin/contracts/security/Pausable.sol\";\n\n\n//Pausable.sol - https://github.com/OpenZeppelin/openzeppelin-contracts/blob/master/contracts/security/Pausable.sol\n//Address.sol - https://github.com/OpenZeppelin/openzeppelin-contracts/blob/master/contracts/utils/Address.sol\n\ncontract SEGA_v112 is Pausable {\n    \n    address payable private parentVault;\n    address private trader;\n\n    uint256 constant public version = 10102;\n\n    string constant noAccess = \"User not Authorized\";\n    string constant txnFail = \"Transaction Failed\";\n\n    //Events\n        \n    event Received(address indexed _from, uint amount);\n    \n    event SentOutAssets(address indexed _to, address indexed _token, uint256 _amount);\n    event ApprovedTokensOut(address indexed _to, address indexed _token, uint256 _amount);\n\n    event SmartContractCall(address indexed _SC, bytes4 indexed _method, uint256 _value);\n    event SegaTraderChanged(address newTrader);\n    \n    /*********************************************\n    Modifiers\n    *********************************************/\n\n   modifier isParentVault() {\n        _isParentVault();\n        _;\n    }    \n        \n    modifier isTrader() {\n        _isTrader();\n        _;\n    } \n    \n    modifier isVaultOrTrader() {\n        _isVaultOrTrader();\n        _;\n    }\n\n    function _isParentVault() internal view {\n        require(msg.sender == parentVault, noAccess);\n    }    \n        \n    function _isTrader() whenNotPaused internal view {\n        require(msg.sender == trader, noAccess);\n    } \n    \n    function _isVaultOrTrader() internal view {\n        require( msg.sender == parentVault ||\n                (!paused() && msg.sender == trader),\n         noAccess\n        );\n    }\n\n    function _notZero(address _address) internal pure {\n        require (_address != address(0), \"Zero Address Not Allowed\");\n    }\n\n    function _enoughBalance(IERC20 _token, uint256 _amount) internal view {\n        require(_token.balanceOf(address(this)) >= _amount, \"Insufficient balance\");\n    }\n       \n    /*******************************************\n     Constructor, Recieve, Fallback\n     *******************************************/\n     \n    constructor(address _parentVault, address _owner) {\n        parentVault = payable(_parentVault);\n        trader = _owner;\n    }\n    \n    receive() external payable {\n        emit Received(msg.sender, msg.value);\n    }\n    \n    fallback() external payable {\n        if (msg.value > 0) {\n            emit Received(msg.sender, msg.value);\n        }\n    }\n    \n    /*------------------------------------------\n    Functions called by ParentVault - Owner/ROs\n    ------------------------------------------*/\n      \n    /***************************\n    Vault Issued Admin Functions\n    ***************************/\n    \n    //-----To Pause & Unpause Account Transfers-----//\n\n    function pauseTransfers() external isParentVault {\n        _pause();\n    }\n    function unpauseTransfers() external isParentVault {\n        _unpause();\n    }\n\n    //-----To Change Prime Trader & AMs-----//\n\n    function changeTrader (address _newTrader) external isParentVault {\n        trader = _newTrader;\n        emit SegaTraderChanged(_newTrader);\n    }\n    \n    /*--------------------------------------------\n    Return of Account Balances to Parent Vault\n    ----------------------------------------------*/\n    \n    // to withdraw ETH back to Parent Vault\n    function returnToVault(uint256 _amount) public isVaultOrTrader {\n        Address.sendValue(parentVault, _amount);\n        emit SentOutAssets(parentVault, address(0), _amount);\n    }\n    \n    // to withdraw Tokens back to Parent Vault\n    function returnToVault(address _token, uint256 _amount) public isVaultOrTrader {\n        _notZero(_token);\n        IERC20 Token = IERC20(_token);\n        _enoughBalance(Token, _amount);\n        bool success = Token.transfer(parentVault,_amount);\n        require(success, txnFail);\n        emit SentOutAssets(parentVault, _token, _amount);\n    }\n\n\n    /*------------------------------------------\n     Trader Execution Functions\n     ------------------------------------------*/\n    \n    /*********************************************\n    Simple Transfer of ETH && Transfer-Approve of ERC20\n    *********************************************/\n    \n    //Transfering Eth to allowed counterparties\n    function sendNativeAssets(address payable receiver, uint256 amount) public isTrader {\n        _notZero(receiver);\n        Address.sendValue(receiver, amount);\n        emit SentOutAssets(receiver, address(0), amount);\n    }\n    \n    // Transferring & Approving allowed Tokens to allowed Counterparties\n    \n    function sendTokenAssets(address receiver, address _token, uint256 amount) public isTrader {\n        _notZero(_token);\n        _notZero(receiver);\n        IERC20 Token = IERC20(_token);\n        _enoughBalance(Token, amount);\n        bool success = Token.transfer(receiver, amount);\n        require(success, txnFail);\n        emit SentOutAssets(receiver, _token, amount);\n    }\n    \n    function tokenApprove(address spender, address _token, uint256 amount) public isTrader {\n        _notZero(_token);\n        _notZero(spender);\n        IERC20 Token = IERC20(_token);\n        bool success = Token.approve(spender, amount);\n        require(success, txnFail);\n        emit ApprovedTokensOut(spender, _token, amount);\n    }\n\n    /*********************************************\n    Smart Contract Interactions by trader\n    *********************************************/\n    \n    function callSC(address smartContract, bytes memory data) public isTrader {\n        Address.functionCallWithValue(smartContract, data, 0, txnFail);\n        bytes4 method = getMethod(data);\n        emit SmartContractCall(smartContract, method, 0);\n    }\n    \n    function callSC(address smartContract, bytes memory data, uint256 _value) public isTrader {\n        Address.functionCallWithValue(smartContract, data, _value, txnFail);\n        bytes4 method = getMethod(data);\n        emit SmartContractCall(smartContract, method, _value);\n    }\n\n    /*********************************************\n    Internal Utilities\n    *********************************************/\n\n    function getMethod(bytes memory _data) internal pure returns (bytes4 M) {\n        assembly {\n            let a := add(_data,32)\n            M := mload(a)\n        }\n    }\n\n    function getInfo() public view returns (address, address, bool) {\n        return (parentVault, trader, !(paused()));\n    }\n\n}",
  "sourcePath": "contracts/4_Sega_v112.sol",
  "type": "contract"
}