{
  "abi": [
    {
      "inputs": [
        {
          "internalType": "address",
          "name": "_RCU",
          "type": "address"
        },
        {
          "internalType": "address",
          "name": "_owner",
          "type": "address"
        },
        {
          "internalType": "address",
          "name": "_segaFact",
          "type": "address"
        }
      ],
      "stateMutability": "nonpayable",
      "type": "constructor"
    },
    {
      "anonymous": false,
      "inputs": [
        {
          "indexed": false,
          "internalType": "address",
          "name": "_backup",
          "type": "address"
        }
      ],
      "name": "ChangedBackup",
      "type": "event"
    },
    {
      "anonymous": false,
      "inputs": [
        {
          "indexed": false,
          "internalType": "uint256",
          "name": "",
          "type": "uint256"
        }
      ],
      "name": "ChangedInactiveTime",
      "type": "event"
    },
    {
      "anonymous": false,
      "inputs": [
        {
          "indexed": false,
          "internalType": "address",
          "name": "newSega",
          "type": "address"
        }
      ],
      "name": "NewSegaCreated",
      "type": "event"
    },
    {
      "anonymous": false,
      "inputs": [],
      "name": "OwnerIsActive",
      "type": "event"
    },
    {
      "anonymous": false,
      "inputs": [
        {
          "indexed": true,
          "internalType": "address",
          "name": "_new",
          "type": "address"
        },
        {
          "indexed": true,
          "internalType": "address",
          "name": "_old",
          "type": "address"
        }
      ],
      "name": "OwnershipTransfered",
      "type": "event"
    },
    {
      "anonymous": false,
      "inputs": [
        {
          "indexed": false,
          "internalType": "address",
          "name": "",
          "type": "address"
        },
        {
          "indexed": false,
          "internalType": "uint256",
          "name": "",
          "type": "uint256"
        }
      ],
      "name": "Received",
      "type": "event"
    },
    {
      "anonymous": false,
      "inputs": [
        {
          "indexed": true,
          "internalType": "address",
          "name": "_sega",
          "type": "address"
        },
        {
          "indexed": true,
          "internalType": "uint8",
          "name": "onOff",
          "type": "uint8"
        }
      ],
      "name": "SegaFrozen",
      "type": "event"
    },
    {
      "anonymous": false,
      "inputs": [
        {
          "indexed": true,
          "internalType": "address",
          "name": "_sega",
          "type": "address"
        },
        {
          "indexed": true,
          "internalType": "address",
          "name": "_token",
          "type": "address"
        },
        {
          "indexed": false,
          "internalType": "uint256",
          "name": "_amount",
          "type": "uint256"
        }
      ],
      "name": "SegaRecall",
      "type": "event"
    },
    {
      "anonymous": false,
      "inputs": [
        {
          "indexed": true,
          "internalType": "address",
          "name": "_sega",
          "type": "address"
        },
        {
          "indexed": false,
          "internalType": "address",
          "name": "newTrader",
          "type": "address"
        }
      ],
      "name": "SegaTraderChanged",
      "type": "event"
    },
    {
      "anonymous": false,
      "inputs": [
        {
          "indexed": true,
          "internalType": "address",
          "name": "_to",
          "type": "address"
        },
        {
          "indexed": true,
          "internalType": "address",
          "name": "_token",
          "type": "address"
        },
        {
          "indexed": false,
          "internalType": "uint256",
          "name": "_amount",
          "type": "uint256"
        }
      ],
      "name": "SentOutAssets",
      "type": "event"
    },
    {
      "stateMutability": "payable",
      "type": "fallback"
    },
    {
      "inputs": [],
      "name": "RCU",
      "outputs": [
        {
          "internalType": "address",
          "name": "",
          "type": "address"
        }
      ],
      "stateMutability": "view",
      "type": "function"
    },
    {
      "inputs": [
        {
          "internalType": "address",
          "name": "_sega",
          "type": "address"
        },
        {
          "internalType": "address",
          "name": "_token",
          "type": "address"
        },
        {
          "internalType": "uint256",
          "name": "_amount",
          "type": "uint256"
        }
      ],
      "name": "RecallErcFromSega",
      "outputs": [],
      "stateMutability": "nonpayable",
      "type": "function"
    },
    {
      "inputs": [
        {
          "internalType": "address",
          "name": "_sega",
          "type": "address"
        },
        {
          "internalType": "uint256",
          "name": "_amount",
          "type": "uint256"
        }
      ],
      "name": "RecallNativeFromSega",
      "outputs": [],
      "stateMutability": "nonpayable",
      "type": "function"
    },
    {
      "inputs": [
        {
          "internalType": "address",
          "name": "_sega",
          "type": "address"
        },
        {
          "internalType": "address",
          "name": "_newTrader",
          "type": "address"
        }
      ],
      "name": "changeTrader",
      "outputs": [],
      "stateMutability": "nonpayable",
      "type": "function"
    },
    {
      "inputs": [],
      "name": "claimVault",
      "outputs": [],
      "stateMutability": "nonpayable",
      "type": "function"
    },
    {
      "inputs": [
        {
          "internalType": "address",
          "name": "_segaFactory",
          "type": "address"
        },
        {
          "internalType": "uint256",
          "name": "index",
          "type": "uint256"
        }
      ],
      "name": "createCustomSega",
      "outputs": [
        {
          "internalType": "address",
          "name": "",
          "type": "address"
        }
      ],
      "stateMutability": "nonpayable",
      "type": "function"
    },
    {
      "inputs": [],
      "name": "createNewSega",
      "outputs": [
        {
          "internalType": "address",
          "name": "",
          "type": "address"
        }
      ],
      "stateMutability": "nonpayable",
      "type": "function"
    },
    {
      "inputs": [],
      "name": "getRecoveryInfo",
      "outputs": [
        {
          "internalType": "address",
          "name": "",
          "type": "address"
        },
        {
          "internalType": "address",
          "name": "",
          "type": "address"
        },
        {
          "internalType": "uint256",
          "name": "",
          "type": "uint256"
        },
        {
          "internalType": "uint256",
          "name": "",
          "type": "uint256"
        }
      ],
      "stateMutability": "view",
      "type": "function"
    },
    {
      "inputs": [
        {
          "internalType": "address",
          "name": "_sega",
          "type": "address"
        }
      ],
      "name": "pauseSega",
      "outputs": [],
      "stateMutability": "nonpayable",
      "type": "function"
    },
    {
      "inputs": [],
      "name": "segaFactory",
      "outputs": [
        {
          "internalType": "address",
          "name": "",
          "type": "address"
        }
      ],
      "stateMutability": "view",
      "type": "function"
    },
    {
      "inputs": [
        {
          "internalType": "address payable",
          "name": "receiver",
          "type": "address"
        },
        {
          "internalType": "uint256",
          "name": "amount",
          "type": "uint256"
        }
      ],
      "name": "sendNativeAssets",
      "outputs": [],
      "stateMutability": "nonpayable",
      "type": "function"
    },
    {
      "inputs": [
        {
          "internalType": "address",
          "name": "receiver",
          "type": "address"
        },
        {
          "internalType": "address",
          "name": "_token",
          "type": "address"
        },
        {
          "internalType": "uint256",
          "name": "amount",
          "type": "uint256"
        }
      ],
      "name": "sendTokenAssets",
      "outputs": [],
      "stateMutability": "nonpayable",
      "type": "function"
    },
    {
      "inputs": [
        {
          "internalType": "address",
          "name": "_backup",
          "type": "address"
        }
      ],
      "name": "setBackup",
      "outputs": [],
      "stateMutability": "nonpayable",
      "type": "function"
    },
    {
      "inputs": [
        {
          "internalType": "uint256",
          "name": "_unlockTime",
          "type": "uint256"
        }
      ],
      "name": "setUnlockPeriod",
      "outputs": [],
      "stateMutability": "nonpayable",
      "type": "function"
    },
    {
      "inputs": [
        {
          "internalType": "address",
          "name": "_sega",
          "type": "address"
        }
      ],
      "name": "unpauseSega",
      "outputs": [],
      "stateMutability": "nonpayable",
      "type": "function"
    },
    {
      "inputs": [],
      "name": "version",
      "outputs": [
        {
          "internalType": "uint256",
          "name": "",
          "type": "uint256"
        }
      ],
      "stateMutability": "view",
      "type": "function"
    },
    {
      "inputs": [],
      "name": "viewSegaList",
      "outputs": [
        {
          "internalType": "address[]",
          "name": "",
          "type": "address[]"
        }
      ],
      "stateMutability": "view",
      "type": "function"
    },
    {
      "stateMutability": "payable",
      "type": "receive"
    }
  ],
  "bytecode": "60c06040523480156200001157600080fd5b506040516200183338038062001833833981016040819052620000349162000106565b6001600160601b0319606084811b821660a05282901b16608052600080546001600160a01b0384166001600160a01b0319918216811790925560018054909116909117905561016d6003819055620000919062015180906200016b565b6200009d904262000150565b6002555050600580546001810182556000919091527f036b6384b5eca791c62761152d0c79bb0604c104a5fb6f4eb0703f3154bb3db00180546001600160a01b031916905550620001a3565b80516001600160a01b03811681146200010157600080fd5b919050565b6000806000606084860312156200011c57600080fd5b6200012784620000e9565b92506200013760208501620000e9565b91506200014760408501620000e9565b90509250925092565b600082198211156200016657620001666200018d565b500190565b60008160001904831182151516156200018857620001886200018d565b500290565b634e487b7160e01b600052601160045260246000fd5b60805160601c60a05160601c611648620001eb60003960008181610234015281816104870152610a6d01526000818161035001528181610a450152610b1b01526116486000f3fe6080604052600436106101025760003560e01c80636880aafe11610095578063aaaeba9e11610064578063aaaeba9e14610372578063ab518e6e14610387578063b7dacbf11461039c578063d04f74ea146103bc578063dfcb1dd6146103dc57610142565b80636880aafe146102ba5780636cb9fab3146102da57806389ab6fb4146102fa57806391f21da51461033e57610142565b80633709d6ba116100d15780633709d6ba146102225780633d0ddf84146102565780634011f00f1461027657806354fd4d501461029657610142565b806304abfe7c1461017f5780630dc38d51146101aa57806318024bec146101e25780631f132e331461020257610142565b3661014257604080513381523460208201527f88a5966d370b9919b20f3e2c13ff65706f196a4e32cc2c12bf57088f8852587491015b60405180910390a1005b341561017d57604080513381523460208201527f88a5966d370b9919b20f3e2c13ff65706f196a4e32cc2c12bf57088f885258749101610138565b005b34801561018b57600080fd5b506101946103fc565b6040516101a191906114f8565b60405180910390f35b3480156101b657600080fd5b506101ca6101c53660046113fe565b61045e565b6040516001600160a01b0390911681526020016101a1565b3480156101ee57600080fd5b5061017d6101fd36600461142a565b6105eb565b34801561020e57600080fd5b5061017d61021d3660046113bd565b61069d565b34801561022e57600080fd5b506101ca7f000000000000000000000000000000000000000000000000000000000000000081565b34801561026257600080fd5b5061017d6102713660046114c6565b61073d565b34801561028257600080fd5b5061017d6102913660046113bd565b610789565b3480156102a257600080fd5b506102ac61277681565b6040519081526020016101a1565b3480156102c657600080fd5b5061017d6102d53660046113fe565b610828565b3480156102e657600080fd5b5061017d6102f53660046113fe565b61097a565b34801561030657600080fd5b50600054600154600254600354604080516001600160a01b0395861681529490931660208501529183015260608201526080016101a1565b34801561034a57600080fd5b506101ca7f000000000000000000000000000000000000000000000000000000000000000081565b34801561037e57600080fd5b506101ca610a24565b34801561039357600080fd5b5061017d610be9565b3480156103a857600080fd5b5061017d6103b73660046113bd565b610ced565b3480156103c857600080fd5b5061017d6103d7366004611463565b610d4c565b3480156103e857600080fd5b5061017d6103f7366004611463565b610e98565b6060600580548060200260200160405190810160405280929190818152602001828054801561045457602002820191906000526020600020905b81546001600160a01b03168152600190910190602001808311610436575b5050505050905090565b6000610468610f68565b6040516313d1c77160e01b81526001600160a01b0384811660048301527f000000000000000000000000000000000000000000000000000000000000000016906313d1c77190602401602060405180830381600087803b1580156104cb57600080fd5b505af11580156104df573d6000803e3d6000fd5b505050506040513d601f19601f8201168201806040525081019061050391906114a4565b61050c57600080fd5b60008054604051638d42974360e01b81523060048201526001600160a01b0391821660248201526044810185905290851690638d42974390606401602060405180830381600087803b15801561056157600080fd5b505af1158015610575573d6000803e3d6000fd5b505050506040513d601f19601f8201168201806040525081019061059991906113e1565b90506105a88160056004610fc9565b6040516001600160a01b03821681527fb6ef1215893bd60ffeb9e97981aa41b2819605f61f7848a06db1f8c3aefc961b9060200160405180910390a19392505050565b6105f3610f68565b816105fd81611109565b6040516303fa141760e01b81526001600160a01b0383811660048301528416906303fa141790602401600060405180830381600087803b15801561064057600080fd5b505af1158015610654573d6000803e3d6000fd5b50506040516001600160a01b038581168252861692507f204ff20e2ccebc7aa7e2a38214aa8e974b36e1922b3588a7ff6dc21744bef4b6915060200160405180910390a2505050565b6106a5610f68565b806106af81611109565b816001600160a01b03166347af99576040518163ffffffff1660e01b8152600401600060405180830381600087803b1580156106ea57600080fd5b505af11580156106fe573d6000803e3d6000fd5b5050604051600192506001600160a01b03851691507fa0868fabaeea3e340199d1f6fa323ec391fdb4fbdbea37a7e7194fb16930d6c690600090a35050565b610745610f68565b600381905561075261119a565b6040518181527f782f38ea18a9e9e96e953be34b91022668f3809452782a1ac80d0765fe597a35906020015b60405180910390a150565b610791610f68565b8061079b81611109565b816001600160a01b0316638936a91f6040518163ffffffff1660e01b8152600401600060405180830381600087803b1580156107d657600080fd5b505af11580156107ea573d6000803e3d6000fd5b5050604051600092506001600160a01b03851691507fa0868fabaeea3e340199d1f6fa323ec391fdb4fbdbea37a7e7194fb16930d6c6908390a35050565b610830610f68565b610839826111e3565b8047101560405180604001604052806014815260200173496e73756666696369656e742042616c616e636560601b815250906108915760405162461bcd60e51b81526004016108889190611545565b60405180910390fd5b506000826001600160a01b03168260405160006040518083038185875af1925050503d80600081146108df576040519150601f19603f3d011682016040523d82523d6000602084013e6108e4565b606091505b505090508060405180604001604052806012815260200171151c985b9cd858dd1a5bdb8811985a5b195960721b815250906109325760405162461bcd60e51b81526004016108889190611545565b506040518281526000906001600160a01b038516907f8f7184268eabc3e5f95d42873237e44e84d2cb27baa7358ac4fe098d4dfba2ed906020015b60405180910390a3505050565b610982610f68565b8161098c81611109565b6040516317d85bbf60e11b8152600481018390526001600160a01b03841690632fb0b77e90602401600060405180830381600087803b1580156109ce57600080fd5b505af11580156109e2573d6000803e3d6000fd5b5050604051848152600092506001600160a01b03861691507fbe457ce8b7bcaa491415def88f108b025525279936ee1dd9ec4dc7debffcee049060200161096d565b6000610a2e610f68565b6040516313d1c77160e01b81526001600160a01b037f0000000000000000000000000000000000000000000000000000000000000000811660048301527f000000000000000000000000000000000000000000000000000000000000000016906313d1c77190602401602060405180830381600087803b158015610ab157600080fd5b505af1158015610ac5573d6000803e3d6000fd5b505050506040513d601f19601f82011682018060405250810190610ae991906114a4565b610af257600080fd5b60008054604051631937878760e31b81523060048201526001600160a01b0391821660248201527f00000000000000000000000000000000000000000000000000000000000000009091169063c9bc3c3890604401602060405180830381600087803b158015610b6157600080fd5b505af1158015610b75573d6000803e3d6000fd5b505050506040513d601f19601f82011682018060405250810190610b9991906113e1565b9050610ba88160056004610fc9565b6040516001600160a01b03821681527fb6ef1215893bd60ffeb9e97981aa41b2819605f61f7848a06db1f8c3aefc961b9060200160405180910390a1905090565b600154604080518082019091526013815272155cd95c881b9bdd08105d5d1a1bdc9a5e9959606a1b6020820152906001600160a01b03163314610c3f5760405162461bcd60e51b81526004016108889190611545565b50600254421015610c925760405162461bcd60e51b815260206004820152601e60248201527f4f776e6572206973206e6f74206465636c6172656420696e61637469766500006044820152606401610888565b600080546001546001600160a01b039081166001600160a01b031983168117845560405191909216928392917f0d18b5fd22306e373229b9439188228edca81207d1667f604daf6cef8aa3ee679190a3610cea61119a565b50565b610cf5610f68565b610cfe816112a1565b600180546001600160a01b0319166001600160a01b0383169081179091556040519081527f0adacb637d17de7895e9c7fc75f36437fd5c36d5e6e9cc83b95380f10a052f4a9060200161077e565b610d54610f68565b610d5d826112a1565b610d66836111e3565b81610d7181836112f7565b60405163a9059cbb60e01b81526001600160a01b038581166004830152602482018490526000919083169063a9059cbb90604401602060405180830381600087803b158015610dbf57600080fd5b505af1158015610dd3573d6000803e3d6000fd5b505050506040513d601f19601f82011682018060405250810190610df791906114a4565b90508060405180604001604052806012815260200171151c985b9cd858dd1a5bdb8811985a5b195960721b81525090610e435760405162461bcd60e51b81526004016108889190611545565b50836001600160a01b0316856001600160a01b03167f8f7184268eabc3e5f95d42873237e44e84d2cb27baa7358ac4fe098d4dfba2ed85604051610e8991815260200190565b60405180910390a35050505050565b610ea0610f68565b82610eaa81611109565b610eb3836112a1565b60405163d0f108eb60e01b81526001600160a01b0384811660048301526024820184905285169063d0f108eb90604401600060405180830381600087803b158015610efd57600080fd5b505af1158015610f11573d6000803e3d6000fd5b50505050826001600160a01b0316846001600160a01b03167fbe457ce8b7bcaa491415def88f108b025525279936ee1dd9ec4dc7debffcee0484604051610f5a91815260200190565b60405180910390a350505050565b600054604080518082019091526013815272155cd95c881b9bdd08105d5d1a1bdc9a5e9959606a1b6020820152906001600160a01b03163314610fbe5760405162461bcd60e51b81526004016108889190611545565b50610fc761119a565b565b6001600160a01b038316600090815260208290526040902054156110c7576001600160a01b03831660009081526020829052604081205483548491908110611013576110136115e7565b6000918252602090912001546001600160a01b0316146110675760405162461bcd60e51b815260206004820152600f60248201526e105b1c9958591e48115b98589b1959608a1b6044820152606401610888565b6001600160a01b0383166000908152602082905260409020548254849184918110611094576110946115e7565b9060005260206000200160006101000a8154816001600160a01b0302191690836001600160a01b03160217905550505050565b81546001600160a01b0384166000818152602084815260408220849055600184018655858252902090910180546001600160a01b03191690911790555b505050565b6001600160a01b038116600090815260046020526040812054600580549091908110611137576111376115e7565b6000918252602090912001546001600160a01b03161415610cea5760405162461bcd60e51b815260206004820152601960248201527f5365676120556e6b6f776e20746f2074686973205661756c74000000000000006044820152606401610888565b620151806003546111ab91906115b2565b6111b5904261159a565b6002556040517f7aa982a4520d96ed188d1997cb8420198dbfd349076824ed797a3fd39a7728a190600090a1565b6111ec816112a1565b6000546001600160a01b038281169116148061124957506001600160a01b038116600090815260046020526040812054600580549091908110611231576112316115e7565b6000918252602090912001546001600160a01b031614155b6040518060400160405280601d81526020017f5265636569766572206973206e6f74204f776e6572206f7220534547410000008152509061129d5760405162461bcd60e51b81526004016108889190611545565b5050565b6001600160a01b038116610cea5760405162461bcd60e51b815260206004820152601860248201527f5a65726f2041646472657373204e6f7420416c6c6f77656400000000000000006044820152606401610888565b6040516370a0823160e01b815230600482015281906001600160a01b038416906370a082319060240160206040518083038186803b15801561133857600080fd5b505afa15801561134c573d6000803e3d6000fd5b505050506040513d601f19601f8201168201806040525081019061137091906114df565b101560405180604001604052806014815260200173496e73756666696369656e742042616c616e636560601b815250906111045760405162461bcd60e51b81526004016108889190611545565b6000602082840312156113cf57600080fd5b81356113da816115fd565b9392505050565b6000602082840312156113f357600080fd5b81516113da816115fd565b6000806040838503121561141157600080fd5b823561141c816115fd565b946020939093013593505050565b6000806040838503121561143d57600080fd5b8235611448816115fd565b91506020830135611458816115fd565b809150509250929050565b60008060006060848603121561147857600080fd5b8335611483816115fd565b92506020840135611493816115fd565b929592945050506040919091013590565b6000602082840312156114b657600080fd5b815180151581146113da57600080fd5b6000602082840312156114d857600080fd5b5035919050565b6000602082840312156114f157600080fd5b5051919050565b6020808252825182820181905260009190848201906040850190845b818110156115395783516001600160a01b031683529284019291840191600101611514565b50909695505050505050565b600060208083528351808285015260005b8181101561157257858101830151858201604001528201611556565b81811115611584576000604083870101525b50601f01601f1916929092016040019392505050565b600082198211156115ad576115ad6115d1565b500190565b60008160001904831182151516156115cc576115cc6115d1565b500290565b634e487b7160e01b600052601160045260246000fd5b634e487b7160e01b600052603260045260246000fd5b6001600160a01b0381168114610cea57600080fdfea26469706673582212208f0a3e65561f86a994a72eef5de4d3e9cdfcd6646afc47ddaa7c55df35877e8e64736f6c63430008060033",
  "bytecodeSha1": "57909befe340b6cbc566b05b66810d13c85b7333",
  "compiler": {
    "evm_version": "istanbul",
    "optimizer": {
      "enabled": true,
      "runs": 200
    },
    "version": "0.8.6+commit.11564f7e"
  },
  "contractName": "Vault_v112",
  "language": "Solidity",
  "natspec": {
    "kind": "dev",
    "methods": {},
    "version": 1
  },
  "opcodes": "PUSH1 0x80 PUSH1 0x40 MSTORE PUSH1 0x4 CALLDATASIZE LT PUSH2 0x102 JUMPI PUSH1 0x0 CALLDATALOAD PUSH1 0xE0 SHR DUP1 PUSH4 0x6880AAFE GT PUSH2 0x95 JUMPI DUP1 PUSH4 0xAAAEBA9E GT PUSH2 0x64 JUMPI DUP1 PUSH4 0xAAAEBA9E EQ PUSH2 0x372 JUMPI DUP1 PUSH4 0xAB518E6E EQ PUSH2 0x387 JUMPI DUP1 PUSH4 0xB7DACBF1 EQ PUSH2 0x39C JUMPI DUP1 PUSH4 0xD04F74EA EQ PUSH2 0x3BC JUMPI DUP1 PUSH4 0xDFCB1DD6 EQ PUSH2 0x3DC JUMPI PUSH2 0x142 JUMP JUMPDEST DUP1 PUSH4 0x6880AAFE EQ PUSH2 0x2BA JUMPI DUP1 PUSH4 0x6CB9FAB3 EQ PUSH2 0x2DA JUMPI DUP1 PUSH4 0x89AB6FB4 EQ PUSH2 0x2FA JUMPI DUP1 PUSH4 0x91F21DA5 EQ PUSH2 0x33E JUMPI PUSH2 0x142 JUMP JUMPDEST DUP1 PUSH4 0x3709D6BA GT PUSH2 0xD1 JUMPI DUP1 PUSH4 0x3709D6BA EQ PUSH2 0x222 JUMPI DUP1 PUSH4 0x3D0DDF84 EQ PUSH2 0x256 JUMPI DUP1 PUSH4 0x4011F00F EQ PUSH2 0x276 JUMPI DUP1 PUSH4 0x54FD4D50 EQ PUSH2 0x296 JUMPI PUSH2 0x142 JUMP JUMPDEST DUP1 PUSH4 0x4ABFE7C EQ PUSH2 0x17F JUMPI DUP1 PUSH4 0xDC38D51 EQ PUSH2 0x1AA JUMPI DUP1 PUSH4 0x18024BEC EQ PUSH2 0x1E2 JUMPI DUP1 PUSH4 0x1F132E33 EQ PUSH2 0x202 JUMPI PUSH2 0x142 JUMP JUMPDEST CALLDATASIZE PUSH2 0x142 JUMPI PUSH1 0x40 DUP1 MLOAD CALLER DUP2 MSTORE CALLVALUE PUSH1 0x20 DUP3 ADD MSTORE PUSH32 0x88A5966D370B9919B20F3E2C13FF65706F196A4E32CC2C12BF57088F88525874 SWAP2 ADD JUMPDEST PUSH1 0x40 MLOAD DUP1 SWAP2 SUB SWAP1 LOG1 STOP JUMPDEST CALLVALUE ISZERO PUSH2 0x17D JUMPI PUSH1 0x40 DUP1 MLOAD CALLER DUP2 MSTORE CALLVALUE PUSH1 0x20 DUP3 ADD MSTORE PUSH32 0x88A5966D370B9919B20F3E2C13FF65706F196A4E32CC2C12BF57088F88525874 SWAP2 ADD PUSH2 0x138 JUMP JUMPDEST STOP JUMPDEST CALLVALUE DUP1 ISZERO PUSH2 0x18B JUMPI PUSH1 0x0 DUP1 REVERT JUMPDEST POP PUSH2 0x194 PUSH2 0x3FC JUMP JUMPDEST PUSH1 0x40 MLOAD PUSH2 0x1A1 SWAP2 SWAP1 PUSH2 0x14F8 JUMP JUMPDEST PUSH1 0x40 MLOAD DUP1 SWAP2 SUB SWAP1 RETURN JUMPDEST CALLVALUE DUP1 ISZERO PUSH2 0x1B6 JUMPI PUSH1 0x0 DUP1 REVERT JUMPDEST POP PUSH2 0x1CA PUSH2 0x1C5 CALLDATASIZE PUSH1 0x4 PUSH2 0x13FE JUMP JUMPDEST PUSH2 0x45E JUMP JUMPDEST PUSH1 0x40 MLOAD PUSH1 0x1 PUSH1 0x1 PUSH1 0xA0 SHL SUB SWAP1 SWAP2 AND DUP2 MSTORE PUSH1 0x20 ADD PUSH2 0x1A1 JUMP JUMPDEST CALLVALUE DUP1 ISZERO PUSH2 0x1EE JUMPI PUSH1 0x0 DUP1 REVERT JUMPDEST POP PUSH2 0x17D PUSH2 0x1FD CALLDATASIZE PUSH1 0x4 PUSH2 0x142A JUMP JUMPDEST PUSH2 0x5EB JUMP JUMPDEST CALLVALUE DUP1 ISZERO PUSH2 0x20E JUMPI PUSH1 0x0 DUP1 REVERT JUMPDEST POP PUSH2 0x17D PUSH2 0x21D CALLDATASIZE PUSH1 0x4 PUSH2 0x13BD JUMP JUMPDEST PUSH2 0x69D JUMP JUMPDEST CALLVALUE DUP1 ISZERO PUSH2 0x22E JUMPI PUSH1 0x0 DUP1 REVERT JUMPDEST POP PUSH2 0x1CA PUSH32 0x0 DUP2 JUMP JUMPDEST CALLVALUE DUP1 ISZERO PUSH2 0x262 JUMPI PUSH1 0x0 DUP1 REVERT JUMPDEST POP PUSH2 0x17D PUSH2 0x271 CALLDATASIZE PUSH1 0x4 PUSH2 0x14C6 JUMP JUMPDEST PUSH2 0x73D JUMP JUMPDEST CALLVALUE DUP1 ISZERO PUSH2 0x282 JUMPI PUSH1 0x0 DUP1 REVERT JUMPDEST POP PUSH2 0x17D PUSH2 0x291 CALLDATASIZE PUSH1 0x4 PUSH2 0x13BD JUMP JUMPDEST PUSH2 0x789 JUMP JUMPDEST CALLVALUE DUP1 ISZERO PUSH2 0x2A2 JUMPI PUSH1 0x0 DUP1 REVERT JUMPDEST POP PUSH2 0x2AC PUSH2 0x2776 DUP2 JUMP JUMPDEST PUSH1 0x40 MLOAD SWAP1 DUP2 MSTORE PUSH1 0x20 ADD PUSH2 0x1A1 JUMP JUMPDEST CALLVALUE DUP1 ISZERO PUSH2 0x2C6 JUMPI PUSH1 0x0 DUP1 REVERT JUMPDEST POP PUSH2 0x17D PUSH2 0x2D5 CALLDATASIZE PUSH1 0x4 PUSH2 0x13FE JUMP JUMPDEST PUSH2 0x828 JUMP JUMPDEST CALLVALUE DUP1 ISZERO PUSH2 0x2E6 JUMPI PUSH1 0x0 DUP1 REVERT JUMPDEST POP PUSH2 0x17D PUSH2 0x2F5 CALLDATASIZE PUSH1 0x4 PUSH2 0x13FE JUMP JUMPDEST PUSH2 0x97A JUMP JUMPDEST CALLVALUE DUP1 ISZERO PUSH2 0x306 JUMPI PUSH1 0x0 DUP1 REVERT JUMPDEST POP PUSH1 0x0 SLOAD PUSH1 0x1 SLOAD PUSH1 0x2 SLOAD PUSH1 0x3 SLOAD PUSH1 0x40 DUP1 MLOAD PUSH1 0x1 PUSH1 0x1 PUSH1 0xA0 SHL SUB SWAP6 DUP7 AND DUP2 MSTORE SWAP5 SWAP1 SWAP4 AND PUSH1 0x20 DUP6 ADD MSTORE SWAP2 DUP4 ADD MSTORE PUSH1 0x60 DUP3 ADD MSTORE PUSH1 0x80 ADD PUSH2 0x1A1 JUMP JUMPDEST CALLVALUE DUP1 ISZERO PUSH2 0x34A JUMPI PUSH1 0x0 DUP1 REVERT JUMPDEST POP PUSH2 0x1CA PUSH32 0x0 DUP2 JUMP JUMPDEST CALLVALUE DUP1 ISZERO PUSH2 0x37E JUMPI PUSH1 0x0 DUP1 REVERT JUMPDEST POP PUSH2 0x1CA PUSH2 0xA24 JUMP JUMPDEST CALLVALUE DUP1 ISZERO PUSH2 0x393 JUMPI PUSH1 0x0 DUP1 REVERT JUMPDEST POP PUSH2 0x17D PUSH2 0xBE9 JUMP JUMPDEST CALLVALUE DUP1 ISZERO PUSH2 0x3A8 JUMPI PUSH1 0x0 DUP1 REVERT JUMPDEST POP PUSH2 0x17D PUSH2 0x3B7 CALLDATASIZE PUSH1 0x4 PUSH2 0x13BD JUMP JUMPDEST PUSH2 0xCED JUMP JUMPDEST CALLVALUE DUP1 ISZERO PUSH2 0x3C8 JUMPI PUSH1 0x0 DUP1 REVERT JUMPDEST POP PUSH2 0x17D PUSH2 0x3D7 CALLDATASIZE PUSH1 0x4 PUSH2 0x1463 JUMP JUMPDEST PUSH2 0xD4C JUMP JUMPDEST CALLVALUE DUP1 ISZERO PUSH2 0x3E8 JUMPI PUSH1 0x0 DUP1 REVERT JUMPDEST POP PUSH2 0x17D PUSH2 0x3F7 CALLDATASIZE PUSH1 0x4 PUSH2 0x1463 JUMP JUMPDEST PUSH2 0xE98 JUMP JUMPDEST PUSH1 0x60 PUSH1 0x5 DUP1 SLOAD DUP1 PUSH1 0x20 MUL PUSH1 0x20 ADD PUSH1 0x40 MLOAD SWAP1 DUP2 ADD PUSH1 0x40 MSTORE DUP1 SWAP3 SWAP2 SWAP1 DUP2 DUP2 MSTORE PUSH1 0x20 ADD DUP3 DUP1 SLOAD DUP1 ISZERO PUSH2 0x454 JUMPI PUSH1 0x20 MUL DUP3 ADD SWAP2 SWAP1 PUSH1 0x0 MSTORE PUSH1 0x20 PUSH1 0x0 KECCAK256 SWAP1 JUMPDEST DUP2 SLOAD PUSH1 0x1 PUSH1 0x1 PUSH1 0xA0 SHL SUB AND DUP2 MSTORE PUSH1 0x1 SWAP1 SWAP2 ADD SWAP1 PUSH1 0x20 ADD DUP1 DUP4 GT PUSH2 0x436 JUMPI JUMPDEST POP POP POP POP POP SWAP1 POP SWAP1 JUMP JUMPDEST PUSH1 0x0 PUSH2 0x468 PUSH2 0xF68 JUMP JUMPDEST PUSH1 0x40 MLOAD PUSH4 0x13D1C771 PUSH1 0xE0 SHL DUP2 MSTORE PUSH1 0x1 PUSH1 0x1 PUSH1 0xA0 SHL SUB DUP5 DUP2 AND PUSH1 0x4 DUP4 ADD MSTORE PUSH32 0x0 AND SWAP1 PUSH4 0x13D1C771 SWAP1 PUSH1 0x24 ADD PUSH1 0x20 PUSH1 0x40 MLOAD DUP1 DUP4 SUB DUP2 PUSH1 0x0 DUP8 DUP1 EXTCODESIZE ISZERO DUP1 ISZERO PUSH2 0x4CB JUMPI PUSH1 0x0 DUP1 REVERT JUMPDEST POP GAS CALL ISZERO DUP1 ISZERO PUSH2 0x4DF JUMPI RETURNDATASIZE PUSH1 0x0 DUP1 RETURNDATACOPY RETURNDATASIZE PUSH1 0x0 REVERT JUMPDEST POP POP POP POP PUSH1 0x40 MLOAD RETURNDATASIZE PUSH1 0x1F NOT PUSH1 0x1F DUP3 ADD AND DUP3 ADD DUP1 PUSH1 0x40 MSTORE POP DUP2 ADD SWAP1 PUSH2 0x503 SWAP2 SWAP1 PUSH2 0x14A4 JUMP JUMPDEST PUSH2 0x50C JUMPI PUSH1 0x0 DUP1 REVERT JUMPDEST PUSH1 0x0 DUP1 SLOAD PUSH1 0x40 MLOAD PUSH4 0x8D429743 PUSH1 0xE0 SHL DUP2 MSTORE ADDRESS PUSH1 0x4 DUP3 ADD MSTORE PUSH1 0x1 PUSH1 0x1 PUSH1 0xA0 SHL SUB SWAP2 DUP3 AND PUSH1 0x24 DUP3 ADD MSTORE PUSH1 0x44 DUP2 ADD DUP6 SWAP1 MSTORE SWAP1 DUP6 AND SWAP1 PUSH4 0x8D429743 SWAP1 PUSH1 0x64 ADD PUSH1 0x20 PUSH1 0x40 MLOAD DUP1 DUP4 SUB DUP2 PUSH1 0x0 DUP8 DUP1 EXTCODESIZE ISZERO DUP1 ISZERO PUSH2 0x561 JUMPI PUSH1 0x0 DUP1 REVERT JUMPDEST POP GAS CALL ISZERO DUP1 ISZERO PUSH2 0x575 JUMPI RETURNDATASIZE PUSH1 0x0 DUP1 RETURNDATACOPY RETURNDATASIZE PUSH1 0x0 REVERT JUMPDEST POP POP POP POP PUSH1 0x40 MLOAD RETURNDATASIZE PUSH1 0x1F NOT PUSH1 0x1F DUP3 ADD AND DUP3 ADD DUP1 PUSH1 0x40 MSTORE POP DUP2 ADD SWAP1 PUSH2 0x599 SWAP2 SWAP1 PUSH2 0x13E1 JUMP JUMPDEST SWAP1 POP PUSH2 0x5A8 DUP2 PUSH1 0x5 PUSH1 0x4 PUSH2 0xFC9 JUMP JUMPDEST PUSH1 0x40 MLOAD PUSH1 0x1 PUSH1 0x1 PUSH1 0xA0 SHL SUB DUP3 AND DUP2 MSTORE PUSH32 0xB6EF1215893BD60FFEB9E97981AA41B2819605F61F7848A06DB1F8C3AEFC961B SWAP1 PUSH1 0x20 ADD PUSH1 0x40 MLOAD DUP1 SWAP2 SUB SWAP1 LOG1 SWAP4 SWAP3 POP POP POP JUMP JUMPDEST PUSH2 0x5F3 PUSH2 0xF68 JUMP JUMPDEST DUP2 PUSH2 0x5FD DUP2 PUSH2 0x1109 JUMP JUMPDEST PUSH1 0x40 MLOAD PUSH4 0x3FA1417 PUSH1 0xE0 SHL DUP2 MSTORE PUSH1 0x1 PUSH1 0x1 PUSH1 0xA0 SHL SUB DUP4 DUP2 AND PUSH1 0x4 DUP4 ADD MSTORE DUP5 AND SWAP1 PUSH4 0x3FA1417 SWAP1 PUSH1 0x24 ADD PUSH1 0x0 PUSH1 0x40 MLOAD DUP1 DUP4 SUB DUP2 PUSH1 0x0 DUP8 DUP1 EXTCODESIZE ISZERO DUP1 ISZERO PUSH2 0x640 JUMPI PUSH1 0x0 DUP1 REVERT JUMPDEST POP GAS CALL ISZERO DUP1 ISZERO PUSH2 0x654 JUMPI RETURNDATASIZE PUSH1 0x0 DUP1 RETURNDATACOPY RETURNDATASIZE PUSH1 0x0 REVERT JUMPDEST POP POP PUSH1 0x40 MLOAD PUSH1 0x1 PUSH1 0x1 PUSH1 0xA0 SHL SUB DUP6 DUP2 AND DUP3 MSTORE DUP7 AND SWAP3 POP PUSH32 0x204FF20E2CCEBC7AA7E2A38214AA8E974B36E1922B3588A7FF6DC21744BEF4B6 SWAP2 POP PUSH1 0x20 ADD PUSH1 0x40 MLOAD DUP1 SWAP2 SUB SWAP1 LOG2 POP POP POP JUMP JUMPDEST PUSH2 0x6A5 PUSH2 0xF68 JUMP JUMPDEST DUP1 PUSH2 0x6AF DUP2 PUSH2 0x1109 JUMP JUMPDEST DUP2 PUSH1 0x1 PUSH1 0x1 PUSH1 0xA0 SHL SUB AND PUSH4 0x47AF9957 PUSH1 0x40 MLOAD DUP2 PUSH4 0xFFFFFFFF AND PUSH1 0xE0 SHL DUP2 MSTORE PUSH1 0x4 ADD PUSH1 0x0 PUSH1 0x40 MLOAD DUP1 DUP4 SUB DUP2 PUSH1 0x0 DUP8 DUP1 EXTCODESIZE ISZERO DUP1 ISZERO PUSH2 0x6EA JUMPI PUSH1 0x0 DUP1 REVERT JUMPDEST POP GAS CALL ISZERO DUP1 ISZERO PUSH2 0x6FE JUMPI RETURNDATASIZE PUSH1 0x0 DUP1 RETURNDATACOPY RETURNDATASIZE PUSH1 0x0 REVERT JUMPDEST POP POP PUSH1 0x40 MLOAD PUSH1 0x1 SWAP3 POP PUSH1 0x1 PUSH1 0x1 PUSH1 0xA0 SHL SUB DUP6 AND SWAP2 POP PUSH32 0xA0868FABAEEA3E340199D1F6FA323EC391FDB4FBDBEA37A7E7194FB16930D6C6 SWAP1 PUSH1 0x0 SWAP1 LOG3 POP POP JUMP JUMPDEST PUSH2 0x745 PUSH2 0xF68 JUMP JUMPDEST PUSH1 0x3 DUP2 SWAP1 SSTORE PUSH2 0x752 PUSH2 0x119A JUMP JUMPDEST PUSH1 0x40 MLOAD DUP2 DUP2 MSTORE PUSH32 0x782F38EA18A9E9E96E953BE34B91022668F3809452782A1AC80D0765FE597A35 SWAP1 PUSH1 0x20 ADD JUMPDEST PUSH1 0x40 MLOAD DUP1 SWAP2 SUB SWAP1 LOG1 POP JUMP JUMPDEST PUSH2 0x791 PUSH2 0xF68 JUMP JUMPDEST DUP1 PUSH2 0x79B DUP2 PUSH2 0x1109 JUMP JUMPDEST DUP2 PUSH1 0x1 PUSH1 0x1 PUSH1 0xA0 SHL SUB AND PUSH4 0x8936A91F PUSH1 0x40 MLOAD DUP2 PUSH4 0xFFFFFFFF AND PUSH1 0xE0 SHL DUP2 MSTORE PUSH1 0x4 ADD PUSH1 0x0 PUSH1 0x40 MLOAD DUP1 DUP4 SUB DUP2 PUSH1 0x0 DUP8 DUP1 EXTCODESIZE ISZERO DUP1 ISZERO PUSH2 0x7D6 JUMPI PUSH1 0x0 DUP1 REVERT JUMPDEST POP GAS CALL ISZERO DUP1 ISZERO PUSH2 0x7EA JUMPI RETURNDATASIZE PUSH1 0x0 DUP1 RETURNDATACOPY RETURNDATASIZE PUSH1 0x0 REVERT JUMPDEST POP POP PUSH1 0x40 MLOAD PUSH1 0x0 SWAP3 POP PUSH1 0x1 PUSH1 0x1 PUSH1 0xA0 SHL SUB DUP6 AND SWAP2 POP PUSH32 0xA0868FABAEEA3E340199D1F6FA323EC391FDB4FBDBEA37A7E7194FB16930D6C6 SWAP1 DUP4 SWAP1 LOG3 POP POP JUMP JUMPDEST PUSH2 0x830 PUSH2 0xF68 JUMP JUMPDEST PUSH2 0x839 DUP3 PUSH2 0x11E3 JUMP JUMPDEST DUP1 SELFBALANCE LT ISZERO PUSH1 0x40 MLOAD DUP1 PUSH1 0x40 ADD PUSH1 0x40 MSTORE DUP1 PUSH1 0x14 DUP2 MSTORE PUSH1 0x20 ADD PUSH20 0x496E73756666696369656E742042616C616E6365 PUSH1 0x60 SHL DUP2 MSTORE POP SWAP1 PUSH2 0x891 JUMPI PUSH1 0x40 MLOAD PUSH3 0x461BCD PUSH1 0xE5 SHL DUP2 MSTORE PUSH1 0x4 ADD PUSH2 0x888 SWAP2 SWAP1 PUSH2 0x1545 JUMP JUMPDEST PUSH1 0x40 MLOAD DUP1 SWAP2 SUB SWAP1 REVERT JUMPDEST POP PUSH1 0x0 DUP3 PUSH1 0x1 PUSH1 0x1 PUSH1 0xA0 SHL SUB AND DUP3 PUSH1 0x40 MLOAD PUSH1 0x0 PUSH1 0x40 MLOAD DUP1 DUP4 SUB DUP2 DUP6 DUP8 GAS CALL SWAP3 POP POP POP RETURNDATASIZE DUP1 PUSH1 0x0 DUP2 EQ PUSH2 0x8DF JUMPI PUSH1 0x40 MLOAD SWAP2 POP PUSH1 0x1F NOT PUSH1 0x3F RETURNDATASIZE ADD AND DUP3 ADD PUSH1 0x40 MSTORE RETURNDATASIZE DUP3 MSTORE RETURNDATASIZE PUSH1 0x0 PUSH1 0x20 DUP5 ADD RETURNDATACOPY PUSH2 0x8E4 JUMP JUMPDEST PUSH1 0x60 SWAP2 POP JUMPDEST POP POP SWAP1 POP DUP1 PUSH1 0x40 MLOAD DUP1 PUSH1 0x40 ADD PUSH1 0x40 MSTORE DUP1 PUSH1 0x12 DUP2 MSTORE PUSH1 0x20 ADD PUSH18 0x151C985B9CD858DD1A5BDB8811985A5B1959 PUSH1 0x72 SHL DUP2 MSTORE POP SWAP1 PUSH2 0x932 JUMPI PUSH1 0x40 MLOAD PUSH3 0x461BCD PUSH1 0xE5 SHL DUP2 MSTORE PUSH1 0x4 ADD PUSH2 0x888 SWAP2 SWAP1 PUSH2 0x1545 JUMP JUMPDEST POP PUSH1 0x40 MLOAD DUP3 DUP2 MSTORE PUSH1 0x0 SWAP1 PUSH1 0x1 PUSH1 0x1 PUSH1 0xA0 SHL SUB DUP6 AND SWAP1 PUSH32 0x8F7184268EABC3E5F95D42873237E44E84D2CB27BAA7358AC4FE098D4DFBA2ED SWAP1 PUSH1 0x20 ADD JUMPDEST PUSH1 0x40 MLOAD DUP1 SWAP2 SUB SWAP1 LOG3 POP POP POP JUMP JUMPDEST PUSH2 0x982 PUSH2 0xF68 JUMP JUMPDEST DUP2 PUSH2 0x98C DUP2 PUSH2 0x1109 JUMP JUMPDEST PUSH1 0x40 MLOAD PUSH4 0x17D85BBF PUSH1 0xE1 SHL DUP2 MSTORE PUSH1 0x4 DUP2 ADD DUP4 SWAP1 MSTORE PUSH1 0x1 PUSH1 0x1 PUSH1 0xA0 SHL SUB DUP5 AND SWAP1 PUSH4 0x2FB0B77E SWAP1 PUSH1 0x24 ADD PUSH1 0x0 PUSH1 0x40 MLOAD DUP1 DUP4 SUB DUP2 PUSH1 0x0 DUP8 DUP1 EXTCODESIZE ISZERO DUP1 ISZERO PUSH2 0x9CE JUMPI PUSH1 0x0 DUP1 REVERT JUMPDEST POP GAS CALL ISZERO DUP1 ISZERO PUSH2 0x9E2 JUMPI RETURNDATASIZE PUSH1 0x0 DUP1 RETURNDATACOPY RETURNDATASIZE PUSH1 0x0 REVERT JUMPDEST POP POP PUSH1 0x40 MLOAD DUP5 DUP2 MSTORE PUSH1 0x0 SWAP3 POP PUSH1 0x1 PUSH1 0x1 PUSH1 0xA0 SHL SUB DUP7 AND SWAP2 POP PUSH32 0xBE457CE8B7BCAA491415DEF88F108B025525279936EE1DD9EC4DC7DEBFFCEE04 SWAP1 PUSH1 0x20 ADD PUSH2 0x96D JUMP JUMPDEST PUSH1 0x0 PUSH2 0xA2E PUSH2 0xF68 JUMP JUMPDEST PUSH1 0x40 MLOAD PUSH4 0x13D1C771 PUSH1 0xE0 SHL DUP2 MSTORE PUSH1 0x1 PUSH1 0x1 PUSH1 0xA0 SHL SUB PUSH32 0x0 DUP2 AND PUSH1 0x4 DUP4 ADD MSTORE PUSH32 0x0 AND SWAP1 PUSH4 0x13D1C771 SWAP1 PUSH1 0x24 ADD PUSH1 0x20 PUSH1 0x40 MLOAD DUP1 DUP4 SUB DUP2 PUSH1 0x0 DUP8 DUP1 EXTCODESIZE ISZERO DUP1 ISZERO PUSH2 0xAB1 JUMPI PUSH1 0x0 DUP1 REVERT JUMPDEST POP GAS CALL ISZERO DUP1 ISZERO PUSH2 0xAC5 JUMPI RETURNDATASIZE PUSH1 0x0 DUP1 RETURNDATACOPY RETURNDATASIZE PUSH1 0x0 REVERT JUMPDEST POP POP POP POP PUSH1 0x40 MLOAD RETURNDATASIZE PUSH1 0x1F NOT PUSH1 0x1F DUP3 ADD AND DUP3 ADD DUP1 PUSH1 0x40 MSTORE POP DUP2 ADD SWAP1 PUSH2 0xAE9 SWAP2 SWAP1 PUSH2 0x14A4 JUMP JUMPDEST PUSH2 0xAF2 JUMPI PUSH1 0x0 DUP1 REVERT JUMPDEST PUSH1 0x0 DUP1 SLOAD PUSH1 0x40 MLOAD PUSH4 0x19378787 PUSH1 0xE3 SHL DUP2 MSTORE ADDRESS PUSH1 0x4 DUP3 ADD MSTORE PUSH1 0x1 PUSH1 0x1 PUSH1 0xA0 SHL SUB SWAP2 DUP3 AND PUSH1 0x24 DUP3 ADD MSTORE PUSH32 0x0 SWAP1 SWAP2 AND SWAP1 PUSH4 0xC9BC3C38 SWAP1 PUSH1 0x44 ADD PUSH1 0x20 PUSH1 0x40 MLOAD DUP1 DUP4 SUB DUP2 PUSH1 0x0 DUP8 DUP1 EXTCODESIZE ISZERO DUP1 ISZERO PUSH2 0xB61 JUMPI PUSH1 0x0 DUP1 REVERT JUMPDEST POP GAS CALL ISZERO DUP1 ISZERO PUSH2 0xB75 JUMPI RETURNDATASIZE PUSH1 0x0 DUP1 RETURNDATACOPY RETURNDATASIZE PUSH1 0x0 REVERT JUMPDEST POP POP POP POP PUSH1 0x40 MLOAD RETURNDATASIZE PUSH1 0x1F NOT PUSH1 0x1F DUP3 ADD AND DUP3 ADD DUP1 PUSH1 0x40 MSTORE POP DUP2 ADD SWAP1 PUSH2 0xB99 SWAP2 SWAP1 PUSH2 0x13E1 JUMP JUMPDEST SWAP1 POP PUSH2 0xBA8 DUP2 PUSH1 0x5 PUSH1 0x4 PUSH2 0xFC9 JUMP JUMPDEST PUSH1 0x40 MLOAD PUSH1 0x1 PUSH1 0x1 PUSH1 0xA0 SHL SUB DUP3 AND DUP2 MSTORE PUSH32 0xB6EF1215893BD60FFEB9E97981AA41B2819605F61F7848A06DB1F8C3AEFC961B SWAP1 PUSH1 0x20 ADD PUSH1 0x40 MLOAD DUP1 SWAP2 SUB SWAP1 LOG1 SWAP1 POP SWAP1 JUMP JUMPDEST PUSH1 0x1 SLOAD PUSH1 0x40 DUP1 MLOAD DUP1 DUP3 ADD SWAP1 SWAP2 MSTORE PUSH1 0x13 DUP2 MSTORE PUSH19 0x155CD95C881B9BDD08105D5D1A1BDC9A5E9959 PUSH1 0x6A SHL PUSH1 0x20 DUP3 ADD MSTORE SWAP1 PUSH1 0x1 PUSH1 0x1 PUSH1 0xA0 SHL SUB AND CALLER EQ PUSH2 0xC3F JUMPI PUSH1 0x40 MLOAD PUSH3 0x461BCD PUSH1 0xE5 SHL DUP2 MSTORE PUSH1 0x4 ADD PUSH2 0x888 SWAP2 SWAP1 PUSH2 0x1545 JUMP JUMPDEST POP PUSH1 0x2 SLOAD TIMESTAMP LT ISZERO PUSH2 0xC92 JUMPI PUSH1 0x40 MLOAD PUSH3 0x461BCD PUSH1 0xE5 SHL DUP2 MSTORE PUSH1 0x20 PUSH1 0x4 DUP3 ADD MSTORE PUSH1 0x1E PUSH1 0x24 DUP3 ADD MSTORE PUSH32 0x4F776E6572206973206E6F74206465636C6172656420696E6163746976650000 PUSH1 0x44 DUP3 ADD MSTORE PUSH1 0x64 ADD PUSH2 0x888 JUMP JUMPDEST PUSH1 0x0 DUP1 SLOAD PUSH1 0x1 SLOAD PUSH1 0x1 PUSH1 0x1 PUSH1 0xA0 SHL SUB SWAP1 DUP2 AND PUSH1 0x1 PUSH1 0x1 PUSH1 0xA0 SHL SUB NOT DUP4 AND DUP2 OR DUP5 SSTORE PUSH1 0x40 MLOAD SWAP2 SWAP1 SWAP3 AND SWAP3 DUP4 SWAP3 SWAP2 PUSH32 0xD18B5FD22306E373229B9439188228EDCA81207D1667F604DAF6CEF8AA3EE67 SWAP2 SWAP1 LOG3 PUSH2 0xCEA PUSH2 0x119A JUMP JUMPDEST POP JUMP JUMPDEST PUSH2 0xCF5 PUSH2 0xF68 JUMP JUMPDEST PUSH2 0xCFE DUP2 PUSH2 0x12A1 JUMP JUMPDEST PUSH1 0x1 DUP1 SLOAD PUSH1 0x1 PUSH1 0x1 PUSH1 0xA0 SHL SUB NOT AND PUSH1 0x1 PUSH1 0x1 PUSH1 0xA0 SHL SUB DUP4 AND SWAP1 DUP2 OR SWAP1 SWAP2 SSTORE PUSH1 0x40 MLOAD SWAP1 DUP2 MSTORE PUSH32 0xADACB637D17DE7895E9C7FC75F36437FD5C36D5E6E9CC83B95380F10A052F4A SWAP1 PUSH1 0x20 ADD PUSH2 0x77E JUMP JUMPDEST PUSH2 0xD54 PUSH2 0xF68 JUMP JUMPDEST PUSH2 0xD5D DUP3 PUSH2 0x12A1 JUMP JUMPDEST PUSH2 0xD66 DUP4 PUSH2 0x11E3 JUMP JUMPDEST DUP2 PUSH2 0xD71 DUP2 DUP4 PUSH2 0x12F7 JUMP JUMPDEST PUSH1 0x40 MLOAD PUSH4 0xA9059CBB PUSH1 0xE0 SHL DUP2 MSTORE PUSH1 0x1 PUSH1 0x1 PUSH1 0xA0 SHL SUB DUP6 DUP2 AND PUSH1 0x4 DUP4 ADD MSTORE PUSH1 0x24 DUP3 ADD DUP5 SWAP1 MSTORE PUSH1 0x0 SWAP2 SWAP1 DUP4 AND SWAP1 PUSH4 0xA9059CBB SWAP1 PUSH1 0x44 ADD PUSH1 0x20 PUSH1 0x40 MLOAD DUP1 DUP4 SUB DUP2 PUSH1 0x0 DUP8 DUP1 EXTCODESIZE ISZERO DUP1 ISZERO PUSH2 0xDBF JUMPI PUSH1 0x0 DUP1 REVERT JUMPDEST POP GAS CALL ISZERO DUP1 ISZERO PUSH2 0xDD3 JUMPI RETURNDATASIZE PUSH1 0x0 DUP1 RETURNDATACOPY RETURNDATASIZE PUSH1 0x0 REVERT JUMPDEST POP POP POP POP PUSH1 0x40 MLOAD RETURNDATASIZE PUSH1 0x1F NOT PUSH1 0x1F DUP3 ADD AND DUP3 ADD DUP1 PUSH1 0x40 MSTORE POP DUP2 ADD SWAP1 PUSH2 0xDF7 SWAP2 SWAP1 PUSH2 0x14A4 JUMP JUMPDEST SWAP1 POP DUP1 PUSH1 0x40 MLOAD DUP1 PUSH1 0x40 ADD PUSH1 0x40 MSTORE DUP1 PUSH1 0x12 DUP2 MSTORE PUSH1 0x20 ADD PUSH18 0x151C985B9CD858DD1A5BDB8811985A5B1959 PUSH1 0x72 SHL DUP2 MSTORE POP SWAP1 PUSH2 0xE43 JUMPI PUSH1 0x40 MLOAD PUSH3 0x461BCD PUSH1 0xE5 SHL DUP2 MSTORE PUSH1 0x4 ADD PUSH2 0x888 SWAP2 SWAP1 PUSH2 0x1545 JUMP JUMPDEST POP DUP4 PUSH1 0x1 PUSH1 0x1 PUSH1 0xA0 SHL SUB AND DUP6 PUSH1 0x1 PUSH1 0x1 PUSH1 0xA0 SHL SUB AND PUSH32 0x8F7184268EABC3E5F95D42873237E44E84D2CB27BAA7358AC4FE098D4DFBA2ED DUP6 PUSH1 0x40 MLOAD PUSH2 0xE89 SWAP2 DUP2 MSTORE PUSH1 0x20 ADD SWAP1 JUMP JUMPDEST PUSH1 0x40 MLOAD DUP1 SWAP2 SUB SWAP1 LOG3 POP POP POP POP POP JUMP JUMPDEST PUSH2 0xEA0 PUSH2 0xF68 JUMP JUMPDEST DUP3 PUSH2 0xEAA DUP2 PUSH2 0x1109 JUMP JUMPDEST PUSH2 0xEB3 DUP4 PUSH2 0x12A1 JUMP JUMPDEST PUSH1 0x40 MLOAD PUSH4 0xD0F108EB PUSH1 0xE0 SHL DUP2 MSTORE PUSH1 0x1 PUSH1 0x1 PUSH1 0xA0 SHL SUB DUP5 DUP2 AND PUSH1 0x4 DUP4 ADD MSTORE PUSH1 0x24 DUP3 ADD DUP5 SWAP1 MSTORE DUP6 AND SWAP1 PUSH4 0xD0F108EB SWAP1 PUSH1 0x44 ADD PUSH1 0x0 PUSH1 0x40 MLOAD DUP1 DUP4 SUB DUP2 PUSH1 0x0 DUP8 DUP1 EXTCODESIZE ISZERO DUP1 ISZERO PUSH2 0xEFD JUMPI PUSH1 0x0 DUP1 REVERT JUMPDEST POP GAS CALL ISZERO DUP1 ISZERO PUSH2 0xF11 JUMPI RETURNDATASIZE PUSH1 0x0 DUP1 RETURNDATACOPY RETURNDATASIZE PUSH1 0x0 REVERT JUMPDEST POP POP POP POP DUP3 PUSH1 0x1 PUSH1 0x1 PUSH1 0xA0 SHL SUB AND DUP5 PUSH1 0x1 PUSH1 0x1 PUSH1 0xA0 SHL SUB AND PUSH32 0xBE457CE8B7BCAA491415DEF88F108B025525279936EE1DD9EC4DC7DEBFFCEE04 DUP5 PUSH1 0x40 MLOAD PUSH2 0xF5A SWAP2 DUP2 MSTORE PUSH1 0x20 ADD SWAP1 JUMP JUMPDEST PUSH1 0x40 MLOAD DUP1 SWAP2 SUB SWAP1 LOG3 POP POP POP POP JUMP JUMPDEST PUSH1 0x0 SLOAD PUSH1 0x40 DUP1 MLOAD DUP1 DUP3 ADD SWAP1 SWAP2 MSTORE PUSH1 0x13 DUP2 MSTORE PUSH19 0x155CD95C881B9BDD08105D5D1A1BDC9A5E9959 PUSH1 0x6A SHL PUSH1 0x20 DUP3 ADD MSTORE SWAP1 PUSH1 0x1 PUSH1 0x1 PUSH1 0xA0 SHL SUB AND CALLER EQ PUSH2 0xFBE JUMPI PUSH1 0x40 MLOAD PUSH3 0x461BCD PUSH1 0xE5 SHL DUP2 MSTORE PUSH1 0x4 ADD PUSH2 0x888 SWAP2 SWAP1 PUSH2 0x1545 JUMP JUMPDEST POP PUSH2 0xFC7 PUSH2 0x119A JUMP JUMPDEST JUMP JUMPDEST PUSH1 0x1 PUSH1 0x1 PUSH1 0xA0 SHL SUB DUP4 AND PUSH1 0x0 SWAP1 DUP2 MSTORE PUSH1 0x20 DUP3 SWAP1 MSTORE PUSH1 0x40 SWAP1 KECCAK256 SLOAD ISZERO PUSH2 0x10C7 JUMPI PUSH1 0x1 PUSH1 0x1 PUSH1 0xA0 SHL SUB DUP4 AND PUSH1 0x0 SWAP1 DUP2 MSTORE PUSH1 0x20 DUP3 SWAP1 MSTORE PUSH1 0x40 DUP2 KECCAK256 SLOAD DUP4 SLOAD DUP5 SWAP2 SWAP1 DUP2 LT PUSH2 0x1013 JUMPI PUSH2 0x1013 PUSH2 0x15E7 JUMP JUMPDEST PUSH1 0x0 SWAP2 DUP3 MSTORE PUSH1 0x20 SWAP1 SWAP2 KECCAK256 ADD SLOAD PUSH1 0x1 PUSH1 0x1 PUSH1 0xA0 SHL SUB AND EQ PUSH2 0x1067 JUMPI PUSH1 0x40 MLOAD PUSH3 0x461BCD PUSH1 0xE5 SHL DUP2 MSTORE PUSH1 0x20 PUSH1 0x4 DUP3 ADD MSTORE PUSH1 0xF PUSH1 0x24 DUP3 ADD MSTORE PUSH15 0x105B1C9958591E48115B98589B1959 PUSH1 0x8A SHL PUSH1 0x44 DUP3 ADD MSTORE PUSH1 0x64 ADD PUSH2 0x888 JUMP JUMPDEST PUSH1 0x1 PUSH1 0x1 PUSH1 0xA0 SHL SUB DUP4 AND PUSH1 0x0 SWAP1 DUP2 MSTORE PUSH1 0x20 DUP3 SWAP1 MSTORE PUSH1 0x40 SWAP1 KECCAK256 SLOAD DUP3 SLOAD DUP5 SWAP2 DUP5 SWAP2 DUP2 LT PUSH2 0x1094 JUMPI PUSH2 0x1094 PUSH2 0x15E7 JUMP JUMPDEST SWAP1 PUSH1 0x0 MSTORE PUSH1 0x20 PUSH1 0x0 KECCAK256 ADD PUSH1 0x0 PUSH2 0x100 EXP DUP2 SLOAD DUP2 PUSH1 0x1 PUSH1 0x1 PUSH1 0xA0 SHL SUB MUL NOT AND SWAP1 DUP4 PUSH1 0x1 PUSH1 0x1 PUSH1 0xA0 SHL SUB AND MUL OR SWAP1 SSTORE POP POP POP POP JUMP JUMPDEST DUP2 SLOAD PUSH1 0x1 PUSH1 0x1 PUSH1 0xA0 SHL SUB DUP5 AND PUSH1 0x0 DUP2 DUP2 MSTORE PUSH1 0x20 DUP5 DUP2 MSTORE PUSH1 0x40 DUP3 KECCAK256 DUP5 SWAP1 SSTORE PUSH1 0x1 DUP5 ADD DUP7 SSTORE DUP6 DUP3 MSTORE SWAP1 KECCAK256 SWAP1 SWAP2 ADD DUP1 SLOAD PUSH1 0x1 PUSH1 0x1 PUSH1 0xA0 SHL SUB NOT AND SWAP1 SWAP2 OR SWAP1 SSTORE JUMPDEST POP POP POP JUMP JUMPDEST PUSH1 0x1 PUSH1 0x1 PUSH1 0xA0 SHL SUB DUP2 AND PUSH1 0x0 SWAP1 DUP2 MSTORE PUSH1 0x4 PUSH1 0x20 MSTORE PUSH1 0x40 DUP2 KECCAK256 SLOAD PUSH1 0x5 DUP1 SLOAD SWAP1 SWAP2 SWAP1 DUP2 LT PUSH2 0x1137 JUMPI PUSH2 0x1137 PUSH2 0x15E7 JUMP JUMPDEST PUSH1 0x0 SWAP2 DUP3 MSTORE PUSH1 0x20 SWAP1 SWAP2 KECCAK256 ADD SLOAD PUSH1 0x1 PUSH1 0x1 PUSH1 0xA0 SHL SUB AND EQ ISZERO PUSH2 0xCEA JUMPI PUSH1 0x40 MLOAD PUSH3 0x461BCD PUSH1 0xE5 SHL DUP2 MSTORE PUSH1 0x20 PUSH1 0x4 DUP3 ADD MSTORE PUSH1 0x19 PUSH1 0x24 DUP3 ADD MSTORE PUSH32 0x5365676120556E6B6F776E20746F2074686973205661756C7400000000000000 PUSH1 0x44 DUP3 ADD MSTORE PUSH1 0x64 ADD PUSH2 0x888 JUMP JUMPDEST PUSH3 0x15180 PUSH1 0x3 SLOAD PUSH2 0x11AB SWAP2 SWAP1 PUSH2 0x15B2 JUMP JUMPDEST PUSH2 0x11B5 SWAP1 TIMESTAMP PUSH2 0x159A JUMP JUMPDEST PUSH1 0x2 SSTORE PUSH1 0x40 MLOAD PUSH32 0x7AA982A4520D96ED188D1997CB8420198DBFD349076824ED797A3FD39A7728A1 SWAP1 PUSH1 0x0 SWAP1 LOG1 JUMP JUMPDEST PUSH2 0x11EC DUP2 PUSH2 0x12A1 JUMP JUMPDEST PUSH1 0x0 SLOAD PUSH1 0x1 PUSH1 0x1 PUSH1 0xA0 SHL SUB DUP3 DUP2 AND SWAP2 AND EQ DUP1 PUSH2 0x1249 JUMPI POP PUSH1 0x1 PUSH1 0x1 PUSH1 0xA0 SHL SUB DUP2 AND PUSH1 0x0 SWAP1 DUP2 MSTORE PUSH1 0x4 PUSH1 0x20 MSTORE PUSH1 0x40 DUP2 KECCAK256 SLOAD PUSH1 0x5 DUP1 SLOAD SWAP1 SWAP2 SWAP1 DUP2 LT PUSH2 0x1231 JUMPI PUSH2 0x1231 PUSH2 0x15E7 JUMP JUMPDEST PUSH1 0x0 SWAP2 DUP3 MSTORE PUSH1 0x20 SWAP1 SWAP2 KECCAK256 ADD SLOAD PUSH1 0x1 PUSH1 0x1 PUSH1 0xA0 SHL SUB AND EQ ISZERO JUMPDEST PUSH1 0x40 MLOAD DUP1 PUSH1 0x40 ADD PUSH1 0x40 MSTORE DUP1 PUSH1 0x1D DUP2 MSTORE PUSH1 0x20 ADD PUSH32 0x5265636569766572206973206E6F74204F776E6572206F722053454741000000 DUP2 MSTORE POP SWAP1 PUSH2 0x129D JUMPI PUSH1 0x40 MLOAD PUSH3 0x461BCD PUSH1 0xE5 SHL DUP2 MSTORE PUSH1 0x4 ADD PUSH2 0x888 SWAP2 SWAP1 PUSH2 0x1545 JUMP JUMPDEST POP POP JUMP JUMPDEST PUSH1 0x1 PUSH1 0x1 PUSH1 0xA0 SHL SUB DUP2 AND PUSH2 0xCEA JUMPI PUSH1 0x40 MLOAD PUSH3 0x461BCD PUSH1 0xE5 SHL DUP2 MSTORE PUSH1 0x20 PUSH1 0x4 DUP3 ADD MSTORE PUSH1 0x18 PUSH1 0x24 DUP3 ADD MSTORE PUSH32 0x5A65726F2041646472657373204E6F7420416C6C6F7765640000000000000000 PUSH1 0x44 DUP3 ADD MSTORE PUSH1 0x64 ADD PUSH2 0x888 JUMP JUMPDEST PUSH1 0x40 MLOAD PUSH4 0x70A08231 PUSH1 0xE0 SHL DUP2 MSTORE ADDRESS PUSH1 0x4 DUP3 ADD MSTORE DUP2 SWAP1 PUSH1 0x1 PUSH1 0x1 PUSH1 0xA0 SHL SUB DUP5 AND SWAP1 PUSH4 0x70A08231 SWAP1 PUSH1 0x24 ADD PUSH1 0x20 PUSH1 0x40 MLOAD DUP1 DUP4 SUB DUP2 DUP7 DUP1 EXTCODESIZE ISZERO DUP1 ISZERO PUSH2 0x1338 JUMPI PUSH1 0x0 DUP1 REVERT JUMPDEST POP GAS STATICCALL ISZERO DUP1 ISZERO PUSH2 0x134C JUMPI RETURNDATASIZE PUSH1 0x0 DUP1 RETURNDATACOPY RETURNDATASIZE PUSH1 0x0 REVERT JUMPDEST POP POP POP POP PUSH1 0x40 MLOAD RETURNDATASIZE PUSH1 0x1F NOT PUSH1 0x1F DUP3 ADD AND DUP3 ADD DUP1 PUSH1 0x40 MSTORE POP DUP2 ADD SWAP1 PUSH2 0x1370 SWAP2 SWAP1 PUSH2 0x14DF JUMP JUMPDEST LT ISZERO PUSH1 0x40 MLOAD DUP1 PUSH1 0x40 ADD PUSH1 0x40 MSTORE DUP1 PUSH1 0x14 DUP2 MSTORE PUSH1 0x20 ADD PUSH20 0x496E73756666696369656E742042616C616E6365 PUSH1 0x60 SHL DUP2 MSTORE POP SWAP1 PUSH2 0x1104 JUMPI PUSH1 0x40 MLOAD PUSH3 0x461BCD PUSH1 0xE5 SHL DUP2 MSTORE PUSH1 0x4 ADD PUSH2 0x888 SWAP2 SWAP1 PUSH2 0x1545 JUMP JUMPDEST PUSH1 0x0 PUSH1 0x20 DUP3 DUP5 SUB SLT ISZERO PUSH2 0x13CF JUMPI PUSH1 0x0 DUP1 REVERT JUMPDEST DUP2 CALLDATALOAD PUSH2 0x13DA DUP2 PUSH2 0x15FD JUMP JUMPDEST SWAP4 SWAP3 POP POP POP JUMP JUMPDEST PUSH1 0x0 PUSH1 0x20 DUP3 DUP5 SUB SLT ISZERO PUSH2 0x13F3 JUMPI PUSH1 0x0 DUP1 REVERT JUMPDEST DUP2 MLOAD PUSH2 0x13DA DUP2 PUSH2 0x15FD JUMP JUMPDEST PUSH1 0x0 DUP1 PUSH1 0x40 DUP4 DUP6 SUB SLT ISZERO PUSH2 0x1411 JUMPI PUSH1 0x0 DUP1 REVERT JUMPDEST DUP3 CALLDATALOAD PUSH2 0x141C DUP2 PUSH2 0x15FD JUMP JUMPDEST SWAP5 PUSH1 0x20 SWAP4 SWAP1 SWAP4 ADD CALLDATALOAD SWAP4 POP POP POP JUMP JUMPDEST PUSH1 0x0 DUP1 PUSH1 0x40 DUP4 DUP6 SUB SLT ISZERO PUSH2 0x143D JUMPI PUSH1 0x0 DUP1 REVERT JUMPDEST DUP3 CALLDATALOAD PUSH2 0x1448 DUP2 PUSH2 0x15FD JUMP JUMPDEST SWAP2 POP PUSH1 0x20 DUP4 ADD CALLDATALOAD PUSH2 0x1458 DUP2 PUSH2 0x15FD JUMP JUMPDEST DUP1 SWAP2 POP POP SWAP3 POP SWAP3 SWAP1 POP JUMP JUMPDEST PUSH1 0x0 DUP1 PUSH1 0x0 PUSH1 0x60 DUP5 DUP7 SUB SLT ISZERO PUSH2 0x1478 JUMPI PUSH1 0x0 DUP1 REVERT JUMPDEST DUP4 CALLDATALOAD PUSH2 0x1483 DUP2 PUSH2 0x15FD JUMP JUMPDEST SWAP3 POP PUSH1 0x20 DUP5 ADD CALLDATALOAD PUSH2 0x1493 DUP2 PUSH2 0x15FD JUMP JUMPDEST SWAP3 SWAP6 SWAP3 SWAP5 POP POP POP PUSH1 0x40 SWAP2 SWAP1 SWAP2 ADD CALLDATALOAD SWAP1 JUMP JUMPDEST PUSH1 0x0 PUSH1 0x20 DUP3 DUP5 SUB SLT ISZERO PUSH2 0x14B6 JUMPI PUSH1 0x0 DUP1 REVERT JUMPDEST DUP2 MLOAD DUP1 ISZERO ISZERO DUP2 EQ PUSH2 0x13DA JUMPI PUSH1 0x0 DUP1 REVERT JUMPDEST PUSH1 0x0 PUSH1 0x20 DUP3 DUP5 SUB SLT ISZERO PUSH2 0x14D8 JUMPI PUSH1 0x0 DUP1 REVERT JUMPDEST POP CALLDATALOAD SWAP2 SWAP1 POP JUMP JUMPDEST PUSH1 0x0 PUSH1 0x20 DUP3 DUP5 SUB SLT ISZERO PUSH2 0x14F1 JUMPI PUSH1 0x0 DUP1 REVERT JUMPDEST POP MLOAD SWAP2 SWAP1 POP JUMP JUMPDEST PUSH1 0x20 DUP1 DUP3 MSTORE DUP3 MLOAD DUP3 DUP3 ADD DUP2 SWAP1 MSTORE PUSH1 0x0 SWAP2 SWAP1 DUP5 DUP3 ADD SWAP1 PUSH1 0x40 DUP6 ADD SWAP1 DUP5 JUMPDEST DUP2 DUP2 LT ISZERO PUSH2 0x1539 JUMPI DUP4 MLOAD PUSH1 0x1 PUSH1 0x1 PUSH1 0xA0 SHL SUB AND DUP4 MSTORE SWAP3 DUP5 ADD SWAP3 SWAP2 DUP5 ADD SWAP2 PUSH1 0x1 ADD PUSH2 0x1514 JUMP JUMPDEST POP SWAP1 SWAP7 SWAP6 POP POP POP POP POP POP JUMP JUMPDEST PUSH1 0x0 PUSH1 0x20 DUP1 DUP4 MSTORE DUP4 MLOAD DUP1 DUP3 DUP6 ADD MSTORE PUSH1 0x0 JUMPDEST DUP2 DUP2 LT ISZERO PUSH2 0x1572 JUMPI DUP6 DUP2 ADD DUP4 ADD MLOAD DUP6 DUP3 ADD PUSH1 0x40 ADD MSTORE DUP3 ADD PUSH2 0x1556 JUMP JUMPDEST DUP2 DUP2 GT ISZERO PUSH2 0x1584 JUMPI PUSH1 0x0 PUSH1 0x40 DUP4 DUP8 ADD ADD MSTORE JUMPDEST POP PUSH1 0x1F ADD PUSH1 0x1F NOT AND SWAP3 SWAP1 SWAP3 ADD PUSH1 0x40 ADD SWAP4 SWAP3 POP POP POP JUMP JUMPDEST PUSH1 0x0 DUP3 NOT DUP3 GT ISZERO PUSH2 0x15AD JUMPI PUSH2 0x15AD PUSH2 0x15D1 JUMP JUMPDEST POP ADD SWAP1 JUMP JUMPDEST PUSH1 0x0 DUP2 PUSH1 0x0 NOT DIV DUP4 GT DUP3 ISZERO ISZERO AND ISZERO PUSH2 0x15CC JUMPI PUSH2 0x15CC PUSH2 0x15D1 JUMP JUMPDEST POP MUL SWAP1 JUMP JUMPDEST PUSH4 0x4E487B71 PUSH1 0xE0 SHL PUSH1 0x0 MSTORE PUSH1 0x11 PUSH1 0x4 MSTORE PUSH1 0x24 PUSH1 0x0 REVERT JUMPDEST PUSH4 0x4E487B71 PUSH1 0xE0 SHL PUSH1 0x0 MSTORE PUSH1 0x32 PUSH1 0x4 MSTORE PUSH1 0x24 PUSH1 0x0 REVERT JUMPDEST PUSH1 0x1 PUSH1 0x1 PUSH1 0xA0 SHL SUB DUP2 AND DUP2 EQ PUSH2 0xCEA JUMPI PUSH1 0x0 DUP1 REVERT INVALID LOG2 PUSH5 0x6970667358 0x22 SLT KECCAK256 DUP16 EXP RETURNDATACOPY PUSH6 0x561F86A994A7 0x2E 0xEF 0x5D 0xE4 0xD3 0xE9 0xCD 0xFC 0xD6 PUSH5 0x6AFC47DDAA PUSH29 0x55DF35877E8E64736F6C63430008060033000000000000000000000000 ",
  "sha1": "9322456f6ccfa2051f09547185679423be125219",
  "source": "//SPDX-License-Identifier: BUSL-1.1\npragma solidity ^0.8.0;\n\nimport \"../interfaces/ISega_v112.sol\";\nimport \"../interfaces/IsFact_v112.sol\";\nimport \"@openzeppelin/contracts/token/ERC20/IERC20.sol\";\n\ncontract Vault_v112 {\n    \n    address public immutable segaFactory;\n    address public immutable RCU;\n\n    uint256 constant public version = 10102;\n\n    uint256 constant oneDay = 24*60*60 ; \n    //this is 1 for testing only, should be 24*60*60\n\n    string constant noAccess = \"User not Authorized\"; \n    string constant txnFail = \"Transaction Failed\";\n    string constant lowBalance = \"Insufficient Balance\";\n    string constant badReceiver = \"Receiver is not Owner or SEGA\";\n\n    address payable private owner;\n    address private backupAccount;\n    uint256 private releaseTime;\n    uint256 private unlockDays;\n\n    mapping (address => uint256) private SegaMap;\n    address[] private SegaList;\n\n    event Received(address, uint);\n    event OwnerIsActive();\n\n    event ChangedBackup(address _backup);\n    event ChangedInactiveTime(uint);\n    event OwnershipTransfered(address indexed _new, address indexed _old);\n\n    event NewSegaCreated(address newSega);\n    event SentOutAssets(address indexed _to, address indexed _token, uint256 _amount);\n\n    event SegaFrozen(address indexed _sega,uint8 indexed onOff);\n    event SegaRecall(address indexed _sega, address indexed _token, uint256 _amount);\n    event SegaTraderChanged(address indexed _sega, address newTrader);\n\n    /*********************************************\n    Modifiers\n    *********************************************/\n\n    modifier isOwner() {\n        _isOwner();\n        _;\n    }\n\n    modifier isSega(address _sega) {\n        _isSega(_sega);\n        _;\n    }\n\n    modifier viewByORB() {\n        _viewByORB();\n        _;\n    }\n\n    function _isOwner() internal {\n        require( msg.sender == owner, noAccess);\n        ownerActive();\n    }\n    \n    function _isSega(address _sega) internal view {\n        require( SegaList[ SegaMap[_sega] ] != address(0), \n                \"Sega Unkown to this Vault\");\n    }\n\n    function ownerActive() internal {\n        releaseTime = block.timestamp + unlockDays * oneDay;\n        emit OwnerIsActive();\n    }\n\n    function _viewByORB() internal view {\n        require(\n            msg.sender == owner ||\n            msg.sender == backupAccount,\n            noAccess\n        );\n    }\n\n    function _notZero(address _address) internal pure {\n        require (_address != address(0), \"Zero Address Not Allowed\");\n    }\n\n    function _enoughBalance(IERC20 _token, uint256 _amount) internal view{\n        require(_token.balanceOf(address(this)) >= _amount, lowBalance);\n    }\n\n    function _checkReceiver(address receiver) internal view {\n        _notZero(receiver);\n        require(receiver == owner ||\n                SegaList[ SegaMap[receiver] ] != address(0), \n                badReceiver);\n    }\n    \n\n    /*******************************************\n    Constructor, Recieve, Fallback\n    *******************************************/\n\n    constructor(address _RCU, address _owner, address _segaFact) {\n        \n        RCU = _RCU;\n        segaFactory = _segaFact;\n\n        owner = payable(_owner);\n        backupAccount = _owner;\n        unlockDays = 365;\n        releaseTime = block.timestamp + unlockDays * oneDay;\n        \n        SegaList.push(address(0));\n    }\n\n    receive() external payable {\n        emit Received(msg.sender, msg.value);\n    }\n    \n    fallback() external payable {\n        if (msg.value > 0) { \n            emit Received(msg.sender, msg.value);\n        }\n    }\n\n    /*********************************************\n    Owner Only Functions - Relevant for backupAccount\n    *********************************************/\n    \n    //For Owner to set Backup Account\n    function setBackup(address _backup) public isOwner {\n        _notZero(_backup);\n        backupAccount = _backup;\n        emit ChangedBackup(_backup);\n    }\n    \n    //For Owner to set days after which Owner account declared inactive\n    function setUnlockPeriod(uint256 _unlockTime) public isOwner {\n        unlockDays = _unlockTime;\n        ownerActive();\n        emit ChangedInactiveTime(_unlockTime);\n    }\n    \n    //For Backup Account to claim the role of Owner\n    function claimVault() public {\n        require(msg.sender == backupAccount,noAccess);\n        require(block.timestamp >= releaseTime,\"Owner is not declared inactive\");\n        address oldAc = owner;\n        owner = payable(backupAccount);\n        emit OwnershipTransfered(owner, oldAc);\n        ownerActive();\n    }\n    \n    /*------------------------------------------\n    Vault Admin & Management Functions - Owner & ROs\n    ------------------------------------------*/\n\n    /********************************************\n    Functions to Return Vault Assets to Owner/Sega\n    *********************************************/\n\n    //Transfering Eth to allowed counterparties\n    function sendNativeAssets(address payable receiver, uint256 amount) public isOwner {\n        _checkReceiver(receiver);\n        require(address(this).balance >= amount, lowBalance);\n        (bool success, ) = receiver.call{value: amount}(\"\");\n        require(success, txnFail);\n        emit SentOutAssets(receiver, address(0), amount);\n    }\n    \n    // Transferring & Approving allowed Tokens to Owner or Sega\n    function sendTokenAssets(address receiver, address _token, uint256 amount) public isOwner {\n        _notZero(_token);\n        _checkReceiver(receiver);\n        IERC20 Token = IERC20(_token);\n        _enoughBalance(Token, amount);\n        bool success = Token.transfer(receiver, amount);\n        require(success, txnFail);\n        emit SentOutAssets(receiver, _token, amount);\n    }\n\n    /*-------------------------------------------\n    Functions to Manage Segregated Accounts\n    --------------------------------------------*/\n\n    /*********************\n    Create New SEGA\n    *********************/\n\n    //For Owner to create new Segregated Account\n    function createNewSega() public isOwner returns (address) {\n        require(IRCU(RCU).verifySF(segaFactory));\n        address _sega = IsFact_v112(segaFactory).createSega(address(this), owner);\n        itemIn(_sega, SegaList, SegaMap);\n        emit NewSegaCreated(_sega);\n        return _sega;\n    }\n\n    //For Owner to Custom Sega Account\n    function createCustomSega(address _segaFactory, uint256 index) public isOwner returns (address) {\n        require(IRCU(RCU).verifySF(_segaFactory));\n        address _sega = IsFact_v112(_segaFactory).createSega(address(this), owner, index);\n        itemIn(_sega, SegaList, SegaMap);\n        emit NewSegaCreated(_sega);\n        return _sega;\n    }\n\n    /*********************\n    SEGA Admin Functions\n    *********************/\n\n    //-----To Pause & Unpause Account Transfers-----//\n\n    function pauseSega(address _sega) public isOwner isSega(_sega) {\n        ISega_v112(_sega).pauseTransfers();\n        emit SegaFrozen(_sega, 1);\n    }\n    function unpauseSega(address _sega) public isOwner isSega(_sega) {\n        ISega_v112(_sega).unpauseTransfers();\n        emit SegaFrozen(_sega, 0);\n    }\n\n    function changeTrader(address _sega, address _newTrader) public isOwner isSega(_sega) {\n        ISega_v112(_sega).changeTrader(_newTrader);\n        emit SegaTraderChanged(_sega, _newTrader);\n    }\n    \n    /****************************\n    Force Recall of Sega Balances\n    *****************************/\n\n    function RecallNativeFromSega(address _sega, uint256 _amount) public isOwner isSega(_sega) {\n        ISega_v112(_sega).returnToVault(_amount);\n        emit SegaRecall(_sega, address(0), _amount);\n    }\n    \n    function RecallErcFromSega(address _sega, address _token, uint256 _amount) public isOwner isSega(_sega) {\n        _notZero(_token);\n        ISega_v112(_sega).returnToVault(_token, _amount);\n        emit SegaRecall(_sega, _token, _amount);\n    }    \n    \n    /*------------------------------------------\n    Internal Functions\n    -------------------------------------------*/\n\n\n    function itemIn(address _item, address[] storage _list, mapping(address=>uint) storage _map) internal {\n        if (_map[_item] != 0 ) {\n            require( _list[_map[_item]] == address(0), \"Already Enabled\");\n            _list[ _map[_item] ] = _item;\n        } else {\n        _map[_item] = _list.length;\n        _list.push(_item);\n        }\n    }\n\n    function checkTxn(bool success) internal pure {\n        require(success, \"Transfer Unsuccesful\");\n    }\n    \n\n    /*------------------------------------------\n    View Only Functions\n    -------------------------------------------*/\n\n    //For Owner or Backup Account to view the Backup Account address\n    function getRecoveryInfo() public view returns (address, address, uint256, uint256) {\n        return (owner, backupAccount, releaseTime, unlockDays);\n    }\n\n    //For Owner to view List of Linked Sega(s)\n    function viewSegaList() public view returns (address[] memory) {\n        return SegaList;\n    }\n\n}\n\ninterface IRCU{\n    function verifySF(address) external returns (bool);\n}",
  "sourcePath": "contracts/2_Vault_v112.sol",
  "type": "contract"
}