{"abi":[{"inputs":[{"internalType":"address","name":"_vf","type":"address"},{"internalType":"address","name":"_sf","type":"address"}],"stateMutability":"nonpayable","type":"constructor","name":"constructor"},{"anonymous":false,"inputs":[{"indexed":false,"internalType":"address","name":"RP","type":"address"}],"name":"AdminChanged","type":"event"},{"anonymous":false,"inputs":[{"indexed":false,"internalType":"address","name":"_sf","type":"address"},{"indexed":false,"internalType":"bool","name":"onOff","type":"bool"}],"name":"SFListUpdated","type":"event"},{"anonymous":false,"inputs":[{"indexed":false,"internalType":"address","name":"vf","type":"address"}],"name":"VFChanged","type":"event"},{"inputs":[],"name":"RiskProtocol","outputs":[{"internalType":"address","name":"","type":"address"}],"stateMutability":"view","type":"function"},{"inputs":[{"internalType":"address","name":"","type":"address"}],"name":"SegaFactList","outputs":[{"internalType":"bool","name":"","type":"bool"}],"stateMutability":"view","type":"function"},{"inputs":[],"name":"VaultFact","outputs":[{"internalType":"address","name":"","type":"address"}],"stateMutability":"view","type":"function"},{"inputs":[{"internalType":"address","name":"","type":"address"}],"name":"VaultFactList","outputs":[{"internalType":"bool","name":"","type":"bool"}],"stateMutability":"view","type":"function"},{"inputs":[{"internalType":"uint256","name":"","type":"uint256"}],"name":"VaultList","outputs":[{"internalType":"address","name":"","type":"address"}],"stateMutability":"view","type":"function"},{"inputs":[{"internalType":"address","name":"_rP","type":"address"}],"name":"changeAdmin","outputs":[],"stateMutability":"nonpayable","type":"function"},{"inputs":[{"internalType":"address","name":"_vf","type":"address"}],"name":"changeVaultFactory","outputs":[],"stateMutability":"nonpayable","type":"function"},{"inputs":[],"name":"getVaultList","outputs":[{"internalType":"address[]","name":"","type":"address[]"}],"stateMutability":"view","type":"function"},{"inputs":[],"name":"launchVault","outputs":[{"internalType":"address","name":"","type":"address"}],"stateMutability":"nonpayable","type":"function"},{"inputs":[{"internalType":"address","name":"_sf","type":"address"},{"internalType":"bool","name":"onOff","type":"bool"}],"name":"updateSegaFactList","outputs":[],"stateMutability":"nonpayable","type":"function"},{"inputs":[{"internalType":"address","name":"_sf","type":"address"}],"name":"verifySF","outputs":[{"internalType":"bool","name":"","type":"bool"}],"stateMutability":"view","type":"function"}],"bytecode":"608060405234801561001057600080fd5b506040516106e03803806106e083398101604081905261002f916100ad565b600180546001600160a01b031990811633178255600080546001600160a01b03958616921682178155908152600260209081526040808320805460ff1990811686179091559490951682526003905292909220805490911690911790556100e0565b80516001600160a01b03811681146100a857600080fd5b919050565b600080604083850312156100c057600080fd5b6100c983610091565b91506100d760208401610091565b90509250929050565b6105f1806100ef6000396000f3fe608060405234801561001057600080fd5b50600436106100a95760003560e01c80638f283970116100715780638f2839701461015a5780639065a18a1461016d578063bee6907d14610180578063ce385a9214610193578063e6a8d0ba146101a8578063ea51bd5a146101cb57600080fd5b806313d1c771146100ae5780631d48f509146100ef5780631fdfd7fe1461011a578063435a04141461013d57806354ca9fa014610145575b600080fd5b6100da6100bc3660046104be565b6001600160a01b031660009081526003602052604090205460ff1690565b60405190151581526020015b60405180910390f35b600054610102906001600160a01b031681565b6040516001600160a01b0390911681526020016100e6565b6100da6101283660046104be565b60026020526000908152604090205460ff1681565b6101026101de565b6101586101533660046104ff565b6102ad565b005b6101586101683660046104be565b610318565b61010261017b36600461053d565b610375565b600154610102906001600160a01b031681565b61019b61039f565b6040516100e69190610556565b6100da6101b63660046104be565b60036020526000908152604090205460ff1681565b6101586101d93660046104be565b610401565b60008054604051635a5eb7a360e11b815233600482015282916001600160a01b03169063b4bd6f4690602401602060405180830381600087803b15801561022457600080fd5b505af1158015610238573d6000803e3d6000fd5b505050506040513d601f19601f8201168201806040525081019061025c91906104e2565b600480546001810182556000919091527f8a35acfbc15ff81a39ae7d344fd709f28e8600b4aa8c65c6b64bfe7fe36bd19b0180546001600160a01b0319166001600160a01b03831617905592915050565b6102b561046e565b6001600160a01b038216600081815260036020908152604091829020805460ff19168515159081179091558251938452908301527f20aacc12529c681af90469a818a9358a952c716d5e2c3ea63d39b9c7c43689ba910160405180910390a15050565b61032061046e565b600180546001600160a01b0319166001600160a01b0383169081179091556040519081527f7ce7ec0b50378fb6c0186ffb5f48325f6593fcb4ca4386f21861af3129188f5c906020015b60405180910390a150565b6004818154811061038557600080fd5b6000918252602090912001546001600160a01b0316905081565b606060048054806020026020016040519081016040528092919081815260200182805480156103f757602002820191906000526020600020905b81546001600160a01b031681526001909101906020018083116103d9575b5050505050905090565b61040961046e565b600080546001600160a01b0319166001600160a01b038316908117825580825260026020908152604092839020805460ff1916600117905591519081527f1d66bfbadb6ace54835b408e6258f8646aae3af0edcb650caeeb812ae3b13ba0910161036a565b6001546001600160a01b031633146104bc5760405162461bcd60e51b815260206004820152600d60248201526c043616c6c6572206e6f7420525609c1b604482015260640160405180910390fd5b565b6000602082840312156104d057600080fd5b81356104db816105a3565b9392505050565b6000602082840312156104f457600080fd5b81516104db816105a3565b6000806040838503121561051257600080fd5b823561051d816105a3565b91506020830135801515811461053257600080fd5b809150509250929050565b60006020828403121561054f57600080fd5b5035919050565b6020808252825182820181905260009190848201906040850190845b818110156105975783516001600160a01b031683529284019291840191600101610572565b50909695505050505050565b6001600160a01b03811681146105b857600080fd5b5056fea2646970667358221220909f5d9ad32df91af5f5bafe711c1b050e96137399d83af1a9f5f982a6d38a1a64736f6c63430008060033","bytecodeSha1":"807642df9342013b94e0ac207d4ee839b376328d","compiler":{"evm_version":"istanbul","optimizer":{"enabled":true,"runs":200},"version":"0.8.6+commit.11564f7e"},"contractName":"DeployRCU_P","language":"Solidity","natspec":{"kind":"dev","methods":{},"version":1},"opcodes":"PUSH1 0x80 PUSH1 0x40 MSTORE CALLVALUE DUP1 ISZERO PUSH2 0x10 JUMPI PUSH1 0x0 DUP1 REVERT JUMPDEST POP PUSH1 0x4 CALLDATASIZE LT PUSH2 0xA9 JUMPI PUSH1 0x0 CALLDATALOAD PUSH1 0xE0 SHR DUP1 PUSH4 0x8F283970 GT PUSH2 0x71 JUMPI DUP1 PUSH4 0x8F283970 EQ PUSH2 0x15A JUMPI DUP1 PUSH4 0x9065A18A EQ PUSH2 0x16D JUMPI DUP1 PUSH4 0xBEE6907D EQ PUSH2 0x180 JUMPI DUP1 PUSH4 0xCE385A92 EQ PUSH2 0x193 JUMPI DUP1 PUSH4 0xE6A8D0BA EQ PUSH2 0x1A8 JUMPI DUP1 PUSH4 0xEA51BD5A EQ PUSH2 0x1CB JUMPI PUSH1 0x0 DUP1 REVERT JUMPDEST DUP1 PUSH4 0x13D1C771 EQ PUSH2 0xAE JUMPI DUP1 PUSH4 0x1D48F509 EQ PUSH2 0xEF JUMPI DUP1 PUSH4 0x1FDFD7FE EQ PUSH2 0x11A JUMPI DUP1 PUSH4 0x435A0414 EQ PUSH2 0x13D JUMPI DUP1 PUSH4 0x54CA9FA0 EQ PUSH2 0x145 JUMPI JUMPDEST PUSH1 0x0 DUP1 REVERT JUMPDEST PUSH2 0xDA PUSH2 0xBC CALLDATASIZE PUSH1 0x4 PUSH2 0x4BE JUMP JUMPDEST PUSH1 0x1 PUSH1 0x1 PUSH1 0xA0 SHL SUB AND PUSH1 0x0 SWAP1 DUP2 MSTORE PUSH1 0x3 PUSH1 0x20 MSTORE PUSH1 0x40 SWAP1 KECCAK256 SLOAD PUSH1 0xFF AND SWAP1 JUMP JUMPDEST PUSH1 0x40 MLOAD SWAP1 ISZERO ISZERO DUP2 MSTORE PUSH1 0x20 ADD JUMPDEST PUSH1 0x40 MLOAD DUP1 SWAP2 SUB SWAP1 RETURN JUMPDEST PUSH1 0x0 SLOAD PUSH2 0x102 SWAP1 PUSH1 0x1 PUSH1 0x1 PUSH1 0xA0 SHL SUB AND DUP2 JUMP JUMPDEST PUSH1 0x40 MLOAD PUSH1 0x1 PUSH1 0x1 PUSH1 0xA0 SHL SUB SWAP1 SWAP2 AND DUP2 MSTORE PUSH1 0x20 ADD PUSH2 0xE6 JUMP JUMPDEST PUSH2 0xDA PUSH2 0x128 CALLDATASIZE PUSH1 0x4 PUSH2 0x4BE JUMP JUMPDEST PUSH1 0x2 PUSH1 0x20 MSTORE PUSH1 0x0 SWAP1 DUP2 MSTORE PUSH1 0x40 SWAP1 KECCAK256 SLOAD PUSH1 0xFF AND DUP2 JUMP JUMPDEST PUSH2 0x102 PUSH2 0x1DE JUMP JUMPDEST PUSH2 0x158 PUSH2 0x153 CALLDATASIZE PUSH1 0x4 PUSH2 0x4FF JUMP JUMPDEST PUSH2 0x2AD JUMP JUMPDEST STOP JUMPDEST PUSH2 0x158 PUSH2 0x168 CALLDATASIZE PUSH1 0x4 PUSH2 0x4BE JUMP JUMPDEST PUSH2 0x318 JUMP JUMPDEST PUSH2 0x102 PUSH2 0x17B CALLDATASIZE PUSH1 0x4 PUSH2 0x53D JUMP JUMPDEST PUSH2 0x375 JUMP JUMPDEST PUSH1 0x1 SLOAD PUSH2 0x102 SWAP1 PUSH1 0x1 PUSH1 0x1 PUSH1 0xA0 SHL SUB AND DUP2 JUMP JUMPDEST PUSH2 0x19B PUSH2 0x39F JUMP JUMPDEST PUSH1 0x40 MLOAD PUSH2 0xE6 SWAP2 SWAP1 PUSH2 0x556 JUMP JUMPDEST PUSH2 0xDA PUSH2 0x1B6 CALLDATASIZE PUSH1 0x4 PUSH2 0x4BE JUMP JUMPDEST PUSH1 0x3 PUSH1 0x20 MSTORE PUSH1 0x0 SWAP1 DUP2 MSTORE PUSH1 0x40 SWAP1 KECCAK256 SLOAD PUSH1 0xFF AND DUP2 JUMP JUMPDEST PUSH2 0x158 PUSH2 0x1D9 CALLDATASIZE PUSH1 0x4 PUSH2 0x4BE JUMP JUMPDEST PUSH2 0x401 JUMP JUMPDEST PUSH1 0x0 DUP1 SLOAD PUSH1 0x40 MLOAD PUSH4 0x5A5EB7A3 PUSH1 0xE1 SHL DUP2 MSTORE CALLER PUSH1 0x4 DUP3 ADD MSTORE DUP3 SWAP2 PUSH1 0x1 PUSH1 0x1 PUSH1 0xA0 SHL SUB AND SWAP1 PUSH4 0xB4BD6F46 SWAP1 PUSH1 0x24 ADD PUSH1 0x20 PUSH1 0x40 MLOAD DUP1 DUP4 SUB DUP2 PUSH1 0x0 DUP8 DUP1 EXTCODESIZE ISZERO DUP1 ISZERO PUSH2 0x224 JUMPI PUSH1 0x0 DUP1 REVERT JUMPDEST POP GAS CALL ISZERO DUP1 ISZERO PUSH2 0x238 JUMPI RETURNDATASIZE PUSH1 0x0 DUP1 RETURNDATACOPY RETURNDATASIZE PUSH1 0x0 REVERT JUMPDEST POP POP POP POP PUSH1 0x40 MLOAD RETURNDATASIZE PUSH1 0x1F NOT PUSH1 0x1F DUP3 ADD AND DUP3 ADD DUP1 PUSH1 0x40 MSTORE POP DUP2 ADD SWAP1 PUSH2 0x25C SWAP2 SWAP1 PUSH2 0x4E2 JUMP JUMPDEST PUSH1 0x4 DUP1 SLOAD PUSH1 0x1 DUP2 ADD DUP3 SSTORE PUSH1 0x0 SWAP2 SWAP1 SWAP2 MSTORE PUSH32 0x8A35ACFBC15FF81A39AE7D344FD709F28E8600B4AA8C65C6B64BFE7FE36BD19B ADD DUP1 SLOAD PUSH1 0x1 PUSH1 0x1 PUSH1 0xA0 SHL SUB NOT AND PUSH1 0x1 PUSH1 0x1 PUSH1 0xA0 SHL SUB DUP4 AND OR SWAP1 SSTORE SWAP3 SWAP2 POP POP JUMP JUMPDEST PUSH2 0x2B5 PUSH2 0x46E JUMP JUMPDEST PUSH1 0x1 PUSH1 0x1 PUSH1 0xA0 SHL SUB DUP3 AND PUSH1 0x0 DUP2 DUP2 MSTORE PUSH1 0x3 PUSH1 0x20 SWAP1 DUP2 MSTORE PUSH1 0x40 SWAP2 DUP3 SWAP1 KECCAK256 DUP1 SLOAD PUSH1 0xFF NOT AND DUP6 ISZERO ISZERO SWAP1 DUP2 OR SWAP1 SWAP2 SSTORE DUP3 MLOAD SWAP4 DUP5 MSTORE SWAP1 DUP4 ADD MSTORE PUSH32 0x20AACC12529C681AF90469A818A9358A952C716D5E2C3EA63D39B9C7C43689BA SWAP2 ADD PUSH1 0x40 MLOAD DUP1 SWAP2 SUB SWAP1 LOG1 POP POP JUMP JUMPDEST PUSH2 0x320 PUSH2 0x46E JUMP JUMPDEST PUSH1 0x1 DUP1 SLOAD PUSH1 0x1 PUSH1 0x1 PUSH1 0xA0 SHL SUB NOT AND PUSH1 0x1 PUSH1 0x1 PUSH1 0xA0 SHL SUB DUP4 AND SWAP1 DUP2 OR SWAP1 SWAP2 SSTORE PUSH1 0x40 MLOAD SWAP1 DUP2 MSTORE PUSH32 0x7CE7EC0B50378FB6C0186FFB5F48325F6593FCB4CA4386F21861AF3129188F5C SWAP1 PUSH1 0x20 ADD JUMPDEST PUSH1 0x40 MLOAD DUP1 SWAP2 SUB SWAP1 LOG1 POP JUMP JUMPDEST PUSH1 0x4 DUP2 DUP2 SLOAD DUP2 LT PUSH2 0x385 JUMPI PUSH1 0x0 DUP1 REVERT JUMPDEST PUSH1 0x0 SWAP2 DUP3 MSTORE PUSH1 0x20 SWAP1 SWAP2 KECCAK256 ADD SLOAD PUSH1 0x1 PUSH1 0x1 PUSH1 0xA0 SHL SUB AND SWAP1 POP DUP2 JUMP JUMPDEST PUSH1 0x60 PUSH1 0x4 DUP1 SLOAD DUP1 PUSH1 0x20 MUL PUSH1 0x20 ADD PUSH1 0x40 MLOAD SWAP1 DUP2 ADD PUSH1 0x40 MSTORE DUP1 SWAP3 SWAP2 SWAP1 DUP2 DUP2 MSTORE PUSH1 0x20 ADD DUP3 DUP1 SLOAD DUP1 ISZERO PUSH2 0x3F7 JUMPI PUSH1 0x20 MUL DUP3 ADD SWAP2 SWAP1 PUSH1 0x0 MSTORE PUSH1 0x20 PUSH1 0x0 KECCAK256 SWAP1 JUMPDEST DUP2 SLOAD PUSH1 0x1 PUSH1 0x1 PUSH1 0xA0 SHL SUB AND DUP2 MSTORE PUSH1 0x1 SWAP1 SWAP2 ADD SWAP1 PUSH1 0x20 ADD DUP1 DUP4 GT PUSH2 0x3D9 JUMPI JUMPDEST POP POP POP POP POP SWAP1 POP SWAP1 JUMP JUMPDEST PUSH2 0x409 PUSH2 0x46E JUMP JUMPDEST PUSH1 0x0 DUP1 SLOAD PUSH1 0x1 PUSH1 0x1 PUSH1 0xA0 SHL SUB NOT AND PUSH1 0x1 PUSH1 0x1 PUSH1 0xA0 SHL SUB DUP4 AND SWAP1 DUP2 OR DUP3 SSTORE DUP1 DUP3 MSTORE PUSH1 0x2 PUSH1 0x20 SWAP1 DUP2 MSTORE PUSH1 0x40 SWAP3 DUP4 SWAP1 KECCAK256 DUP1 SLOAD PUSH1 0xFF NOT AND PUSH1 0x1 OR SWAP1 SSTORE SWAP2 MLOAD SWAP1 DUP2 MSTORE PUSH32 0x1D66BFBADB6ACE54835B408E6258F8646AAE3AF0EDCB650CAEEB812AE3B13BA0 SWAP2 ADD PUSH2 0x36A JUMP JUMPDEST PUSH1 0x1 SLOAD PUSH1 0x1 PUSH1 0x1 PUSH1 0xA0 SHL SUB AND CALLER EQ PUSH2 0x4BC JUMPI PUSH1 0x40 MLOAD PUSH3 0x461BCD PUSH1 0xE5 SHL DUP2 MSTORE PUSH1 0x20 PUSH1 0x4 DUP3 ADD MSTORE PUSH1 0xD PUSH1 0x24 DUP3 ADD MSTORE PUSH13 0x43616C6C6572206E6F7420525 PUSH1 0x9C SHL PUSH1 0x44 DUP3 ADD MSTORE PUSH1 0x64 ADD PUSH1 0x40 MLOAD DUP1 SWAP2 SUB SWAP1 REVERT JUMPDEST JUMP JUMPDEST PUSH1 0x0 PUSH1 0x20 DUP3 DUP5 SUB SLT ISZERO PUSH2 0x4D0 JUMPI PUSH1 0x0 DUP1 REVERT JUMPDEST DUP2 CALLDATALOAD PUSH2 0x4DB DUP2 PUSH2 0x5A3 JUMP JUMPDEST SWAP4 SWAP3 POP POP POP JUMP JUMPDEST PUSH1 0x0 PUSH1 0x20 DUP3 DUP5 SUB SLT ISZERO PUSH2 0x4F4 JUMPI PUSH1 0x0 DUP1 REVERT JUMPDEST DUP2 MLOAD PUSH2 0x4DB DUP2 PUSH2 0x5A3 JUMP JUMPDEST PUSH1 0x0 DUP1 PUSH1 0x40 DUP4 DUP6 SUB SLT ISZERO PUSH2 0x512 JUMPI PUSH1 0x0 DUP1 REVERT JUMPDEST DUP3 CALLDATALOAD PUSH2 0x51D DUP2 PUSH2 0x5A3 JUMP JUMPDEST SWAP2 POP PUSH1 0x20 DUP4 ADD CALLDATALOAD DUP1 ISZERO ISZERO DUP2 EQ PUSH2 0x532 JUMPI PUSH1 0x0 DUP1 REVERT JUMPDEST DUP1 SWAP2 POP POP SWAP3 POP SWAP3 SWAP1 POP JUMP JUMPDEST PUSH1 0x0 PUSH1 0x20 DUP3 DUP5 SUB SLT ISZERO PUSH2 0x54F JUMPI PUSH1 0x0 DUP1 REVERT JUMPDEST POP CALLDATALOAD SWAP2 SWAP1 POP JUMP JUMPDEST PUSH1 0x20 DUP1 DUP3 MSTORE DUP3 MLOAD DUP3 DUP3 ADD DUP2 SWAP1 MSTORE PUSH1 0x0 SWAP2 SWAP1 DUP5 DUP3 ADD SWAP1 PUSH1 0x40 DUP6 ADD SWAP1 DUP5 JUMPDEST DUP2 DUP2 LT ISZERO PUSH2 0x597 JUMPI DUP4 MLOAD PUSH1 0x1 PUSH1 0x1 PUSH1 0xA0 SHL SUB AND DUP4 MSTORE SWAP3 DUP5 ADD SWAP3 SWAP2 DUP5 ADD SWAP2 PUSH1 0x1 ADD PUSH2 0x572 JUMP JUMPDEST POP SWAP1 SWAP7 SWAP6 POP POP POP POP POP POP JUMP JUMPDEST PUSH1 0x1 PUSH1 0x1 PUSH1 0xA0 SHL SUB DUP2 AND DUP2 EQ PUSH2 0x5B8 JUMPI PUSH1 0x0 DUP1 REVERT JUMPDEST POP JUMP INVALID LOG2 PUSH5 0x6970667358 0x22 SLT KECCAK256 SWAP1 SWAP16 0x5D SWAP11 0xD3 0x2D 0xF9 BYTE CREATE2 CREATE2 0xBA INVALID PUSH18 0x1C1B050E96137399D83AF1A9F5F982A6D38A BYTE PUSH5 0x736F6C6343 STOP ADDMOD MOD STOP CALLER ","sha1":"6ea69c91e91325a446251e71af3351ef183b3a34","source":"//SPDX-License-Identifier: BUSL-1.1\npragma solidity ^0.8.0;\n\nimport \"../interfaces/IVaultFactP.sol\";\n\n// Change factories in 1 step and events update also 1 step\n\ncontract DeployRCU_P {\n\n    address public VaultFact;\n    address public RiskProtocol;\n    mapping (address => bool) public VaultFactList;\n    mapping (address => bool) public SegaFactList;\n    address[] public VaultList;\n\n\n    event AdminChanged(address RP);\n    event VFChanged(address vf);\n    event SFListUpdated(address _sf, bool onOff);\n\n    modifier isRP() {\n        _isRP();\n        _;\n    }\n\n    function _isRP() internal view {\n        require (msg.sender == RiskProtocol,\n        \"Caller not RP\");\n    }\n\n    constructor(address _vf, address _sf) {\n        RiskProtocol = msg.sender;\n        VaultFact = _vf;\n        VaultFactList[VaultFact] = true;\n        SegaFactList[_sf] = true;\n    }\n\n    function changeAdmin (address _rP) public isRP {\n        RiskProtocol = _rP;\n        emit AdminChanged(_rP);\n    }\n\n    function changeVaultFactory (address _vf) public isRP {\n        VaultFact = _vf;\n        VaultFactList[VaultFact] = true;\n        emit VFChanged(_vf);\n    }\n\n    function launchVault() public returns (address){\n        address vault = IVaultFactP(VaultFact).createVault(msg.sender);\n        VaultList.push(vault);\n        return vault;\n    }\n\n    function updateSegaFactList (address _sf, bool onOff) public isRP {\n        SegaFactList[_sf] = onOff;\n        emit SFListUpdated(_sf, onOff);\n    }\n\n    function verifySF (address _sf) public view returns (bool) {\n        return SegaFactList[_sf];\n    }\n\n    function getVaultList() public view returns (address[] memory) {\n        return VaultList;\n    }\n}","sourcePath":"contracts/0_RCU_P.sol","type":"contract","deployment":{"address":"0xA3650a19526B524099b054580FF0cF77cbBEF99c","chainid":"42","blockHeight":28456582}}